:100000000C94AF050C94F6050C94F6050C94F605CB
:100010000C94F6050C94F6050C94F6050C94F60574
:100020000C94F6050C94F6050C94AE2A0C94802BD7
:100030000C948B200C94F6050C94F6050C94F605A4
:100040000C94F6050C94F6050C94F6050C94F60544
:100050000C94F6050C94F3200C94F6050C94F6051C
:100060000C94F6050C94F6050C94F6050C94F60524
:100070000C94F6050C94F6050C94F6050C94F60514
:100080000C94C70E0C94F6050C94F6050C94F6052A
:100090000C94F6050C94F6050C94F6050C94F605F4
:1000A0000C94F6050C94F6050C94F6051D171D1717
:1000B0004C174C178B17AB1701190119B6170119FB
:1000C00066186618CD18D6180119FB18731873181E
:1000D00073187318731873187318731873187318C8
:1000E000731873187318731873187318831891188A
:1000F00098189F18A918ED2B0F2CFD2C0F2CFD2CF8
:10010000542C772CFD2CCC2CDF2C07634236B79B6C
:10011000D8A71A39685618AEBAAB558C1D3CB7CC67
:100120005763BD6DEDFD753EF6177231BF000000DF
:10013000803F08000000BE922449123EABAAAA2AC2
:10014000BECDCCCC4C3E00000080BEABAAAAAA3EDD
:1001500000000000BF000000803F00000000000819
:100160004178D3BB4387D1133D190E3CC3BD4282B6
:10017000AD2B3E68EC8276BED98FE1A93E4C80EF74
:10018000FFBE01C4FF7F3F000000000029001E00E9
:100190001F0020002100220023002400250026004B
:1001A00027002D002B0014001A000800150017006E
:1001B0001C0018000C00120013002A00E0000400CC
:1001C0001600070009000A000B000D000E000F00CA
:1001D00033002800E1001D001B0006001900050087
:1001E000110010003600370038003400427029003A
:1001F000E200E30040702C002C00417050005100E0
:1002000052004F0035001E001F0020002100220078
:10021000230024002500260027002A002B001400BC
:100220001A00090013000A000D000F0018001C003E
:1002300033004C00290004001500160017000700C9
:100240000B00110008000C0012003400E1001D003A
:100250001B000600190005000E00100036003700D4
:10026000380028004270E000E200E30040702C00FB
:100270002C0041705000510052004F0035001E000C
:100280001F0020002100220023002400250026005A
:1002900027002A002B0034003600370013001C0012
:1002A00009000A00060015000F004C002900040098
:1002B0001200080018000C0007000B0017001100C6
:1002C00016003800E100330014000D000E001B0082
:1002D000050010001A0019001D0028004270E000FF
:1002E000E200E30040702C002C00417050005100EF
:1002F00052004F0035021E021F022002210222027C
:10030000230224022502260227022D0235021E02A4
:100310001F022002210222022302240225022F00B2
:10032000300035004C003A003B003C003D003E00F0
:100330003F002D022E022F02300231020100400048
:1003400041004200430044004500320264020100C3
:10035000010035020100010001000100010001005F
:10036000010001004A004E004B004D0035001E0008
:100370001F00200021002200230024002500260069
:100380002700460035001E001F002000210022002B
:1003900023002400F400F000F500FD004C003A00BA
:1003A0003B003C003D003E003F002D00F200F1000C
:1003B000F300FE0001004000410042004300440001
:1003C0004500320064002E000100FF000100010022
:1003D000010001000100010001000100AB00AA00C2
:1003E000A900AE00000000000000000000000000B6
:1003F00000000000000000000000000000000000FD
:1004000000000000000000000000000000000000EC
:1004100000000000000000000000000000000000DC
:1004200000000000000000000000000000000000CC
:100900000000000000000000000000003A003B0072
:100910003C003D003E003F004000410042004300DB
:1009200044004500010000700100010001000100C9
:10093000010001000100010001004C000100010064
:1009400001001570167013700A703D703E703F7094
:100950000100010001001C701B70187019701D70DF
:100960001E700100010001000100010001000100F2
:10097000010001000100010001000100010001006F
:10098000010001002A0354006800650020005000A7
:10099000720065006F006E006900630020004B006C
:1009A0006500790062006F00610072006400000061
:1009B0002C034F007200740068006F006C00690027
:1009C0006E0065006100720020004B006500790038
:1009D00062006F0061007200640073000000040395
:1009E000090409026D00040100A0FA0904000001D5
:1009F00003010100092111010001224000070581C6
:100A00000308000A09040100010301020009211181
:100A1000010001224D000705820308000A090402B3
:100A20000001030000000921110100012236000726
:100A300005830308000A09040300010300000009FC
:100A40002111010001223900070584031000011261
:100A500001100100000008EDFE61600100010200CC
:100A60000105010906A101050719E029E71500257F
:100A7000019508750181020508190129059505757B
:100A80000191029501750391010507190029771558
:100A9000002501957875018102C005010980A10139
:100AA000850216810026B7001A81002AB70075104A
:100AB00095018100C0050C0901A101850316010003
:100AC000269C021A01002A9C02751095018100C023
:100AD00005010902A1010901A10005091901290562
:100AE00015002501950575018102950175038101A8
:100AF0000501093009311581257F950275088106A8
:100B000009381581257F950175088106050C0A387D
:100B1000021581257F950175088106C0C005010970
:100B200006A101050719E029E715002501950875BB
:100B300001810295017508810105081901290595B2
:100B400005750191029501750391010507190029A9
:100B5000FF150026FF00950675088100C0001124CE
:100B60001FBECFEFDAE0DEBFCDBF04B603FE27C065
:100B700080912F0490913004A0913104B0913204FF
:100B80008730904BA740B04BD1F410922F041092B5
:100B90003004109231041092320414BE84B7877F5F
:100BA00084BF0FB6F894A895809160008861809307
:100BB0006000109260000FBEE0E0F8E3099512E0DB
:100BC000A0E0B1E0EAE5F3E602C005900D92AA3C90
:100BD000B107D9F714E0AAECB2E001C01D92AF3220
:100BE000B107E1F70E94F5270C94AB310C9400009B
:100BF0006E9A769A0C949906CF93DF93EC010E943B
:100C00001720BE0180E090E0DF91CF910C942C1D65
:100C10000F931F93CF93FB018F3320E79207B9F116
:100C200040F48D3320E7920771F08E339047E1F066
:100C300062C0813420E79207E9F1C8F1823490471D
:100C400009F44CC058C0C281CC2309F455C000E05F
:100C500010E0980140E064E070E088EC91E00E94D0
:100C6000451281E090E010C0C281CC2309F444C059
:100C700000E010E0980140E066E070E088E591E077
:100C80000E94451282E090E00E94FC052FC0C281C4
:100C9000CC2391F100E010E0980140E068E070E0C2
:100CA00088E891E00E94451284E090E0EDCFC28197
:100CB00083E002C0C28184E0CC2341F00E94A91DE0
:100CC00040E164E083E00E94C90610C00E94CA1D92
:100CD00040E164E083E00E94C9060EC0C28185EE57
:100CE000CC2331F00E94B6150E94FB25C0E004C061
:100CF0000E94891601C0C1E08C2FCF911F910F91E6
:100D000008950F931F932FEF89EF90E021508040BB
:100D10009040E1F700C0000000E010E0980140E0E2
:100D200064E070E088EE91E00E9445121F910F91FF
:100D300008950C9481060F931F9300E010E0980132
:100D400040E063E070E080E491E00E9445122FEF04
:100D500082E597E0215080409040E1F700C000001C
:100D60001F910F910C94FA0D0F931F9300E010E068
:100D7000980140E068E070E080E091E00E94451258
:100D80001F910F9108950C94B40681E008950C947E
:100D90000806CF92DF92EF92FF920F931F9301E02C
:100DA00010E020E030E06801790104C0CC0CDD1CCB
:100DB000EE1CFF1C8A95D2F704C0000F111F221FE2
:100DC000331F6A95D2F70C291D292E293F29C0907F
:100DD000D303D090D403E090D503F090D603C02283
:100DE000D122E222F322842FC016D106E206F306B6
:100DF00041F41F910F91FF90EF90DF90CF900C94F2
:100E0000A91D1F910F91FF90EF90DF90CF900C9450
:100E1000CA1D0E94920D0C94420B279A2F988FEFB7
:100E20009FEF90938700809386008AE080938000F4
:100E300089E1809381000C94A4250E940D070C94F5
:100E4000F805282F2F9880918000211108C0877FF6
:100E50008093800010928D0010928C00089588601D
:100E600080938000233019F48FEF9FEF0FC083E051
:100E700090E0821B9109880F991F2FEF3FEFA90186
:100E800002C0569547958A95E2F7CA0190938D0066
:100E900080938C00089508950C944B070C944C0794
:100EA0000E946C190E94FA0D0E949B062FEF84E3AA
:100EB0009CE0215080409040E1F700C000000C947D
:100EC00018210F931F93CF93DF938C01FC01C081F6
:100ED000D181CE010E94651EBE010E94410AEC0133
:100EE000B8010E94C706882309F412C1B801CE01D7
:100EF0000E94240C882309F40BC1B801CE010E9482
:100F0000D10A882309F404C1C431F0E7DF0708F0EF
:100F1000CDC0C23080E7D80708F4A3C0F8018281B1
:100F2000882309F4AAC00E940420811102C00E94F3
:100F3000E01F0E941C2090E09093200480931F04E7
:100F4000C230F0E7DF0721F480911F04816082C086
:100F5000C33080E7D80721F480911F0482607AC0F3
:100F6000C430E0E7DE0721F480911F04846072C082
:100F7000C530F0E7DF0719F480911F0427C0C630A1
:100F800080E7D80721F480911F04806163C0C730D7
:100F9000E0E7DE0721F480911F0480625BC0C83067
:100FA000F0E7DF0721F480911F04806453C0C9304B
:100FB00080E7D80721F480911F0480684BC0CA30B5
:100FC000E0E7DE0729F480911F048460886042C056
:100FD000CB30F0E7DF0721F480911F048E7F3AC009
:100FE000CC3080E7D80721F480911F048D7F32C078
:100FF000CD30E0E7DE0721F480911F048B7F2AC00B
:10100000CE30F0E7DF0719F480911F0422C0CF3003
:1010100080E7D80721F480911F048F7E1BC0C03168
:10102000E0E7DE0721F480911F048F7D13C0C131FA
:10103000F0E7DF0721F480911F048F7B0BC0C231E2
:10104000D04721F480911F048F7704C080911F0442
:101050008B7F877F80931F0480911F040E94202034
:1010600057C0C115E0E7DE0779F0C130D047A1F0E5
:1010700081E08093CA028093CB02C801DF91CF91B7
:101080001F910F910C94C506F8018281882309F401
:101090003FC00E9450073CC0F80182818823C1F103
:1010A0008091F00381608093F00332C0CB3380E7FE
:1010B000D807A1F4F8018281882321F01092CA0296
:1010C00082E016C08091CA02811106C086E20E94A9
:1010D000B61586E20E94891682E018C0CC33D0474C
:1010E00039F6F8018281882331F01092CB0280E238
:1010F0000E94D8160DC08091CB02811106C087E2F4
:101100000E94B61587E20E94891680E20E94DF16CF
:1011100080E0DF91CF911F910F9108952CE0729F95
:10112000F00111243CE3839FE00DF11D1124E60F33
:10113000F11DEE0FFF1FE457FE4F859194910E9421
:10114000530A811540E5940708F047C0811520E453
:10115000920708F01BC1883E910520F5803E91055D
:1011600008F08AC1883A910578F4853A910508F02B
:10117000A5C08130910509F47FC108F436C18430DF
:10118000910508F079C131C18D3B910508F4A1C0EA
:10119000803C910508F429C1FC01EE0FFF1FEC5FB4
:1011A000F74FEEC0811530E2930758F4811541E006
:1011B000940708F061C1803F910508F416C190655D
:1011C0000895811520E3920708F0DDC0FC01FF704F
:1011D000EE0FFF1FEC57F64FD3C0811535E593078F
:1011E00008F043C0811544E5940708F0E6C0811576
:1011F00022E5920708F5811531E5930708F0C9C08B
:10120000482F437021E030E002C0220F331F4A957F
:10121000E2F73C68AC0164E0569547956A95E1F7C2
:101220004370342B8F708695869540E2849FC00171
:101230001124822B932B0895282F26952695AC01F7
:10124000437055278115934508F0A8C080E2289F78
:101250009001112481E090E002C0880F991F4A9507
:10126000E2F7822B932B9C6808958F3240E7940716
:1012700090F48F3120E7920708F0AAC0811536E577
:10128000930708F49FC09C0130562115304108F0A7
:10129000ACC09F709BC0803320E7920709F49FC0C9
:1012A00008F49AC0813340E7940709F49BC0823365
:1012B000904709F09AC080E093ED0895853A910532
:1012C00009F496C0863A910509F095C082E890E449
:1012D0000895883A910509F491C0893A910509F475
:1012E00090C08A3A910509F48FC08B3A910509F4B0
:1012F0008EC08C3A910509F48DC08B3B910509F4A1
:101300008CC08C3B910509F48BC08D3A910509F492
:101310008AC0803B910509F489C08E3A910509F491
:1013200088C08F3A910509F487C0813B910509F483
:1013300086C0823B910509F485C0833B910509F481
:1013400084C0843B910509F483C0853B910509F471
:1013500082C0863B910509F481C0873B910509F461
:1013600080C0883B910509F47FC0893B910509F451
:101370007EC08A3B910509F47DC080E094E4089525
:101380008591949108959927906C08959F70906A23
:101390000895982F8827816F906A089590E2299F79
:1013A0009001112481E090E002C0880F991F4A95B6
:1013B000E2F7822B932B9A680895982F8827846FE1
:1013C000906A08958F719927982F882790620895C1
:1013D0008F519047946D089580E091ED089580E0DD
:1013E00090ED089580E092ED089580E090E00895FA
:1013F00081E890E4089583E890E4089582EE94E40F
:10140000089589EE94E408958AEE94E4089585EBB6
:1014100094E4089586EB94E4089583EB94E40895AE
:1014200084EB94E4089587EB94E408958CEC94E4C1
:1014300008958DEC94E4089583E895E408958AE88E
:1014400095E4089582E995E4089584E995E4089582
:1014500081E296E4089583E296E4089584E296E4B6
:10146000089585E296E4089586E296E4089587E279
:1014700096E408958AE296E4089580E090E0089565
:1014800008959CE0799FF00111249CE3899FE00D71
:10149000F11D1124E60FF11DEE0FFF1FE457FE4F63
:1014A0008591949108958238910549F1B0F4813382
:1014B000910509F458C048F48932910509F44EC0E9
:1014C0008A32910509F454C008958533910509F4D1
:1014D00040C08933910599F00895833E910529F123
:1014E00038F4803E910591F0823E9105A1F0089577
:1014F000863E9105F9F0873E910531F108952091DE
:101500001F0420FD3AC021FD38C0089580911F04BA
:1015100080FD35C032C080911F0482FF32C08091AF
:101520001F0484FD30C083EE39C080911F0482FD0A
:1015300028C0F5CF80911F0483FF27C080911F042E
:1015400084FD21C087EE2AC080911F0483FD1DC049
:10155000F5CF80911F0485FD1AC01BC080911F0428
:1015600085FD17C014C080911F0486FD14C015C0EE
:1015700080911F0486FD11C00EC080EE0FC089E36C
:101580000DC082EE0BC080E009C086EE07C089E284
:1015900005C085E303C08AE201C081E390E00895BD
:1015A00008950F931F93CF93FB012281211102C055
:1015B000C1E041C08C01C091D902C11125C0843164
:1015C0009047B1F70E94D00A81E08093D9020E942F
:1015D000BD209093D8028093D7021092CC02109233
:1015E000CE021092CD021092D0021092CF02109231
:1015F000D2021092D1021092D4021092D302109211
:10160000D6021092D50217C08091D7029091D802CD
:101610000E94C920883C910558F69091CC02E92F90
:10162000F0E0EE0FFF1FE353FD4F118300839F5F38
:101630009093CC02C0E08C2FCF911F910F91089511
:10164000A6E5B2E041E050E08D91E82FF0E094E0B3
:10165000F595E7959A95E1F721A18F70BA0102C03F
:10166000660F771F8A95E2F7CB01962F909592230C
:1016700091A392A1892B82A372E0AB35B70721F722
:10168000089508950C94410B85B7806885BF85B790
:10169000806885BF0E94200BAAE4B2E041E050E0E0
:1016A0008D91E82FF0E094E0F595E7959A95E1F7B4
:1016B00021A18F70BA0102C0660F771F8A95E2F7E9
:1016C000CB01962F9095922391A392A1892B82A36F
:1016D00072E0A635B70721F7E4EEF2E0AAEDB2E03A
:1016E000119211921D921D9282E0EE3EF807C1F711
:1016F0000C941D07AF92BF92CF92DF92EF92FF92B0
:101700000F931F93CF93DF930AED12E07801C6E5A4
:10171000D2E0CC24C394D12C35E0A32EBC2EBA0C3D
:101720008991E82FF0E094E0F595E7959A95E1F737
:1017300021A18F70A60102C0440F551F8A95E2F7C0
:10174000CA01922F982B91A392A18095892382A3FD
:1017500050EA5A95F1F7EAE4F2E020E030E040E0A8
:1017600050E06191A62FB0E084E0B595A7958A95E9
:10177000E1F790968C9190E06F7002C095958795F7
:101780006A95E2F780FD08C0C601042E02C0880FEA
:10179000991F0A94E2F702C080E090E0282B392BD1
:1017A0004F5F5F4F4C305105E1F6D7018D919D9110
:1017B0007D018217930731F0FD0132973183208339
:1017C000A09208020E94200BBC12AACF80910802AE
:1017D0008823C1F0815080930802882339F0EFE913
:1017E000FFE03197F1F700C000000CC0E4EEF2E03A
:1017F000D8018D919D918D0181939193B2E0043E2A
:101800001B07B1F70E94090781E0DF91CF911F917B
:101810000F91FF90EF90DF90CF90BF90AF90089521
:10182000E82FF0E0EE0FFF1FEC51FD4F808191811A
:1018300008950895109235030C94FA0D81E0809379
:1018400035030C94C30608958F929F92AF92BF9276
:10185000EF92FF920F931F93CF93DF93CDB7DEB735
:10186000A3970FB6F894DEBF0FBECDBF7C018B01EE
:10187000853120E7920741F4FB018281882309F436
:1018800058C00E94DC120BC08631F0E79F0749F474
:10189000FB018281882309F44CC00E94E51280E09C
:1018A00030C18731F0E79F0751F4FB018281882323
:1018B00009F43FC00E94D8128111EFCFE2CF8831E6
:1018C000F0E79F0739F4FB018281882391F10E94A0
:1018D0001E0CE5CF8931F0E79F0739F4FB018281C7
:1018E000882339F10E941A0CDACF8A31F0E79F077A
:1018F00049F4FB0182818823E1F080913503811155
:10190000F1CFE5CF8B31F0E79F0739F4FB018281FE
:10191000882379F00E94EC1209C08C31904749F479
:10192000FB018281882329F00E94F7120E94B406ED
:10193000B6CF80913503882309F4E2C0F0EEEF16AC
:10194000F10489F4F8018281882309F45FC00E94C0
:10195000FA0D81E080933403109233031092320326
:101960001092F1029CCFF2EEEF16F10499F4F80117
:101970008281882309F44AC00E94FA0D80913403C1
:10198000882319F081E0809333031092340310927E
:10199000320385CFF3EEEF16F104B1F4F801828142
:1019A0008823A1F180913303882381F10E94FA0DED
:1019B0001092340381E0809332031092F00210926F
:1019C000EF021092EE026BCFF2E5EF16F10459F43C
:1019D000F8018281882309F494C0809109029091D2
:1019E0000A020A970EC0F1E5EF16F10479F4F80146
:1019F0008281882309F485C08091090290910A02AE
:101A00000A9690930A028093090249CF40910D02F1
:101A100083E2E7E2F2E0DE01119601900D928A95F1
:101A2000E1F7F801808121E030E02C0F3D1F280F05
:101A3000311DC90120910B0230910C02FC01E20F13
:101A4000F31F6081772767FD7095640F711D8827EC
:101A500077FD8095982F0E944D2E20E030E040E4E5
:101A600051E40E94A32D4B015C01F801218185E026
:101A700090E0821B9109BC01882777FD8095982F03
:101A80000E944D2E9B01AC01C501B4010E94322D74
:101A90009B01AC0160E070E080E090E40E94D12FF7
:101AA00020E030E04CED50E40E94642F4B015C01DB
:101AB000F80182818823D1F04FE050E0C501B401E4
:101AC0000E94E511809134038823A1F08091F102F6
:101AD00024E0829FF0011124EE50FD4F808291821C
:101AE000A282B3828F5F8093F10204C0C501B4016A
:101AF0000E942D0E81E03FEFE316F10410F4CFCEEB
:101B000081E0A3960FB6F894DEBF0FBECDBFDF9184
:101B1000CF911F910F91FF90EF90BF90AF909F904A
:101B20008F90089580913203882309F448C08091F2
:101B3000EE029091EF02009779F40E94BD209093FD
:101B4000EF028093EE028091F00290E0009771F432
:101B50008091F10290E00AC00E94C9202091090200
:101B600030910A022817390740F308950197880F2A
:101B7000991F880F991FFC01EE50FD4F6081718104
:101B8000828193810E942D0EE091F00284E0E89F13
:101B9000F0011124EE50FD4F6081718182819381AB
:101BA0004FE050E00E94E5118091F00290E0019634
:101BB0006091F10270E00E945C318093F002089520
:101BC0000E940420811102C00E94E01F0E942E206A
:101BD000809317043E9A809171008D7F80937100ED
:101BE00082E0809390008AE18093910081E080936D
:101BF0003803089580913803811102C00E94E00DDE
:101C00001092880310928703809171008D7F8093DA
:101C10007100809190008F738093900010924A031E
:101C20001092490310928103109282031092830351
:101C3000109284031092800310927F03EFE5F3E08B
:101C4000AFE4B3E011921192119211921D921D9284
:101C500083E0EF37F807B1F70895CF92DF92EF9264
:101C6000FF920F931F93CF93DF9320914903222379
:101C700009F484C06B017C0180913803811102C09A
:101C80000E94E00D0FE713E0C7E0D0E0A701960146
:101C9000F80192918291729162918F010E949E2D22
:101CA000811131C0FE01EE0FFF1FEE0FFF1FE15A41
:101CB000FC4F1082118212821382DE01AA0FBB1F19
:101CC000A15BBC4F11961C921E92C730D105E9F062
:101CD0002196448155816681778140835183628357
:101CE0007383148215821682178212968D919C91AD
:101CF000139711969C938E9313961C921E92129793
:101D000034961296E2CF219708F68091870390913E
:101D10008803019797FD05C09093880380938703FC
:101D200004C01092880310928703809187039091DA
:101D3000880320918503309186032817390724F002
:101D40001092860310928503892BC1F48091710053
:101D50008D7F80937100809190008F7380939000AD
:101D600010928103109282031092830310928403D5
:101D70001092800310927F0310924903DF91CF915C
:101D80001F910F91FF90EF90DF90CF9008951F92D9
:101D90000F920FB60F9211244F925F926F927F9223
:101DA0008F929F92AF92BF92CF92DF92EF92FF926B
:101DB0002F933F934F935F936F937F938F939F9353
:101DC000AF93BF93CF93DF93EF93FF93809149033A
:101DD000882309F49BC1C0918703D09188031C1606
:101DE0001D060CF093C14090390350903A03609067
:101DF0003B0370903C0320E030E0A901C301B20135
:101E00000E945F2F18160CF065C0C130D10509F48F
:101E100052C08091850390918603BE010E945C317F
:101E20007C01909386038093850380904B03909070
:101E30004C03A0904D03B0904E0320E030E040E80A
:101E40005FE3C501B4010E94322D60934B03709390
:101E50004C0380934D0390934E03F701EE0FFF1F49
:101E6000EE0FFF1FE15AFC4FA301920160817181C7
:101E7000828193810E94A32D20E030E040E05EE368
:101E80000E94642F9B01AC01C501B4010E945F2F29
:101E900018168CF4C7010196BE010E945C31909324
:101EA00086038093850310924B0310924C0310928B
:101EB0004D0310924E03E0918503F0918603EE0FDF
:101EC000FF1FEE0FFF1FE15AFC4F6081718182817D
:101ED0009381D0C0C0908103D0908203E0908303AF
:101EE000F090840320E030E0A901C701B6010E9410
:101EF0009E2D2197882309F4A2C0FE01EE0FFF1F3B
:101F0000EE0FFF1FE15AFC4F80809180A280B380CA
:101F1000A5019401C701B6010E949E2D87FF31C023
:101F2000A501940160E070E08CED93EC0E94A32D7C
:101F300020E030E040E451E40E94A32D20E030E0B6
:101F400040E05FE30E94642F9B01AC0160E070E021
:101F500080E090E40E94D12F9B01AC01C501B40147
:101F60000E94642F9B01AC01C701B6010E949E2D07
:101F700087FF07C0A701960160E070E08CED93E455
:101F800039C0A5019401C701B6010E945F2F181640
:101F90000CF055C0A501940160E070E08CED93E475
:101FA0000E94A32D20E030E040E451E40E94A32DE4
:101FB00020E030E040E05FE30E94642F9B01AC0131
:101FC00060E070E080E090E40E94D12F9B01AC01C2
:101FD000C501B4010E94642F9B01AC01C701B60189
:101FE0000E945F2F18165CF5A701960160E070E073
:101FF0008CED93EC0E94A32D20E030E040E451E40E
:102000000E94A32D20E030E040E05FE30E94642FB7
:102010009B01AC0160E070E080E090E40E94D12F71
:102020009B01AC01C701B6010E94642F609381033C
:1020300070938203809383039093840313C0FE0103
:10204000EE0FFF1FEE0FFF1FE15AFC4F80819181C1
:10205000A281B3818093810390938203A093830331
:10206000B093840360918103709182038091830314
:102070009091840320913603309137032F3F4FEF27
:10208000340731F02F5F3F4F3093370320933603EF
:102090000E9402136B017C0120E034E244EF51E422
:1020A0000E949E2D87FF08C086EFC82E88E2D82E9A
:1020B00084EFE82E81E4F82E20E030E040E051E4A7
:1020C000C701B6010E94642F9B01AC0160E074E27D
:1020D00084E79BE40E94A32D6B017C010E941C2ECF
:1020E000709397006093960020910E0230910F023A
:1020F0004091100250911102C701B6010E94642F55
:102100000E941C2E709399006093980080914A035E
:10211000882309F433C1C0904503D0904603E09072
:102120004703F090480320E030E0A901C701B60161
:102130000E945F2F1816D4F58091360390913703D3
:102140008F3F2FEF920729F00196909337038093EA
:102150003603C701B6010E94021320E030E040E0E0
:1021600051E40E94642F9B01AC0160E074E284E7BB
:102170009BE40E94A32D6B017C010E941C2E709396
:1021800097006093960020910E0230910F024091CB
:10219000100250911102C701B6010E94642F0E94E3
:1021A0001C2E709399006093980008C010929700BD
:1021B00010929600109299001092980060913F033F
:1021C000709140036F5F7F4F7093400360933F03B4
:1021D000209196003091970080E090E0232BF1F061
:1021E000C0919600D09197000E944B2E6B017C010C
:1021F000BE0180E090E00E944B2E9B01AC016091FB
:1022000041037091420380914303909144030E94E3
:10221000A32D20E03FEF4FE757E410C00E944B2E64
:102220006B017C0120E030EE4FEF54E460914103FC
:102230007091420380914303909144030E94642F64
:102240009B01AC01C701B6010E945F2F87FD96C0BC
:1022500080913D038F5F80933D0390E020911304B4
:102260003091140482179307A0F080911E048823F4
:1022700019F010923D030DC0809171008D7F809305
:102280007100809190008F738093900010924A03A8
:102290007DC080913E03C0913D03811128C0C09054
:1022A0001804D0901904E0901A04F0901B0420E068
:1022B00030E0A901C701B6010E945F2F1816BCF4D7
:1022C00081E080933E0310924503109246031092E2
:1022D000470310924803C0924103D0924203E09218
:1022E0004303F0924403C150C0933D0343C0109296
:1022F0003E031092370310923603E0911504F091DB
:10230000160448E0C49FE00DF11D112480819181E5
:10231000A281B3818093450390934603A093470322
:10232000B093480320E030E040E85EE364817581CB
:10233000868197810E94642F6B017C01809112023B
:10234000682F70E080E090E00E944B2E20E030E0AB
:1023500048EC52E40E94A32D9B01AC01C701B601D9
:102360000E94642F60934103709342038093430360
:10237000909344031092400310923F0380911704FE
:1023800080FD04C010924A0310924903FF91EF911F
:10239000DF91CF91BF91AF919F918F917F916F917D
:1023A0005F914F913F912F91FF90EF90DF90CF90F1
:1023B000BF90AF909F908F907F906F905F904F9065
:1023C0000F900FBE0F901F901895CF92DF92EF9253
:1023D000FF92CF93DF936B017C01EA018091380378
:1023E000811102C00E94E00D8091170480FF46C059
:1023F000809187039091880308970CF03FC08091EB
:1024000071008D7F8093710080914A0381110E9439
:10241000FA0D81E08093490310923703109236033E
:1024200020E030E0A901C701B6010E945F2F181615
:10243000DCF48091870390918803FC01EE0FFF1F6D
:10244000EE0FFF1FE15AFC4FC082D182E282F3827D
:10245000FC01EE0FFF1FE15BFC4FD183C0830196AF
:1024600090938803809387038091710082608093AA
:10247000710080919000806880939000DF91CF91EF
:10248000FF90EF90DF90CF9008958F929F92AF9240
:10249000BF92CF92DF92EF92FF920F931F93CF9351
:1024A000DF93EC017B01D42E480159018091380360
:1024B000811102C00E94E00D8091170480FF6BC063
:1024C000809171008D7F809371008091490381110B
:1024D0000E94FA0D81E080934A03D0931604C093C2
:1024E0001504F0921404E0921304D0921E0480921A
:1024F000180490921904A0921A04B0921B0410922E
:102500004B0310924C0310924D0310924E03109205
:102510003D0388819981AA81BB8180934503909373
:102520004603A0934703B093480320E030E040E81F
:102530005EE36C817D818E819F810E94642F6B019F
:102540007C0180911202682F70E080E090E00E9490
:102550004B2E20E030E048EC52E40E94A32D9B017A
:10256000AC01C701B6010E94642F609341037093D0
:1025700042038093430390934403109240031092CC
:102580003F03809171008260809371008091900080
:10259000806880939000DF91CF911F910F91FF9001
:1025A000EF90DF90CF90BF90AF909F908F90089565
:1025B0008091170481700895809117048160809341
:1025C00017040E9432200C94230C809117048E7FF4
:1025D000809317040C9432208091890390E0019637
:1025E00066E070E00E945C318093890308958091D9
:1025F000890390E0019766E070E00E945C3180936F
:10260000890308958F929F92AF92BF92CF92DF92EB
:10261000EF92FF920F931F93CF93DF936B017C0197
:10262000C0913603D0913703BE0180E090E00E9454
:102630004B2E4B015C01A701960160E070E08CE538
:1026400094E40E94A32D9B01AC01C501B4010E943A
:10265000642F0E941C2E20918903233009F473C03B
:1026600028F4222351F02130E9F02CC1243009F460
:10267000A0C0253009F4E0C025C180E090E0A0E0D2
:10268000BFE380930E0290930F02A0931002B093C9
:1026900011021092390310923A0310923B031092E8
:1026A0003C0310C11092390310923A0310923B037D
:1026B00010923C036431710540F46A30710560F595
:1026C00020E030E040E85EE32BC0693C710508F093
:1026D000AAC080E090E00E944B2E20E030E040EA6B
:1026E00051E40E94312D20E030E044E353E40E94A5
:1026F000A32D9B01AC010E94642F20E030E040E05C
:102700005EE30E94642F9B01AC0160E070E080E01A
:102710009EE30E94312D44C020E030E040E05FE3C2
:10272000C701B6010E94642F6B017C0180E090E03C
:10273000A0E0BEE380930E0290930F02A0931002DC
:10274000B0931102BFC01092390310923A03109255
:102750003B0310923C034AE0469F9001479F300D97
:102760001124C90168EB7BE00E944831BC016C5D1B
:10277000754077FF03C0719561957109882777FDD2
:102780008095982F0E944D2E2EE333EC4EE259E3B4
:102790000E94642F20E030E040EC5EE30E94322D86
:1027A00060930E0270930F028093100290931102B7
:1027B00089C01092390310923A0310923B03109291
:1027C0003C03CE0183709927892BE1F0BE01617033
:1027D000772780E090E00E944B2E20E030E040E040
:1027E0005EE30E94642F20E030E040E45FE30E945B
:1027F000322D60930E0270930F028093100290931B
:1028000011020CC080E090E0A0E0BFE380930E02D4
:1028100090930F02A0931002B0931102C770DD27AE
:10282000CD2B09F04FC010920E0210920F021092A1
:1028300010021092110246C01092390310923A030E
:1028400010923B0310923C0300E010E020E03FE3D5
:1028500000930E0210930F02209310023093110286
:102860006739710578F180E090E00E944B2E20E0FE
:1028700030E047E153E40E94312D20E030E04AE7A8
:1028800054E40E94A32D20E030E048E452E40E948A
:10289000642F20E030E040EA51E40E94932E0E9431
:1028A000152E660F771F660F771FFB01E55AFD4F48
:1028B0002081318142815381C701B6010E94642F7A
:1028C0006B017C01C701B601DF91CF911F910F9180
:1028D000FF90EF90DF90CF90BF90AF909F908F9040
:1028E000089590938F0380938E030895E0918E0353
:1028F000F0918F03309721F00190F081E02D099441
:1029000080E00895E0918E03F0918F03309721F0DD
:102910000280F381E02D09940895E0918E03F091F7
:102920008F03309721F00480F581E02D09940895FC
:1029300020918C0330918D038217930771F090934F
:102940008D0380938C03E0918E03F0918F03309779
:1029500021F00680F781E02D0994089520918A03E3
:1029600030918B038217930771F090938B038093C0
:102970008A03E0918E03F0918F03309721F0008459
:10298000F185E02D0994089508950C94C4140E94D3
:10299000B4200E94440B0E943A210C94A4254F922B
:1029A0005F927F928F929F92AF92BF92CF92DF926F
:1029B000EF92FF920F931F93CF93DF93CDB7DEB7C4
:1029C0002A970FB6F894DEBF0FBECDBF0E947A0BD8
:1029D00091E9C92E93E0D92E00E010E0AA24A39437
:1029E000B12C702E802F0E94100C4C01F6014190EA
:1029F00051906F014826592641145104B1F40F5FDC
:102A00001F4F0530110569F78FEF89838A831B8279
:102A10000E94BD208160782F9D838C8349815A81DB
:102A20006B818D810E9488153AC08091F00381FDF1
:102A30000E94190C20E030E07501022E02C0EE0C5D
:102A4000FF1C0A94E2F7C70184219521892B09F123
:102A50002E837F828E209F2091E0892809F490E0C8
:102A600098870E94BD208160782F9A8789874E8140
:102A70005F8168858A850E948815000F111FF80103
:102A8000EF56FC4F80819181E826F926F182E082A1
:102A900006C02F5F3F4F2C30310571F6B0CF0E943A
:102AA000D222109190030E9476141817D9F00E9438
:102AB0007614809390032A960FB6F894DEBF0FBE6B
:102AC000CDBFDF91CF911F910F91FF90EF90DF90DD
:102AD000CF90BF90AF909F908F907F905F904F90DE
:102AE0000C944E072A960FB6F894DEBF0FBECDBFEA
:102AF000DF91CF911F910F91FF90EF90DF90CF90DA
:102B0000BF90AF909F908F907F905F904F9008956F
:102B1000CF93DF93CDB7DEB72B970FB6F894DEBF18
:102B20000FBECDBF4F83588769877A878B87DE01B9
:102B3000119686E0FD0111928A95E9F785E0FE0184
:102B4000379601900D928A95E1F749815A816B8100
:102B50007C818D819E810E940A1C2B960FB6F89471
:102B6000DEBF0FBECDBFDF91CF910895CF938823F5
:102B700009F4CDC0C82F823859F40E94761481FD23
:102B8000C6C089E30E94E41E0E94B11F89E30CC005
:102B9000833879F40E94761480FDB9C083E50E94E1
:102BA000E41E0E94B11F83E50E94261FCF910C9462
:102BB000B11F843859F40E94761482FDA8C087E4BE
:102BC0000E94E41E0E94B11F87E4EECF8CEF8C0FB1
:102BD000813A48F48C2F0E940D25811198C08C2FCA
:102BE0000E94E41EE3CF80E28C0F883048F4C77067
:102BF00081E001C0880FCA95EAF70E946A1FD6CF0C
:102C00008BE58C0F833078F4C53A29F0C63A31F061
:102C100083E890E005C081E890E002C082E890E09F
:102C2000CF910C94981488E58C0F853108F06FC013
:102C3000C83A61F1C93A69F1CA3A71F1CB3A79F10E
:102C4000CC3A81F1CB3B89F1CC3B91F1CD3A99F172
:102C5000C03BA1F1CE3AA9F1CF3AB1F1C13BB9F1F4
:102C6000C23BC1F1C33BC9F1C43BD1F1C53BD9F172
:102C7000C63BE1F1C73BE9F1C83BF1F1C93BF9F1D2
:102C8000CA3B09F43FC080E090E03EC082EE90E095
:102C90003BC089EE90E038C08AEE90E035C085EB0D
:102CA00090E032C086EB90E02FC083EB90E02CC028
:102CB00084EB90E029C087EB90E026C08CEC90E09C
:102CC00023C08DEC90E020C083E891E01DC08AE82D
:102CD00091E01AC082E991E017C084E991E014C044
:102CE00081E292E011C083E292E00EC084E292E0C1
:102CF0000BC085E292E008C086E292E005C087E260
:102D000092E002C08AE292E0CF910C94AE14CF918F
:102D10000895882309F44BC0823859F40E94761430
:102D200081FF45C089E30E94E41E0E94B11F89E330
:102D30000CC0833871F40E94761480FF38C083E59C
:102D40000E94E41E0E94B11F83E50E94261F0C947E
:102D5000B11F843859F40E94761482FF28C087E49A
:102D60000E94E41E0E94B11F87E4EFCF9CEF980FF2
:102D7000913A58F390E2980F983050F4877091E0B0
:102D800001C0990F8A95EAF7892F0E94701FDFCF43
:102D90009BE5980F933020F480E090E00C94981419
:102DA000885A853120F480E090E00C94AE140895A8
:102DB000882321F00E946A1F0C94B11F0895882374
:102DC00021F00E94701F0C94B11F08957F928F9282
:102DD0009F92AF92BF92CF92DF92EF92FF920F93AA
:102DE0001F93CF93DF931F92CDB7DEB77C01C62E22
:102DF000772EFC01058102950F70128111110E943E
:102E0000871F0E94DD1E882379F0112369F080E27C
:102E10008C0D883048F082E00E94C61E0E94DD1EA4
:102E200091E0D82ED92601C0D12CE72DE295EF7084
:102E3000F0E0EA5AFF4F0C947031872D807F072D08
:102E40000F70882311F00295007F112389F0002371
:102E500009F499C180E28C0D883020F4802F0E9403
:102E60006A1F03C0802F0E947A1F0E94B11F8BC16E
:102E70008C2D0E948916002309F4C3C180E28C0DB9
:102E8000883020F4802F0E94701F03C0802F0E9482
:102E9000801F0E94B11FB5C1872D807F972D9F7025
:102EA000803211F4892F03C0892F8295807FCC2036
:102EB00021F0F1E0CF16A1F01DC0112339F000235D
:102EC00019F1013009F50E949A1F9BC1002319F0E6
:102ED000013009F496C189830E949D1F898110C128
:102EE000112321F0063008F08CC10EC0053008F027
:102EF00088C106C1112359F0002331F0F7019581F3
:102F000090FF41C19F7095830E94D8167AC100231B
:102F100009F4F6C03EC1872D86958695837090E0B2
:102F2000009719F0019761F06CC1112321F08C2DED
:102F3000972D937002C080E090E00E94981461C1C8
:102F4000112321F08C2D972D937002C080E090E02A
:102F50000E94AE1456C18C2D112319F00E94DA2163
:102F600002C00E9442220E94C7224BC1872D83705B
:102F700009F052C0111145C18C2D8295869587703C
:102F8000880F880F9C2D9F70892E912CA12CB12C1D
:102F9000082E04C0880C991CAA1CBB1C0A94D2F7EA
:102FA000C4FE14C00FE010E020E030E0B901A80139
:102FB00004C0440F551F661F771F8A95D2F7CB01B7
:102FC000BA01609570958095909503C060E070E0BF
:102FD000CB01272D26952695237030E02230310530
:102FE00069F02330310589F0682979298A299B29DC
:102FF0002130310571F00E94521D03C168297929E1
:103000008A299B290E946E1DFCC00E94521DC50189
:10301000B4010E94361DF5C0112319F0872D81706F
:1030200001C08695882309F4ECC08C2D8295869585
:103030008770880F880F9C2D9F70892E912CA12C52
:10304000B12C082E04C0880C991CAA1CBB1C0A9425
:10305000D2F7C4FE14C00FE010E020E030E0B90168
:10306000A80104C0440F551F661F771F8A95D2F729
:10307000CB01BA01609570958095909503C060E092
:1030800070E0CB01272D269526952370422F50E026
:103090004230510569F04330510589F0682979299A
:1030A0008A299B294130510571F00E942C1EA9C02C
:1030B000682979298A299B290E94481EA2C00E945A
:1030C0002C1EC501B4010E94101E9BC08C2D90E0E7
:1030D000FC01E05EF109E531F10508F050C0EA5964
:1030E000FF4F0C9470310C2D0F70872D8F711123B1
:1030F00021F00E94A91D802F07CF0E94CA1D802F9A
:103100000E94DF167EC0112341F0053008F079C01F
:10311000872D8F710E94EF1D74C0063008F071C0BA
:10312000F7CF112339F0872D8F710E94A91D69C037
:103130001123C9F3872D8F710E94CA1D62C011230C
:1031400029F0872D8F710E94941D5BC00E948A1DFB
:1031500058C0112351F0172D1F71812F0E94A91DF6
:1031600063E0812F0E94BD1E4CC081E00E94C61EFC
:10317000023008F446C082E00E94C61E42C01123FD
:1031800031F0002381F28C2D0E94B6153AC0002345
:1031900089F28C2D0E94891634C0472D4F706C2DFA
:1031A000C7010E943D0A0E94AE1C2BC0111129C00C
:1031B000472D4F7050E042305105B9F04CF44115A5
:1031C000510581F041305105E1F40E94CC2519C030
:1031D0004330510569F04430510599F48C2D0E941B
:1031E0001E260FC00E94B5250CC00E94E82509C00C
:1031F0000E94FB2506C0472D4F706C2DC7010E9411
:10320000400ADD20F9F00E94B91E80FD1BC0F701C5
:1032100012820E94B31E0E94A91DC7010E9431198B
:103220000E94B31E0F90DF91CF911F910F91FF90DD
:10323000EF90DF90CF90BF90AF909F908F907F9056
:103240000C94CA1D0F90DF91CF911F910F91FF90A9
:10325000EF90DF90CF90BF90AF909F908F907F9036
:1032600008950F931F93CF93DF93EC018881998189
:103270002B813C81232BB9F09F3F11F48F3F99F0B4
:10328000CE010E946107882371F0688179818A816B
:103290000E94AF1E8C010E94641E0E942B1DB8016B
:1032A000CE010E94E616DF91CF911F910F910895F4
:1032B0000E94871F0E94971F0E945C1F0E94B11FDF
:1032C0000E9478230E94C72280E090E00E94981418
:1032D00080E090E00C94AE140E94771F0C94581973
:1032E0000E94A41E292F22952F7030E02C3031052A
:1032F0004CF42A3031056CF422503109223031056A
:10330000A8F407C02C30310569F02F30310551F099
:103310000DC0803F69F018F4803E40F409C0843F3E
:1033200029F406C093FB882780F9089580E008956A
:1033300081E00895CF93DF9300D000D01F92CDB7E6
:10334000DEB70F900F900F900F900F90DF91CF91FD
:103350000895CF93DF9300D000D000D0CDB7DEB773
:1033600026960FB6F894DEBF0FBECDBFDF91CF918A
:1033700008951F93CF93DF93C0919B0316E0809134
:103380009C03C81799F0D0E01C9FF0011D9FF00D21
:103390001124E356FC4F4081518162817381848105
:1033A00095810E94A9192196C770E9CFDF91CF912D
:1033B0001F9108954091CD035091CE036091CF03AA
:1033C0007091D0038091D1039091D2030C94A919EC
:1033D0008091D20382958F7009F054C08091CF0301
:1033E000882309F44FC080919B03A0919C036091B6
:1033F000CD037091CE034091D0035091D103B6E03C
:103400008A1709F43FC090E041155105C1F17F3F93
:1034100011F46F3FA1F1B89FF001B99FF00D112495
:10342000E356FC4F218172132AC02081621327C00A
:103430002281211124C0238134812417350710F4FF
:1034400021503109241B350B283C3105C0F4209153
:10345000D2032F7020612093D20326E0289FF00131
:10346000299FF00D1124EE55FC4F80818F708061F3
:1034700080838DEC93E00E9431190C94B919019668
:103480008770BECF0895CF92DF92EF92FF920F9395
:103490001F93CF93DF93CDB7DEB762970FB6F89443
:1034A000DEBF0FBECDBF8C0185E0F801DE011D96A9
:1034B00001900D928A95E1F7D8014C9111965C919B
:1034C000119712966C9112971396CD90DC901497E9
:1034D0003091CD037091CE038091D0039091D103B0
:1034E000009709F46BC17F3F19F43F3F09F466C1AF
:1034F000E090CF03EE2009F4C0C02091D203C8169B
:10350000D90628F0F601E81BF90BCF0104C080951D
:1035100090958C0D9D1DFF24F394883C910578F0C7
:10352000F12C207F09F0C6C07C2DD98AC88A8989F0
:103530000E949A198DEC93E00E943119B1C0822F3C
:10354000807F09F046C0751314C0341312C0611196
:1035500010C02F7020612093D2030E94DA198DECE5
:1035600093E00E9431198091D203D80115968C9373
:103570002EC0CD2819F15F3F11F44F3FF9F0F62E20
:1035800061111CC080919B0320919C0336E082173F
:1035900009F45AC090E0389FF001399FF00D1124D2
:1035A000E356FC4F7181571306C07081471303C067
:1035B0007281711103C001968770E9CFF62E6623E0
:1035C00009F418C18091D20381608093D203F12C59
:1035D00011C1751308C0341306C0611104C0809175
:1035E000D203D801C3C04D875E878D859E856A8BC7
:1035F0000E9470196A898823E1F16623D1F1209134
:10360000D203822F82958F7090E0029774F08091A0
:10361000CD039091CE0398878F831986DB86CA8667
:103620002C87CE0107960E94311986E0F801ADEC97
:10363000B3E001900D928A95E1F70E94E8190E948B
:10364000DA19FF24F394D6C04D875E878D859E8559
:103650000E94A41E292F22952F7030E022303105C0
:103660000CF0BCC09F7009F0B6C0805E883008F4D2
:10367000C1C0C8010E943119E4CFC816D90608F4A8
:1036800053C0F601E81BF90BCF01883C910508F403
:1036900050C0F12C7C2DD98AC88A89890E949A1938
:1036A000EDECF3E086E0DF011D928A95E9F70E94D8
:1036B000DA19A0C0751314C0341312C0611110C000
:1036C0008091D203F8018583C8010E94311986E0F8
:1036D000EDECF3E0DF011D928A95E9F7FE2C8AC03C
:1036E0004D875E878D859E856A8B0E9470196A89D9
:1036F000882309F4BECF662309F4BBCF2091D203FF
:10370000822F82958F7090E002970CF48ECF80917B
:10371000CD039091CE039A8389831B82DD82CC8274
:103720002E83CE0101967FCF809590958C0D9D1DA7
:10373000ACCFF62E662309F49CCF75132EC034133C
:103740002CC02091D20320FD1FC0822F82958F7044
:10375000D9F0D80115962C9315978F3049F08F5FCB
:10376000982F9295907F822F8F70892B15968C932E
:10377000C8010E94311986E0F801ADECB3E0019078
:103780000D928A95E1F793CF86E0F801ADECB3E0B6
:1037900001900D928A95E1F72DC04D875E878D854A
:1037A0009E850E947019811140CF8091D203816063
:1037B0008093D203C8010E9431191CC0662309F40A
:1037C00058CF4D875E878D859E850E94701988230E
:1037D00009F44FCF2ACF811148CF0CC024303105D6
:1037E0000CF047CF9F7009F440CFF8019581907F8E
:1037F00009F03BCF8F2D62960FB6F894DEBF0FBE57
:10380000CDBFDF91CF911F910F91FF90EF90DF908F
:10381000CF9008951F93CF93DF93CDB7DEB72C974A
:103820000FB6F894DEBF0FBECDBF4F8358876987B0
:103830007A878B879C87CE0107960E94431A88233C
:1038400069F08F8198852A853B85232BF1F19F3F75
:1038500009F063C08F3F09F060C037C086E0FE0109
:103860003796DE01119601900D928A95E1F76F81EE
:103870007885EA85FB85309741F17F3F11F46F3FF2
:1038800021F120919C0330E0C901019687709927AE
:1038900040919B0350E08417950709F447C0698362
:1038A0007A83FD83EC8396E0929FD001939FB00DC5
:1038B0001124A356BC4FFE01319601900D929A95AA
:1038C000E1F780939C030E94B91916E080919B0355
:1038D00090919C038917C1F1189FC0011124835650
:1038E0009C4F0E94431A882379F1E0919B031E9F0D
:1038F000F0011124E356FC4F4081518162817381B4
:10390000848195810E94A91980919B0390E0019682
:103910008770992780939B03D9CF4F8158856985FC
:103920007A858B859C850E94A919CFCF0E946C193E
:1039300010929C0310929B03EDECF3E086E0DF0114
:103940001D928A95E9F7C1CF2C960FB6F894DEBF89
:103950000FBECDBFDF91CF911F910895EF92FF92DF
:103960000F931F93CF93DF938C01892B09F46CC0C5
:10397000F12CEE24E394E8012196F8018491843738
:1039800040F4843008F051C0813081F0823019F168
:103990005BC0853709F444C0A8F19CE7980F9037C5
:1039A00008F052C08F770E94891641C00E5F1F4FEA
:1039B000FE01C49180E28C0F883048F4C7708E2DD0
:1039C00001C0880FCA95EAF70E948A1F14C08C2F85
:1039D0000E94B6152DC00E5F1F4FFE01C49180E2FC
:1039E0008C0F883058F4C7708E2D01C0880FCA958F
:1039F000EAF70E94901F0E94B11F1AC08C2F0E94EC
:103A0000891616C00E5F1F4FFE01C491CC2381F0B2
:103A10008FE99FE00197F1F700C00000C150F6CF99
:103A20000E5F1F4FFE01F49003C00E94B6158E0179
:103A30008F2D882309F49FCFEFE9FFE03197F1F74D
:103A400000C000008150F5CFDF91CF911F910F9101
:103A5000FF90EF90089508956093D7037093D80373
:103A60008093D9039093DA030C9458190F931F9302
:103A70000091D7031091D8032091D9033091DA0334
:103A8000DC01CB01802B912BA22BB32B8093D7038E
:103A90009093D803A093D903B093DA031F910F91A9
:103AA0000C9458190F931F930091D7031091D803CA
:103AB0002091D9033091DA03DC01CB0180239123DB
:103AC000A223B3238093D7039093D803A093D90361
:103AD000B093DA031F910F910C9458190F931F9311
:103AE0000091D7031091D8032091D9033091DA03C4
:103AF000DC01CB0180279127A227B3278093D7032E
:103B00009093D803A093D903B093DA031F910F9138
:103B10000C9458191092D3031092D4031092D50329
:103B20001092D6030C94581941E050E060E070E028
:103B300004C0440F551F661F771F8A95D2F7409324
:103B4000D3035093D4036093D5037093D6030C949E
:103B5000581941E050E060E070E004C0440F551F88
:103B6000661F771F8A95D2F78091D3039091D40373
:103B7000A091D503B091D603482B592B6A2B7B2BF0
:103B80004093D3035093D4036093D5037093D6032B
:103B90000C94581941E050E060E070E004C0440F1C
:103BA000551F661F771F8A95D2F7409550956095EF
:103BB00070958091D3039091D403A091D503B091D7
:103BC000D603482359236A237B234093D30350937E
:103BD000D4036093D5037093D6030C94581941E035
:103BE00050E060E070E004C0440F551F661F771F6F
:103BF0008A95D2F78091D3039091D403A091D503F5
:103C0000B091D603482759276A277B274093D303CF
:103C10005093D4036093D5037093D6030C94581932
:103C20000F931F930091D3031091D4032091D503D8
:103C30003091D603DC01CB01802B912BA22BB32B2F
:103C40008093D3039093D403A093D503B093D6036A
:103C50001F910F910C9458190F931F930091D30348
:103C60001091D4032091D5033091D603DC01CB0110
:103C700080239123A223B3238093D3039093D4036F
:103C8000A093D503B093D6031F910F910C945819AC
:103C90000F931F930091D3031091D4032091D50368
:103CA0003091D603DC01CB0180279127A227B327CF
:103CB0008093D3039093D403A093D503B093D603FA
:103CC0001F910F910C9458190895CF92DF92EF92A3
:103CD000FF920F931F93CF93DF938C01C090D70374
:103CE000D090D803E090D903F090DA038091D30309
:103CF0009091D403A091D503B091D603C82AD92AB4
:103D0000EA2AFB2ACFE1D0E0D701C6010C2E04C07D
:103D1000B695A795979587950A94D2F780FF06C028
:103D2000B8018C2F0E948E08019721F4219760F72B
:103D300080E001C08C2FDF91CF911F910F91FF90F8
:103D4000EF90DF90CF900895CF93DF93EC010E9426
:103D5000651EBE010E948E08DF91CF910895CB01B0
:103D60000E94A41E08958091DB0385958595859515
:103D700008958091DB038770089598E0899F9001F2
:103D80001124262B2093DB030C94A91D2091DB0327
:103D9000809582238093DB03982F977069F430E03D
:103DA000482F552747FD50952417350729F085954D
:103DB000859585950C94CA1D08959091DB039770A5
:103DC00081E009F480E0089590912602992321F082
:103DD00090911302911109C02091140230911502A3
:103DE000F90132969FEF40E01FC0982F9695969567
:103DF00096959F3050F5E0911402F0911502E90F6D
:103E0000F11D877021E030E0A90102C0440F551F69
:103E10008A95E2F7CA019181892B818308959F3F9A
:103E200039F04F5F4E3041F051915813F8CF0DC02B
:103E30005111F7CF942FF5CF9F3F39F0F901E90FDA
:103E4000F11D97FDFA9582830895089590912602B9
:103E5000992321F090911302911109C0209114022D
:103E600030911502F9013296205F3F4F1FC0982F05
:103E70009695969596959F30F0F4E0911402F09106
:103E80001502E90FF11D877021E030E0A90102C0A1
:103E9000440F551F8A95E2F7CA01809591818923C5
:103EA000818308953196E217F30729F090819813E2
:103EB000F9CF1082F7CF089581E090E0E0911402ED
:103EC000F0911502E80FF91F1082019680319105DB
:103ED000A9F708959091EF03892B8093EF0308953C
:103EE00080959091EF0389238093EF0308951092BA
:103EF000EF0308959091EE03892B8093EE030895CC
:103F000080959091EE0389238093EE03089510929B
:103F1000EE0308959091ED03892B8093ED030895AE
:103F200080959091ED0389238093ED03089510927D
:103F3000ED0308958093DC0308951092DC03089547
:103F40008091140290911502FC0131969C01205F32
:103F50003F4F80E0919191118F5FE217F307D1F706
:103F60000895E0911402F09115028091EF0380838F
:103F7000E0911402F091150290818091EE03892B5B
:103F80008083E0911402F091150290818091ED03FD
:103F9000892B80838091DC03882361F0E0911402F7
:103FA000F09115029081892B80830E94A01F8111BE
:103FB0001092DC0380911402909115020C948214EB
:103FC0006DEE7EEF80E090E00E94953160E082E04F
:103FD00090E00E94843160E083E090E00E948431B0
:103FE00060E084E090E00E94843160E085E090E051
:103FF0000E94843160E086E090E00E9484316FEF9F
:1040000087E090E00C94843180E090E00E947E3163
:1040100021E08D3E9E4F09F020E0822F089582E03E
:1040200090E00C94763183E090E00C947631682F28
:1040300083E090E00C94843184E090E00C9476313D
:10404000682F84E090E00C94843186E090E00C943A
:104050007631682F86E090E00C94843187E090E020
:104060000C947631682F87E090E00C948431809135
:104070002604843051F11092F10320E488E190E0AD
:104080000FB6F894A895809360000FBE209360004F
:1040900080E00E94210780E00E944E0783B7817F65
:1040A000846083BF83B7816083BF7894889583B72A
:1040B0008E7F83BF0FB6F894A895809160008861C9
:1040C00080936000109260000FBE089508950895D7
:1040D000CF9380E00E9421070E9466200E947A0B05
:1040E0000E946720C0E08C2F0E94100C892B29F4BD
:1040F000CF5FC530C1F780E001C081E0CF91089566
:104100000E946C1980E00E9421070E94A4250E9451
:1041100076140C944E071F920F920FB60F92112433
:104120008F939F93AF93BF938091F103811113C03D
:104130008091F2039091F303A091F403B091F50301
:104140004196A11DB11D8093F2039093F303A093B8
:10415000F403B093F503BF91AF919F918F910F90AE
:104160000FBE0F901F90189582E084BD93E095BD1F
:104170009AEF97BD80936E0008952FB7F8948091C1
:10418000F2039091F303A091F403B091F5032FBFD4
:104190000895CF92DF92EF92FF920F931F932FB764
:1041A000F8944091F2035091F3036091F4037091FD
:1041B000F5032FBF6A017B01EE24FF248C0120E070
:1041C00030E0C016D106E206F30610F44150510962
:1041D0009A01281B390BC9011F910F91FF90EF9095
:1041E000DF90CF9008951F920F920FB60F92112477
:1041F0008F939F93AF93BF938091F2039091F303BA
:10420000A091F403B091F5030196A11DB11D809317
:10421000F2039093F303A093F403B093F503BF91DB
:10422000AF919F918F910F900FBE0F901F90189597
:104230000E94332AF8942FEF87EA91E621508040BC
:104240009040E1F700C0000087E090EBDC01809334
:104250002F0490933004A0933104B09332049CE077
:1042600088E10FB6F894A895809360000FBE9093F4
:104270006000FFCF0E940420811102C00E94E01F55
:104280000E940F208093F0030E941C2090E09093E6
:10429000200480931F0487FB882780F980931302F2
:1042A0000E941320682F70E080E090E00C942C1D99
:1042B0008091F80380FF0BC06091190285E0689F30
:1042C000B001112475956795759567952BC081FF91
:1042D00009C06091190285E0689FB00111247595AD
:1042E000679520C082FF07C06091190285E0689F32
:1042F000B001112417C09091F9039923D1F0609176
:104300001802961788F72091190285E0289F9001DE
:104310001124929FA001939F500D112470E0CA01B7
:104320000E945C316038710540F46115710539F007
:1043300002C065E070E0862F08958FE7089581E060
:1043400008958091F80380FF08C06091170270E023
:10435000759567957595679521C081FF06C0609139
:10436000170270E07595679519C082FF04C06091CF
:10437000170270E010C09091F9039923C1F0609189
:1043800016029617A0F780911702899FC001112489
:1043900070E00E945C316038710528F46115710588
:1043A00021F0862F08958FE7089581E0089561E058
:1043B00070E0F4CF803F21F40E945821819504C021
:1043C000813F29F40E9458218093FC030895823F85
:1043D00021F40E945821819504C0833F29F40E9452
:1043E00058218093FB030895893F19F40E94A1216D
:1043F00005C08A3F31F40E94A12181958093FD037D
:1044000008958B3F21F40E94A121819504C08C3F27
:1044100029F40E94A1218093FE030895843F21F492
:104420008091FA03816017C0853F21F48091FA03DF
:10443000826011C0863F21F48091FA0384600BC032
:10444000873F21F48091FA03886005C0883F31F4EA
:104450008091FA0380618093FA0308958D3F21F4DF
:104460008091F80381600BC08E3F21F48091F803A6
:10447000826005C08F3F29F48091F80384608093A7
:10448000F8030895803F39F48091FC0387FF6CC0E6
:104490001092FC0369C0813F29F48091FC03181637
:1044A000BCF362C09091FB03823F29F497FF5CC08C
:1044B0001092FB0359C0833F19F41916CCF354C072
:1044C000893F41F48091FD0318160CF04DC0109205
:1044D000FD034AC08A3F29F48091FD0387FF44C051
:1044E000F6CF8B3F39F48091FE0387FF3DC01092D9
:1044F000FE033AC08C3F29F48091FE031816BCF3EA
:1045000033C0843F21F48091FA038E7F17C0853F2A
:1045100021F48091FA038D7F11C0863F21F48091B0
:10452000FA038B7F0BC0873F21F48091FA03877FCA
:1045300005C0883F31F48091FA038F7E8093FA039F
:1045400013C08D3F21F48091F8038E7F0BC08E3F06
:1045500021F48091F8038D7F05C08F3F29F480916D
:10456000F8038B7F8093F8038091FB0381110EC0C9
:104570008091FC0381110AC08091FD03811106C066
:104580008091FE03811102C01092F90308958AEF11
:1045900093E00E948D140E94BD209093F7038093B6
:1045A000F60308951F93CF93DF938091F6039091C4
:1045B000F7030E94C920AC019091F903992321F0DF
:1045C00020911A0230E006C020911B028AE0289F49
:1045D000900111244217530708F486C08091FB0311
:1045E000C091FC03D091FD031091FE03811107C01F
:1045F000C11176C0D11174C0111172C075C09F3F36
:1046000019F09F5F9093F903181624F40E94582123
:104610008093FB038091FB0387FF05C00E94582114
:1046200081958093FB031C1624F40E9458218093EB
:10463000FC038091FC0387FF05C00E9458218195EF
:104640008093FC036091FB03662339F1C091FC0366
:10465000CC2319F1772767FD7095872F972F0E943C
:104660004D2E23E333E343E35FE30E94642F0E9474
:10467000152E6093FB036C2F772767FD7095872FAE
:10468000972F0E944D2E23E333E343E35FE30E9421
:10469000642F0E94152E6093FC031D1624F40E94C3
:1046A000A1218093FD038091FD0387FF05C00E9437
:1046B000A12181958093FD03111624F40E94A1216C
:1046C0008093FE038091FE0387FF05C00E94A12115
:1046D00081958093FE03DF91CF911F910C94C722A7
:1046E0009F3F09F08ECF96CFDF91CF911F91089514
:1046F000EAEFF3E085E0DF011D928A95E9F7109279
:10470000F9031092F8030895833081F128F4813081
:1047100059F08230D1F00895853009F449C0B8F1DC
:10472000863009F456C0089580911B02262F30E090
:10473000280F311D2F3F310524F4680F60931B02B1
:1047400008958FEF80931B02089580911A02262FFF
:1047500030E0280F311D2F3F310524F4680F60939E
:104760001A0208958FEF80931A020895809119021A
:10477000262F30E0280F311D2F3F310524F4680F1C
:104780006093190208958FEF809319020895809124
:104790001802262F30E0280F311D2F3F310524F459
:1047A000680F6093180208958FEF809318020895A0
:1047B00080911702262F30E0280F311D2F3F310541
:1047C00024F4680F6093170208958FEF8093170207
:1047D000089580911602262F30E0280F311D2F3FBB
:1047E000310524F4680F6093160208958FEF8093CB
:1047F00016020895833011F128F4813049F0823097
:1048000091F00895853081F120F18630C1F108954D
:1048100080911B02681720F4861B80931B02089569
:1048200010921B02089580911A02681720F4861BCB
:1048300080931A02089510921A0208958091190225
:10484000681720F4861B80931902089510921902AC
:10485000089580911802681720F4861B809318022F
:10486000089510921802089580911702681720F495
:10487000861B809317020895109217020895809165
:104880001602681720F4861B809316020895109272
:10489000160208950F931F93873208F048C08E3197
:1048A00008F08DC0803109F477C008F5873009F42D
:1048B00061C068F4863009F09DC08091F003817F6B
:1048C0008E7F8093F00381E08093000494C08B304E
:1048D00009F489C08E3009F08DC08091F00382FB0D
:1048E000222720F991E0922790FB82F95EC0863161
:1048F00009F479C060F4813109F07CC00E946C1920
:104900009091130281E08927809313026CC0893152
:1049100009F469C08B3109F06DC08091F00381FB0F
:10492000222720F991E0922790FB81F93EC088333D
:1049300009F459C050F4893209F457C0853309F499
:1049400054C0873209F451C055C0833409F44DC0B6
:1049500028F48A3308F44EC0895332C0883409F0F1
:1049600049C00E946C190E94FA0D0E949B060E9489
:10497000182139C09091F003892F8095817080FBB8
:1049800090F929F0966098609093F00334C0997F75
:10499000977F9093F00327C08091F00383FB222739
:1049A00020F991E0922790FB83F98093F0039923FB
:1049B000D1F08091F00381608093F00314C08D5199
:1049C00041E050E060E070E08A019B0104C0000F0C
:1049D000111F221F331F8A95D2F7C901B8010E9407
:1049E0002C1D0E946C1981E006C061E070E080E03F
:1049F00090E0F5CF80E01F910F91089580E0089539
:104A000080E008958E518A3030F4E82FF0E0E555CB
:104A1000FD4F8081089580E00895CF93C82F809145
:104A20000004813069F018F08230C9F183C0E09150
:104A30001402F09115028081823209F07DC007C016
:104A4000E0911402F09115028081823261F48C2F82
:104A50000E94FE24811104C08C2F0E944A241DC094
:104A600081E090E01AC08C2F0E940025811114C0B3
:104A7000C43179F048F4CB3079F0C03109F060C02E
:104A800082E08093000408C0C93219F0C83321F0D5
:104A900057C01092000454C081E0817053C0C932E5
:104AA00089F118F5C43171F1B0F4C73009F046C08E
:104AB0008EE180931B0282E380931A028AE0809346
:104AC000190284E18093180288E08093170288E23B
:104AD0008093160233C082EE8C0F863078F58C2FCF
:104AE0000E9402258093FF0329C0CE34E9F020F410
:104AF000CB3421F56AE013C0C13579F0C235F1F449
:104B000061E00DC08091FF03882319F01092FF032C
:104B100015C081E08093000415C061E006C080915B
:104B2000FF030E9484230AC06AE08091FF030E9471
:104B3000FA2304C01092000480E004C081E002C0A7
:104B400080E0ABCFCF9108950E940420811102C074
:104B50000E94E01F0E9425208093210480FF02C054
:104B6000869501C080E00C94210780912104982F44
:104B70009695292F30E0233031054CF49F5F990F33
:104B80008170892B8160809321040E94292080916B
:104B9000210486950C94210780912104982F9695E5
:104BA00091F09158990F8170892B809321048E7F09
:104BB00091E009F490E08091210490FB80F98093CA
:104BC00021040E9429208091210486950C942107BC
:104BD00080912104982F909590FB80F98093210477
:104BE0000E9429208091210480FF02C0869501C087
:104BF00080E00C94210790912104892F86958F5F86
:104C00008F779170843028F4880F892B809321044A
:104C100002C090932104809121048E7F91E009F4D9
:104C200090E08091210490FB80F9809321040E9400
:104C300029208091210486950C942107209121043C
:104C4000922F96958927982F990F822F8170892B03
:104C5000809321048E7F91E009F490E080912104FB
:104C600090FB80F9809321040E94292080912104E7
:104C700086950C942107809111040895CF93DF93BA
:104C800000D01F92CDB7DEB79C01809126048430FE
:104C900019F593E099833B832A839093E9008FEF82
:104CA0009091E800815095FD06C095ED9A95F1F739
:104CB00000008111F5CF8091E80085FF0DC040E034
:104CC00050E063E070E0CE0101960E949E28809142
:104CD000E8008E778093E8000F900F900F90DF919F
:104CE000CF910895CF93DF9300D01F92CDB7DEB759
:104CF00020912604243021F522E029839B838A8396
:104D000083E08093E9008FEF9091E800815095FD5A
:104D100006C095ED9A95F1F700008111F5CF8091CD
:104D2000E80085FF0DC040E050E063E070E0CE0198
:104D300001960E949E288091E8008E778093E8007B
:104D40000F900F900F90DF91CF910895209126043E
:104D50002430F1F422E02093E9002FEF3091E800B5
:104D6000215035FD06C035ED3A95F1F700002111CF
:104D7000F5CF2091E80025FF0BC040E050E065E052
:104D800070E00E949E288091E8008E778093E80072
:104D90000895CF93DF93EC0190912604943009F0AD
:104DA00046C0809126028823D9F08091130288237F
:104DB000B9F09093E9008FEF9091E800815095FD54
:104DC00006C095E19A95F1F700008111F5CF809129
:104DD000E80085FF2CC040E050E060E170E017C0C3
:104DE00081E08093E9008FEF9091E800815095FD7C
:104DF00006C095ED9A95F1F700008111F5CF8091ED
:104E0000E80085FF14C040E050E068E070E0CE01AB
:104E10000E949E288091E8008E778093E80080E1D0
:104E2000FE01A1E0B4E001900D928A95E1F7DF91D7
:104E3000CF91089580912504811109C00E94332AE1
:104E40000E94902A8091E20084608093E20008959D
:104E5000109225040895089508950C94802042E04E
:104E600061EC81E00E94AD2942E061EC82E00E94A9
:104E7000AD2942E061EC83E00E94AD2942E161ECA2
:104E800084E00C94AD2980912804833009F455C046
:104E900030F4813071F0823009F48EC008958A3088
:104EA00009F47AC08B3009F460C0893009F09CC0E5
:104EB00020C080912704813A09F096C08091E800D3
:104EC000877F8093E80080912B0490912C04892B9C
:104ED00021F460E181E094E003C060E080E090E0D4
:104EE00070E00E94E9288091E8008B778093E800C9
:104EF000089580912704813209F076C080912B04B7
:104F000090912C04009719F0039709F06DC08091DF
:104F1000E800877F8093E8008091E80082FD05C06B
:104F2000809126048111F8CF5FC08091F1008093B9
:104F300011048091E8008B7753C080912704813A57
:104F400009F052C080912B0490912C04892B09F018
:104F50004BC08091E800877F8093E8008091E80053
:104F600080FFFCCF8091260236C0809127048132D9
:104F7000D9F580912B0490912C04892BA9F580916F
:104F8000E800877F8093E8000E94E229809129044D
:104F9000809326020C946C1980912704813221F5AC
:104FA0008091E800877F8093E8000E94E229809149
:104FB0002A0480931204089580912704813AA1F471
:104FC0008091E800877F8093E8008091E80080FF6F
:104FD000FCCF809112048093F1008091E8008E77DD
:104FE0008093E8000C94E229089584B7877F84BFFA
:104FF0000FB6F894A8958091600088618093600056
:10500000109260000FBE80E88093610010926100F2
:105010000E94C5140E94332A0E94902A8091E200C7
:1050200084608093E20078940E94162D0E94C71439
:105030008CE192E00E94711480912604853069F41D
:105040000E943720809124048823B1F30E946820B5
:10505000882391F30E948828EFCF0E94CF14ECCFD1
:10506000292F332723303105C9F064F4213031056D
:1050700081F02230310509F043C08DE690E022EE48
:1050800039E042C021323105F1F02232310541F1DF
:1050900037C082E190E02FE43AE036C099278130B2
:1050A000910541F08230910541F0892B49F5EEEDF3
:1050B000F9E005C0E0EBF9E002C0E4E8F9E0849132
:1050C00090E09F0121C06430D8F4E62FF0E0EE0FAD
:1050D000FF1FEF53FD4F2081318189E090E014C024
:1050E000643070F470E0FB01EE0FFF1FE754FD4FDA
:1050F00020813181FB01EB54FD4F808190E004C0A1
:1051000080E090E020E030E0FA01318320830895D0
:1051100080E189BD82E189BD09B400FEFDCF8091A7
:10512000D8008F7D8093D8008091E00082608093CA
:10513000E0008091E00081FDFCCF0895CF92DF92E6
:10514000EF92FF920F931F93CF93DF93EC018B01AC
:105150006A010E94012A811133C0C114D10439F0BF
:10516000F60180819181081B190BC80FD91FE12C12
:10517000F12C0115110519F18091E80085FD16C08B
:105180008091E8008E778093E800C114D10449F043
:10519000F60180819181E80EF91EF182E08285E0BE
:1051A0000FC00E94012A882321F30AC089918093AD
:1051B000F10001501109FFEFEF1AFF0ADACF80E08A
:1051C000DF91CF911F910F91FF90EF90DF90CF90E3
:1051D000089520912D0430912E042617370748F0AA
:1051E0006115710539F42091E8002E772093E800CD
:1051F00001C0B90140E061157105A9F120912604B3
:10520000222309F443C0253009F442C02091E8006C
:1052100023FD40C02091E80022FD32C02091E8002B
:1052200020FFE9CF4091F3002091F20030E0342BD1
:10523000FC01CF016115710559F02830310540F4AA
:1052400081918093F100615071092F5F3F4FF1CF41
:1052500041E02830310509F040E02091E8002E7748
:105260002093E800C8CF4111C9CF0AC0809126041D
:10527000882361F0853061F08091E80083FD0AC0E9
:105280008091E80082FFF2CF80E0089582E00895E7
:1052900083E0089581E0089520912D0430912E043B
:1052A0002617370748F06115710539F42091E80099
:1052B0002E772093E80001C0B901FC0120E06115C0
:1052C000710591F180912604882309F440C085304E
:1052D00009F43FC08091E80083FD3DC08091E80063
:1052E00082FD2FC08091E80080FFE9CF2091F3007C
:1052F0008091F20090E0922B6115710559F0883091
:10530000910540F424912093F10031966150710988
:105310000196F2CF21E0089709F020E08091E800A3
:105320008E778093E800CBCF2111CCCF0AC080913B
:105330002604882361F0853061F08091E80083FDC8
:105340000AC08091E80082FFF2CF80E0089582E0F9
:10535000089583E0089581E00895982F973058F5D7
:105360009093E900981739F07091EC002091ED00CE
:105370005091F00003C0242F762F50E021FF19C078
:105380003091EB003E7F3093EB003091ED003D7F9C
:105390003093ED003091EB0031603093EB0070936F
:1053A000EC002093ED005093F0002091EE0027FFD9
:1053B00007C09F5FD3CF8F708093E90081E008958D
:1053C00080E008958091270487FF11C08091E80054
:1053D00082FD05C0809126048111F8CF11C0809113
:1053E000E8008B770BC080912604882349F08091D8
:1053F000E80080FFF8CF8091E8008E778093E80086
:1054000008952091E4003091E50095E64091EC008C
:10541000842F817040FF22C08091E80080FD1CC075
:1054200080912604882391F0853091F08091EB00E3
:1054300085FD10C04091E4005091E50042175307EC
:1054400029F39A01915011F784E0089582E00895BC
:1054500083E0089581E0089580E008954091E80098
:1054600042FFDECF08950E94A12A0E94A92AE0EE01
:10547000F0E0808181608083E8EDF0E080818F77CB
:10548000808319BCA7EDB0E08C918E7F8C938081D6
:105490008F7E80831092250408950F931F93CF93DE
:1054A000DF930E94A12A0E94A92AC8EDD0E088813A
:1054B0008F77888388818068888388818F7D8883BF
:1054C00019BC109226041092220410922404109207
:1054D000230400EE10E0F80180818B7F80838881B7
:1054E0008160888342E060E080E00E94AD29E1EEC7
:1054F000F0E080818E7F8083E2EEF0E08081816049
:105500008083808188608083F80180818E7F8083A2
:10551000888180618883DF91CF911F910F910895D9
:10552000E8EDF0E080818F7E8083E7EDF0E0808120
:105530008160808384E082BF81E0809325040C94A5
:105540004D2AE8EDF0E080818E7F80831092E200AA
:1055500008951092DA001092E10008951F920F92C0
:105560000FB60F9211242F933F934F935F936F9336
:105570007F938F939F93AF93BF93EF93FF9380910C
:10558000E10082FF0BC08091E20082FF07C08091A2
:10559000E1008B7F8093E1000E94152D8091DA005D
:1055A00080FF1FC08091D80080FF1BC08091DA006F
:1055B0008E7F8093DA008091D90080FF0DC080E15A
:1055C00089BD82E189BD09B400FEFDCF81E08093F1
:1055D00026040E941A2705C019BC109226040E94B6
:1055E00028278091E10080FF19C08091E20080FFB0
:1055F00015C08091E2008E7F8093E2008091E200EE
:1056000080618093E2008091D80080628093D8000E
:1056100019BC85E0809326040E942C278091E1002C
:1056200084FF30C08091E20084FF2CC080E189BDFE
:1056300082E189BD09B400FEFDCF8091D8008F7D45
:105640008093D8008091E1008F7E8093E10080916B
:10565000E2008F7E8093E2008091E200816080937F
:10566000E20080912204882311F084E007C0809139
:10567000E30087FD02C081E001C083E0809326043F
:105680000E942D278091E10083FF29C08091E200D4
:1056900083FF25C08091E100877F8093E10082E055
:1056A00080932604109222048091E1008E7F8093E3
:1056B000E1008091E2008E7F8093E2008091E20021
:1056C00080618093E20042E060E080E00E94AD29CA
:1056D0008091F00088608093F0000E942B27FF915A
:1056E000EF91BF91AF919F918F917F916F915F915A
:1056F0004F913F912F910F900FBE0F901F901895D3
:105700001F920F920FB60F9211242F933F934F9336
:105710005F936F937F938F939F93AF93BF93CF9339
:10572000DF93EF93FF93C091E900CF708091EC007D
:10573000D82FD17080FDD0E81092E9008091F00060
:10574000877F8093F00078940E94C42B1092E90028
:105750008091F00088608093F000CD2BCF70C093D3
:10576000E900FF91EF91DF91CF91BF91AF919F91B0
:105770008F917F916F915F914F913F912F910F90FA
:105780000FBE0F901F9018951F93CF93DF93CDB747
:10579000DEB7AA970FB6F894DEBF0FBECDBFE7E223
:1057A000F4E088E08E0F9091F10091938E13FBCF7F
:1057B0000E9443278091E80083FF1FC18091270446
:1057C00090912804492F50E04A30510508F015C146
:1057D000FA01E558FF4F0C947031803881F082381F
:1057E00009F00BC180912B048F708093E9008091A8
:1057F000EB0085FB882780F91092E90006C08091B4
:10580000230490912404911182609091E800977F85
:105810009093E8008093F1001092F100C8C0282F07
:105820002D7F09F0EAC0882319F0823061F0E5C0CD
:1058300080912904813009F0E0C0933009F080E0C4
:10584000809324042BC080912904811127C080916A
:105850002B048F7009F4D1C08093E9002091EB00F4
:1058600020FF1CC0933021F48091EB00806214C0B3
:105870009091EB0090619093EB0021E030E0A90162
:1058800002C0440F551F8A95E2F74093EA00109238
:10589000EA008091EB0088608093EB001092E900B1
:1058A0008091E800877F86C08111A7C010912904EC
:1058B0001F778091E3008078812B8093E3008091B3
:1058C000E800877F8093E8000E94E2298091E80049
:1058D00080FFFCCF8091E30080688093E30011118A
:1058E00002C082E001C083E08093260486C0805815
:1058F000823008F082C08091290490912A048C3D66
:1059000053E0950779F583E08A838AE289834FB76C
:10591000F894DE01139620E03EE051E2E32FF0E040
:1059200050935700E49120FF03C0E295EF703F5F72
:10593000EF708E2F90E0EA3010F0C79601C0C0964D
:105940008D939D932F5F243149F74FBF8091E800DD
:10595000877F8093E8006AE270E0CE0101960E94A2
:10596000E92814C0AE014F5F5F4F60912B040E9485
:105970003028BC01892B09F440C09091E800977F42
:105980009093E80089819A810E944C298091E800D7
:105990008B778093E80031C0803879F58091E800FA
:1059A000877F8093E800809122048093F1008091AA
:1059B000E8008E778093E8000E94E2291EC08111E2
:1059C0001CC0909129049230C0F48091E800877F38
:1059D0008093E800909322040E94E229809122049F
:1059E000811106C08091E30087FD02C081E001C003
:1059F00084E0809326040E942F278091E80083FF93
:105A00000AC08091E800877F8093E8008091EB00D6
:105A100080628093EB00AA960FB6F894DEBF0FBEAB
:105A2000CDBFDF91CF911F9108950895CF938091BD
:105A300026048823A1F0C091E900CF709091EC007A
:105A4000892F817090FD80E8C82B1092E900809129
:105A5000E80083FD0E94C42BCF70C093E900CF9172
:105A600008955058BB27AA270E94492D0C94252F32
:105A70000E94172F38F00E941E2F20F039F49F3F0C
:105A800019F426F40C94142F0EF4E095E7FB0C9413
:105A9000002FE92F0E94362F58F3BA1762077307B9
:105AA0008407950720F079F4A6F50C94582F0EF48E
:105AB000E0950B2EBA2FA02D0B01B90190010C011E
:105AC000CA01A0011124FF27591B99F0593F50F436
:105AD000503E68F11A16F040A22F232F342F44278E
:105AE000585FF3CF469537952795A795F040539586
:105AF000C9F77EF41F16BA0B620B730B840BBAF056
:105B00009150A1F0FF0FBB1F661F771F881FC2F7C0
:105B10000EC0BA0F621F731F841F48F487957795D4
:105B20006795B795F7959E3F08F0B0CF9395880F8E
:105B300008F09927EE0F9795879508950E94DC2E1F
:105B400008F481E008950E94B72D0C94252F0E943F
:105B50001E2F58F00E94172F40F029F45F3F29F0C4
:105B60000C94002F51110C94592F0C94142F0E9457
:105B7000362F68F39923B1F3552391F3951B550BF9
:105B8000BB27AA2762177307840738F09F5F5F4F10
:105B9000220F331F441FAA1FA9F335D00E2E3AF04F
:105BA000E0E832D091505040E695001CCAF72BD067
:105BB000FE2F29D0660F771F881FBB1F26173707B8
:105BC0004807AB07B0E809F0BB0B802DBF01FF27EA
:105BD00093585F4F3AF09E3F510578F00C94002F98
:105BE0000C94592F5F3FE4F3983ED4F38695779554
:105BF0006795B795F7959F5FC9F7880F911D9695A3
:105C0000879597F90895E1E0660F771F881FBB1FFE
:105C1000621773078407BA0720F0621B730B840BAB
:105C2000BA0BEE1F88F7E09508950E941C2E689429
:105C3000B1110C94592F08950E943E2F88F09F5760
:105C400098F0B92F9927B751B0F0E1F0660F771FA0
:105C5000881F991F1AF0BA95C9F714C0B13091F096
:105C60000E94582FB1E008950C94582F672F782F79
:105C70008827B85F39F0B93FCCF38695779567955B
:105C8000B395D9F73EF490958095709561957F4FC7
:105C90008F4F9F4F0895E89409C097FB3EF490956D
:105CA0008095709561957F4F8F4F9F4F9923A9F0F5
:105CB000F92F96E9BB279395F69587957795679584
:105CC000B795F111F8CFFAF4BB0F11F460FF1BC0C8
:105CD0006F5F7F4F8F4F9F4F16C0882311F096E95B
:105CE00011C0772321F09EE8872F762F05C0662309
:105CF00071F096E8862F70E060E02AF09A95660FC2
:105D0000771F881FDAF7880F9695879597F908957A
:105D10000E94172F20F019F00E941E2F50F40C94AF
:105D2000142F0C94592FE92F0E94362F88F35523F6
:105D3000B1F3E7FB6217730784079507A8F189F3AE
:105D4000E92FFF2788232AF03197660F771F881FD6
:105D5000DAF7952F5527442332F091505040220F07
:105D6000331F441FD2F7BB27E91BF50B621B730BD4
:105D7000840BB109B1F222F4620F731F841FB11DAD
:105D800031972AF0660F771F881FBB1FEFCF915006
:105D9000504062F041F0882332F0660F771F881F71
:105DA00091505040C1F793950C94062F86957795A6
:105DB00067959F5FD9F7F7CF990F0008550FAA0B8A
:105DC000E0E8FEEF16161706E807F907C0F012160E
:105DD0001306E407F50798F0621B730B840B950B11
:105DE00039F40A2661F0232B242B252B21F4089566
:105DF0000A2609F4A140A6958FEF811D811D089503
:105E000097F99F6780E870E060E008959F3F31F068
:105E1000915020F4879577956795B795880F911DD8
:105E20009695879597F908959FEF80EC0895002443
:105E30000A941616170618060906089500240A94EF
:105E400012161306140605060895092E0394000C75
:105E500011F4882352F0BB0F40F4BF2B11F460FF04
:105E600004C06F5F7F4F8F4F9F4F089557FD90582D
:105E7000440F551F59F05F3F71F04795880F97FB0E
:105E8000991F61F09F3F79F08795089512161306C8
:105E90001406551FF2CF4695F1DF08C016161706F7
:105EA0001806991FF1CF869571056105089408952C
:105EB000E894BB2766277727CB0197F908950E94BE
:105EC000DC2E08F48FEF08950E94772F0C94252F75
:105ED0000E94172F38F00E941E2F20F0952311F0FA
:105EE0000C94002F0C94142F11240C94592F0E9401
:105EF000362F70F3959FC1F3950F50E0551F629FA9
:105F0000F001729FBB27F00DB11D639FAA27F00D12
:105F1000B11DAA1F649F6627B00DA11D661F829F39
:105F20002227B00DA11D621F739FB00DA11D621F1E
:105F3000839FA00D611D221F749F3327A00D611D3B
:105F4000231F849F600D211D822F762F6A2F11241D
:105F50009F5750409AF0F1F088234AF0EE0FFF1F50
:105F6000BB1F661F771F881F91505040A9F79E3FA7
:105F7000510580F00C94002F0C94592F5F3FE4F3EF
:105F8000983ED4F3869577956795B795F795E795FD
:105F90009F5FC1F7FE2B880F911D9695879597F906
:105FA0000895FA01EE0FFF1F309621053105A1F18A
