:100000000C94EA040C9431050C9431050C943105E0
:100010000C9431050C9431050C9431050C94310588
:100020000C9431050C9431050C943A2A0C940C2B49
:100030000C9417200C9431050C9431050C94310567
:100040000C9431050C9431050C9431050C94310558
:100050000C9431050C947F200C9431050C943105DF
:100060000C9431050C9431050C9431050C94310538
:100070000C9431050C9431050C9431050C94310528
:100080000C94530E0C9431050C9431050C943105ED
:100090000C9431050C9431050C9431050C94310508
:1000A0000C9431050C9431050C943105540564050C
:1000B0007605A605860588059B05D305A916A9160C
:1000C000D816D816171737178D188D1842178D1890
:1000D000F217F217591862188D188718FF17FF17B3
:1000E000FF17FF17FF17FF17FF17FF17FF17FF1760
:1000F000FF17FF17FF17FF17FF17FF170F181D1820
:1001000024182B183518792B9B2B892C9B2B892C89
:10011000E02B032C892C582C6B2C07634236B79BA1
:10012000D8A71A39685618AEBAAB558C1D3CB7CC57
:100130005763BD6DEDFD753EF6177231BF000000CF
:10014000803F08000000BE922449123EABAAAA2AB2
:10015000BECDCCCC4C3E00000080BEABAAAAAA3ECD
:1001600000000000BF000000803F00000000000809
:100170004178D3BB4387D1133D190E3CC3BD4282A6
:10018000AD2B3E68EC8276BED98FE1A93E4C80EF64
:10019000FFBE01C4FF7F3F00000000002B001400E1
:1001A0001A000800150017001C0018000C001200AF
:1001B00013002A00290004001600070009000A00A5
:1001C0000B000D000E000F0033003400E1001D0095
:1001D0001B00060019000500110010003600370052
:1001E000380028004370E000E200E30041702C007A
:1001F0002C0042705000510052004F002B001400A0
:100200001A00090013000A000D000F0018001C005E
:1002100033002A002900040015001600170007000B
:100220000B00110008000C0012003400E1001D005A
:100230001B000600190005000E00100036003700F4
:10024000380028004370E000E200E30041702C0019
:100250002C0042705000510052004F002B0034001F
:100260003600370013001C0009000A0006001500C4
:100270000F002A00290004001200080018000C00DA
:1002800007000B001700110016003800E1003300D2
:1002900014000D000E001B00050010001A001900CC
:1002A0001D0028004370E000E200E30041702C00D4
:1002B0002C0042705000510052004F0035021E02C7
:1002C0001F0220022102220223022402250226020A
:1002D00027022A004C003A003B003C003D003E0053
:1002E0003F002D022E022F02300231020100400099
:1002F0004100420043004400450032026402010014
:1003000001000100010001000100010001000100E5
:1003100001000100AB00AA00A900AE0035001E00DC
:100320001F002000210022002300240025002600B9
:1003300027002A004C003A003B003C003D003E00F4
:100340003F002D002E002F00300031000100400042
:1003500041004200430044004500320064000100B7
:100360000100010001000100010001000100010085
:1003700001000100AB00AA00A900AE001E001E0093
:100380001E001E001E001E001E001E001E001E007D
:100390001E001E00000014001A00080015001700BF
:1003A0001C0018000C00120013002F0000000400B5
:1003B0001600070009000A000B000D000E000F00D8
:1003C00033003400447000000000060019000000F3
:1003D00000001100100000000000000000000000FC
:1003E000000000000000000000000000000000000D
:1003F00000000000000000000000000000000000FD
:1004000000000000000000000000000000000000EC
:1004100000000000000000000000000000000000DC
:1007900000000000000000000000000001000070E8
:1007A0000100010001000100010001000100010041
:1007B00001004C000100010001001570167013705B
:1007C0000A703D703E703F704070010001001C7067
:1007D0001B70187019701D701E700100010001005F
:1007E0000100010001000100010001000100010001
:1007F0000100010001000100010001002803540074
:1008000068006500200050006C0061006E0063000D
:100810006B0020004B006500790062006F006100F2
:100820007200640000002C034F0072007400680026
:100830006F006C0069006E006500610072002000AE
:100840004B006500790062006F0061007200640077
:10085000730000000403090409026D00040100A0F4
:10086000FA0904000001030101000921110100013E
:100870002240000705810308000A09040100010362
:10088000010200092111010001224D000705820328
:1008900008000A09040200010300000009211101F7
:1008A00000012236000705830308000A090403003B
:1008B0000103000000092111010001223900070590
:1008C00084031000011201100100000008EDFE6019
:1008D0006004000102000105010906A101050719D4
:1008E000E029E71500250195087501810205081921
:1008F0000129059505750191029501750391010581
:10090000071900297715002501957875018102C026
:1009100005010980A101850216810026B7001A8110
:10092000002AB700751095018100C0050C0901A1CE
:10093000018503160100269C021A01002A9C0275FB
:100940001095018100C005010902A1010901A10062
:100950000509190129051500250195057501810273
:100960009501750381010501093009311581257F44
:1009700095027508810609381581257F950175084E
:100980008106050C0A38021581257F9501750881BD
:1009900006C0C005010906A101050719E029E715F0
:1009A00000250195087501810295017508810105F1
:1009B00008190129059505750191029501750391A5
:1009C000010507190029FF150026FF009506750887
:1009D0008100C00011241FBECFEFDAE0DEBFCDBF23
:1009E00004B603FE27C080918F0490919004A091DB
:1009F0009104B09192048730904BA740B04BD1F452
:100A000010928F041092900410929104109292040C
:100A100014BE84B7877F84BF0FB6F894A8958091E1
:100A20006000886180936000109260000FBEE0E07B
:100A3000F8E3099513E0A0E0B1E0E2E7F2E602C0D6
:100A400005900D92A033B107D9F714E0A0E3B3E00D
:100A500001C01D92AF38B107E1F70E9481270C94C5
:100A600037310C9400006E9A769A0C940206CF935C
:100A7000DF93EC010E94A31FBE0180E090E0DF91B4
:100A8000CF910C94B81C0F931F93CF93FC01ED539F
:100A9000F047E830F10508F097C0DB01EA5AFF4F54
:100AA0001296CC910C94FC30CC2309F48EC000E05B
:100AB00010E0980140E064E070E088E292E00E947B
:100AC000D11181E090E00FC0CC2309F47EC000E09A
:100AD00010E0980140E066E070E088EB91E00E9451
:100AE000D11182E090E00E9437056CC0CC2309F45C
:100AF0006CC000E010E0980140E068E070E088EE33
:100B000091E00E94D11184E090E0EDCF83E001C03C
:100B100084E0CC2341F00E94351D40E164E083E095
:100B20000E9432064FC00E94561D40E164E083E0FF
:100B30000E9432064AC085EECC2329F00E9442155D
:100B40000E9487253FC00E9415163FC0CC23E9F1C3
:100B50000E94860D00E010E0980140E066E070E041
:100B600088E891E00E94D11184E00E94561D83E044
:100B70000E94561D80E10E94561D85E00E94351D91
:100B80000E94901F811102C00E946C1F0E94A81F2A
:100B900090E09093800480937F04806880937F042A
:100BA0000E94AC1F0FC0CC2381F000E010E0980140
:100BB00040E066E070E088E591E00E94D11185E0B8
:100BC0000E94561DC0E001C0C1E08C2FCF911F9143
:100BD0000F9108950F931F932FEF89EF90E021500D
:100BE00080409040E1F700C0000000E010E0980174
:100BF00040E065E070E088E492E00E94D1111F912E
:100C00000F9108950C94EA050F931F9300E010E0F4
:100C1000980140E063E070E080E091E00E94D11133
:100C20002FEF82E597E0215080409040E1F700C02F
:100C300000001F910F910C94860D0F931F9300E0FD
:100C400010E0980140E068E070E088E191E00E94E7
:100C5000D1111F910F9108950C941D0681E0089504
:100C60000C944305CF92DF92EF92FF920F931F9364
:100C700001E010E020E030E06801790104C0CC0C14
:100C8000DD1CEE1CFF1C8A95D2F704C0000F111F5B
:100C9000221F331F6A95D2F70C291D292E293F29BF
:100CA000C0903304D0903404E0903504F0903604C2
:100CB000C022D122E222F322842FC016D106E206FE
:100CC000F30641F41F910F91FF90EF90DF90CF90CA
:100CD0000C94351D1F910F91FF90EF90DF90CF90F6
:100CE0000C94561D0E941E0D0C94AB0A279A2F9847
:100CF0008FEF9FEF90938700809386008AE0809328
:100D0000800089E1809381000C9430250E94760652
:100D10000C943305282F2F9880918000211108C052
:100D2000877F8093800010928D0010928C00089530
:100D3000886080938000233019F48FEF9FEF0FC0FD
:100D400083E090E0821B9109880F991F2FEF3FEFFE
:100D5000A90102C0569547958A95E2F7CA0190937A
:100D60008D0080938C00089508950C94B4060C9423
:100D7000B5060E94F8180E94860D0E9404062FEF07
:100D800084E39CE0215080409040E1F700C00000E7
:100D90000C94A4200F931F93CF93DF938C01FC013D
:100DA000C081D181CE010E94F11DBE010E94AA091D
:100DB000EC01B8010E943006882309F412C1B80181
:100DC000CE010E94B00B882309F40BC1B801CE01FB
:100DD0000E943A0A882309F404C1C431F0E7DF070E
:100DE00008F0CDC0C23080E7D80708F4A3C0F801EE
:100DF0008281882309F4AAC00E94901F811102C039
:100E00000E946C1F0E94A81F90E090938004809322
:100E10007F04C230F0E7DF0721F480917F04816016
:100E200082C0C33080E7D80721F480917F048260BC
:100E30007AC0C430E0E7DE0721F480917F0484604B
:100E400072C0C530F0E7DF0719F480917F0427C036
:100E5000C63080E7D80721F480917F04806163C0A9
:100E6000C730E0E7DE0721F480917F0480625BC039
:100E7000C830F0E7DF0721F480917F04806453C01D
:100E8000C93080E7D80721F480917F0480684BC087
:100E9000CA30E0E7DE0729F480917F04846088602F
:100EA00042C0CB30F0E7DF0721F480917F048E7FD2
:100EB0003AC0CC3080E7D80721F480917F048D7F41
:100EC00032C0CD30E0E7DE0721F480917F048B7FD4
:100ED0002AC0CE30F0E7DF0719F480917F0422C0EA
:100EE000CF3080E7D80721F480917F048F7E1BC02C
:100EF000C031E0E7DE0721F480917F048F7D13C0CD
:100F0000C131F0E7DF0721F480917F048F7B0BC0B4
:100F1000C231D04721F480917F048F7704C0809143
:100F20007F048B7F877F80937F0480917F040E9462
:100F3000AC1F57C0C115E0E7DE0779F0C130D047DC
:100F4000A1F081E08093300380933103C801DF91E9
:100F5000CF911F910F910C942E06F8018281882366
:100F600009F43FC00E94B9063CC0F8018281882381
:100F7000C1F18091500481608093500432C0CB3322
:100F800080E7D807A1F4F8018281882321F010922C
:100F9000300382E016C080913003811106C086E2E2
:100FA0000E94421586E20E94151682E018C0CC33DA
:100FB000D04739F6F8018281882331F0109231034D
:100FC00080E20E9464160DC080913103811106C039
:100FD00087E20E94421587E20E94151680E20E9475
:100FE0006B1680E0DF91CF911F910F9108952CE057
:100FF000729FF001112430E3839FE00DF11D112455
:10100000E60FF11DEE0FFF1FE456FE4F8591949100
:101010000E94BC09811540E5940708F047C081157E
:1010200020E4920708F01BC1883E910520F5803E20
:10103000910508F08AC1883A910578F4853A9105BE
:1010400008F0A5C08130910509F47FC108F436C1CC
:101050008430910508F079C131C18D3B910508F4C8
:10106000A1C0803C910508F429C1FC01EE0FFF1FCF
:10107000E458F94FEEC0811530E2930758F481151A
:1010800041E0940708F061C1803F910508F416C162
:1010900090650895811520E3920708F0DDC0FC01FA
:1010A000FF70EE0FFF1FE450F84FD3C0811535E5F8
:1010B000930708F043C0811544E5940708F0E6C0A3
:1010C000811522E5920708F5811531E5930708F0AF
:1010D000C9C0482F437021E030E002C0220F331F07
:1010E0004A95E2F73C68AC0164E0569547956A95ED
:1010F000E1F74370342B8F708695869540E2849F8C
:10110000C0011124822B932B0895282F2695269514
:10111000AC01437055278115934508F0A8C080E2C3
:10112000289F9001112481E090E002C0880F991F50
:101130004A95E2F7822B932B9C6808958F3240E703
:10114000940790F48F3120E7920708F0AAC0811528
:1011500036E5930708F49FC09C01305621153041B5
:1011600008F0ACC09F709BC0803320E7920709F461
:101170009FC008F49AC0813340E7940709F49BC0EC
:101180008233904709F09AC080E093ED0895853A44
:10119000910509F496C0863A910509F095C082E858
:1011A00090E40895883A910509F491C0893A91052F
:1011B00009F490C08A3A910509F48FC08B3A9105E1
:1011C00009F48EC08C3A910509F48DC08B3B9105D2
:1011D00009F48CC08C3B910509F48BC08D3A9105C4
:1011E00009F48AC0803B910509F489C08E3A9105C3
:1011F00009F488C08F3A910509F487C0813B9105B5
:1012000009F486C0823B910509F485C0833B9105B2
:1012100009F484C0843B910509F483C0853B9105A2
:1012200009F482C0863B910509F481C0873B910592
:1012300009F480C0883B910509F47FC0893B910582
:1012400009F47EC08A3B910509F47DC080E094E4F6
:1012500008958591949108959927906C08959F70B1
:10126000906A0895982F8827816F906A089590E278
:10127000299F9001112481E090E002C0880F991FFE
:101280004A95E2F7822B932B9A680895982F882726
:10129000846F906A08958F719927982F882790629C
:1012A00008958F519047946D089580E091ED0895D1
:1012B00080E090ED089580E092ED089580E090E068
:1012C000089581E890E4089583E890E4089582EE1B
:1012D00094E4089589EE94E408958AEE94E40895E0
:1012E00085EB94E4089586EB94E4089583EB94E40D
:1012F000089584EB94E4089587EB94E408958CECCE
:1013000094E408958DEC94E4089583E895E40895B9
:101310008AE895E4089582E995E4089584E995E4DE
:10132000089581E296E4089583E296E4089584E2C4
:1013300096E4089585E296E4089586E296E4089599
:1013400087E296E408958AE296E4089580E090E0CA
:10135000089508959CE0799FF001112490E3899FFE
:10136000E00DF11D1124E60FF11DEE0FFF1FE456F5
:10137000FE4F8591949108958238910549F1B0F41A
:101380008133910509F458C048F48932910509F474
:101390004EC08A32910509F454C0089585339105F1
:1013A00009F440C08933910599F00895833E910571
:1013B00029F138F4803E910591F0823E9105A1F02B
:1013C0000895863E9105F9F0873E910531F1089523
:1013D00020917F0420FD3AC021FD38C008958091FE
:1013E0007F0480FD35C032C080917F0482FF32C00F
:1013F00080917F0484FD30C083EE39C080917F04EA
:1014000082FD28C0F5CF80917F0483FF27C08091A3
:101410007F0484FD21C087EE2AC080917F0483FD74
:101420001DC0F5CF80917F0485FD1AC01BC080913F
:101430007F0485FD17C014C080917F0486FD14C011
:1014400015C080917F0486FD11C00EC080EE0FC0D4
:1014500089E30DC082EE0BC080E009C086EE07C0B4
:1014600089E205C085E303C08AE201C081E390E020
:10147000089508950F931F93CF93FB0122812111AB
:1014800002C0C1E041C08C01C0913F03C11125C021
:1014900084319047B1F70E94390A81E080933F037D
:1014A0000E94492090933E0380933D0310923203A3
:1014B00010923403109233031092360310923503C6
:1014C000109238031092370310923A0310923903A6
:1014D00010923C0310923B0317C080913D03909102
:1014E0003E030E945520883C910558F690913203A6
:1014F000E92FF0E0EE0FFF1FED5CFC4F118300833E
:101500009F5F90933203C0E08C2FCF911F910F917A
:101510000895AEEBB2E041E050E08D91E82FF0E0AD
:1015200094E0F595E7959A95E1F721A18F70BA01BE
:1015300002C0660F771F8A95E2F7CB01962F909530
:10154000922391A392A1892B82A372E0A23CB707B8
:1015500021F7089508950C94AA0A85B7806885BF7D
:1015600085B7806885BF0E94890AA2EBB2E041E09E
:1015700050E08D91E82FF0E094E0F595E7959A958D
:10158000E1F721A18F70BA0102C0660F771F8A951B
:10159000E2F7CB01962F9095922391A392A1892BEC
:1015A00082A372E0AE3BB70721F710924903109275
:1015B0004803109241031092400310924B03109283
:1015C0004A03109243031092420310924D0310926B
:1015D0004C03109245031092440310924F03109253
:1015E0004E0310924703109246030C948606CF9246
:1015F000DF92EF92FF920F931F93CF93DF9300E45C
:1016000013E0CEEBD2E0EE24E394F12C35E0C32ED0
:10161000DC2E44E0D40E8991E82FF0E094E0F595BB
:10162000E7959A95E1F721A18F70A70102C0440FB9
:10163000551F8A95E2F7CA01922F982B91A392A188
:101640008095892382A350EA5A95F1F7E2EBF2E004
:1016500020E030E040E050E06191A62FB0E084E06F
:10166000B595A7958A95E1F790968C9190E06F706B
:1016700002C0959587956A95E2F780FD08C0C7017D
:10168000042E02C0880F991F0A94E2F702C080E07E
:1016900090E0282B392B4F5F5F4F4C305105E1F61E
:1016A000F801819191918F018217930729F0329768
:1016B00031832083C09270020E94890ADC12ABCF72
:1016C00080917002882361F1815080937002882399
:1016D00039F08FE99FE00197F1F700C0000020C0CA
:1016E0008091400390914103909349038093480374
:1016F000809142039091430390934B0380934A035C
:10170000809144039091450390934D0380934C0343
:10171000809146039091470390934F0380934E032B
:101720000E94720681E0DF91CF911F910F91FF908F
:10173000EF90DF90CF900895E82FF0E0EE0FFF1FBD
:10174000E85BFC4F80819181089508951092970382
:101750000C94860D81E0809397030C942C060895D9
:101760008F929F92AF92BF92EF92FF920F931F932F
:10177000CF93DF93CDB7DEB7A3970FB6F894DEBF54
:101780000FBECDBF7C018B01853120E7920741F46C
:10179000FB018281882309F458C00E9468120BC0A3
:1017A0008631F0E79F0749F4FB018281882309F421
:1017B0004CC00E94711280E030C18731F0E79F0772
:1017C00051F4FB018281882309F43FC00E94641216
:1017D0008111EFCFE2CF8831F0E79F0739F4FB01A9
:1017E0008281882391F10E94AA0BE5CF8931F0E72D
:1017F0009F0739F4FB018281882339F10E94A60BEF
:10180000DACF8A31F0E79F0749F4FB018281882310
:10181000E1F0809197038111F1CFE5CF8B31F0E7B3
:101820009F0739F4FB018281882379F00E947812A6
:1018300009C08C31904749F4FB018281882329F04B
:101840000E9483120E941D06B6CF809197038823C1
:1018500009F4E2C0F0EEEF16F10489F4F801828198
:10186000882309F45FC00E94860D81E0809396036F
:101870001092950310929403109253039CCFF2EEB2
:10188000EF16F10499F4F8018281882309F44AC023
:101890000E94860D80919603882319F081E0809341
:1018A0009503109296031092940385CFF3EEEF16F2
:1018B000F104B1F4F80182818823A1F180919503AC
:1018C000882381F10E94860D1092960381E0809317
:1018D00094031092520310925103109250036BCF55
:1018E000F2E5EF16F10459F4F8018281882309F436
:1018F00094C080917102909172020A970EC0F1E536
:10190000EF16F10479F4F8018281882309F485C087
:1019100080917102909172020A9690937202809364
:10192000710249CF4091750283E2EFE8F2E0DE01F7
:10193000119601900D928A95E1F7F801808121E0DE
:1019400030E02C0F3D1F280F311DC901209173027B
:1019500030917402FC01E20FF31F6081772767FD6D
:101960007095640F711D882777FD8095982F0E94D0
:10197000D92D20E030E040E451E40E942F2D4B01AE
:101980005C01F801218184E090E0821B9109BC0197
:10199000882777FD8095982F0E94D92D9B01AC0157
:1019A000C501B4010E94BE2C9B01AC0160E070E057
:1019B00080E090E40E945D2F20E030E04CED50E4A8
:1019C0000E94F02E4B015C01F80182818823D1F046
:1019D0004FE050E0C501B4010E947111809196035F
:1019E0008823A1F08091530324E0829FF001112409
:1019F000EC5AFC4F80829182A282B3828F5F8093E7
:101A0000530304C0C501B4010E94B90D81E03FEF4A
:101A1000E316F10410F4CFCE81E0A3960FB6F8944C
:101A2000DEBF0FBECDBFDF91CF911F910F91FF9011
:101A3000EF90BF90AF909F908F9008958091940306
:101A4000882309F448C08091500390915103009776
:101A500079F40E9449209093510380935003809120
:101A6000520390E0009771F48091530390E00AC014
:101A70000E94552020917102309172022817390777
:101A800040F308950197880F991F880F991FFC0153
:101A9000EC5AFC4F60817181828193810E94B90D63
:101AA000E091520384E0E89FF0011124EC5AFC4FCE
:101AB00060817181828193814FE050E00E947111B9
:101AC0008091520390E001966091530370E00E9470
:101AD000E8308093520308950E94901F811102C044
:101AE0000E946C1F0E94BA1F809377043E9A8091D7
:101AF00071008D7F8093710082E0809390008AE175
:101B00008093910081E080939A03089580919A03D5
:101B1000811102C00E946C0D1092EA031092E90339
:101B2000809171008D7F80937100809190008F7300
:101B3000809390001092AC031092AB031092E303D9
:101B40001092E4031092E5031092E6031092E20370
:101B50001092E103E1ECF3E0A1EBB3E011921192FA
:101B6000119211921D921D9283E0E13EF807B1F7A8
:101B70000895CF92DF92EF92FF920F931F93CF932E
:101B8000DF932091AB03222309F484C06B017C0115
:101B900080919A03811102C00E946C0D01EE13E046
:101BA000C7E0D0E0A7019601F8019291829172916D
:101BB00062918F010E942A2D811131C0FE01EE0F2A
:101BC000FF1FEE0FFF1FEF53FC4F10821182128296
:101BD0001382DE01AA0FBB1FAF54BC4F11961C929B
:101BE0001E92C730D105E9F0219644815581668166
:101BF00077814083518362837383148215821682B6
:101C0000178212968D919C91139711969C938E93A7
:101C100013961C921E92129734961296E2CF219739
:101C200008F68091E9039091EA03019797FD05C0BA
:101C30009093EA038093E90304C01092EA031092A0
:101C4000E9038091E9039091EA032091E703309141
:101C5000E8032817390724F01092E8031092E703ED
:101C6000892BC1F4809171008D7F809371008091E8
:101C700090008F73809390001092E3031092E4031E
:101C80001092E5031092E6031092E2031092E10332
:101C90001092AB03DF91CF911F910F91FF90EF90C6
:101CA000DF90CF9008951F920F920FB60F921124DC
:101CB0004F925F926F927F928F929F92AF92BF925C
:101CC000CF92DF92EF92FF922F933F934F935F93C8
:101CD0006F937F938F939F93AF93BF93CF93DF9334
:101CE000EF93FF938091AB03882309F49BC1C091CC
:101CF000E903D091EA031C161D060CF093C1409035
:101D00009B0350909C0360909D0370909E0320E085
:101D100030E0A901C301B2010E94EB2E18160CF0AD
:101D200065C0C130D10509F452C08091E70390919C
:101D3000E803BE010E94E8307C019093E8038093A1
:101D4000E7038090AD039090AE03A090AF03B090F6
:101D5000B00320E030E040E85FE3C501B4010E9439
:101D6000BE2C6093AD037093AE038093AF0390934A
:101D7000B003F701EE0FFF1FEE0FFF1FEF53FC4FF5
:101D8000A301920160817181828193810E942F2D34
:101D900020E030E040E05EE30E94F02E9B01AC01C9
:101DA000C501B4010E94EB2E18168CF4C7010196F0
:101DB000BE010E94E8309093E8038093E7031092FD
:101DC000AD031092AE031092AF031092B003E091F6
:101DD000E703F091E803EE0FFF1FEE0FFF1FEF5335
:101DE000FC4F6081718182819381D0C0C090E303F8
:101DF000D090E403E090E503F090E60320E030E0CB
:101E0000A901C701B6010E942A2D2197882309F450
:101E1000A2C0FE01EE0FFF1FEE0FFF1FEF53FC4F9E
:101E200080809180A280B380A5019401C701B60192
:101E30000E942A2D87FF31C0A501940160E070E067
:101E40008CED93EC0E942F2D20E030E040E451E433
:101E50000E942F2D20E030E040E05FE30E94F02E52
:101E60009B01AC0160E070E080E090E40E945D2F97
:101E70009B01AC01C501B4010E94F02E9B01AC0195
:101E8000C701B6010E942A2D87FF07C0A70196014E
:101E900060E070E08CED93E439C0A5019401C701C6
:101EA000B6010E94EB2E18160CF055C0A501940146
:101EB00060E070E08CED93E40E942F2D20E030E094
:101EC00040E451E40E942F2D20E030E040E05FE349
:101ED0000E94F02E9B01AC0160E070E080E090E495
:101EE0000E945D2F9B01AC01C501B4010E94F02E40
:101EF0009B01AC01C701B6010E94EB2E18165CF5E0
:101F0000A701960160E070E08CED93EC0E942F2D0C
:101F100020E030E040E451E40E942F2D20E030E04A
:101F200040E05FE30E94F02E9B01AC0160E070E0B6
:101F300080E090E40E945D2F9B01AC01C701B601D7
:101F40000E94F02E6093E3037093E4038093E50313
:101F50009093E60313C0FE01EE0FFF1FEE0FFF1F6D
:101F6000EF53FC4F80819181A281B3818093E30381
:101F70009093E403A093E503B093E6036091E30339
:101F80007091E4038091E5039091E603209198031A
:101F9000309199032F3F4FEF340731F02F5F3F4FC0
:101FA00030939903209398030E948E126B017C0159
:101FB00020E034E244EF51E40E942A2D87FF08C05C
:101FC00086EFC82E88E2D82E84EFE82E81E4F82E22
:101FD00020E030E040E051E4C701B6010E94F02E5D
:101FE0009B01AC0160E074E284E79BE40E942F2D2A
:101FF0006B017C010E94A82D70939700609396005E
:1020000020917602309177024091780250917902C6
:10201000C701B6010E94F02E0E94A82D709399006E
:10202000609398008091AC03882309F433C1C09079
:10203000A703D090A803E090A903F090AA0320E0A2
:1020400030E0A901C701B6010E94EB2E1816D4F5A5
:1020500080919803909199038F3F2FEF920729F079
:1020600001969093990380939803C701B6010E944B
:102070008E1220E030E040E051E40E94F02E9B01FF
:10208000AC0160E074E284E79BE40E942F2D6B01B9
:102090007C010E94A82D7093970060939600209178
:1020A0007602309177024091780250917902C7010F
:1020B000B6010E94F02E0E94A82D709399006093A3
:1020C000980008C010929700109296001092990004
:1020D000109298006091A1037091A2036F5F7F4FEF
:1020E0007093A2036093A103209196003091970012
:1020F00080E090E0232BF1F0C0919600D091970002
:102100000E94D72D6B017C01BE0180E090E00E940F
:10211000D72D9B01AC016091A3037091A403809122
:10212000A5039091A6030E942F2D20E03FEF4FE7DB
:1021300057E410C00E94D72D6B017C0120E030EEE7
:102140004FEF54E46091A3037091A4038091A50321
:102150009091A6030E94F02E9B01AC01C701B6012D
:102160000E94EB2E87FD96C080919F038F5F809326
:102170009F0390E0209173043091740482179307B9
:10218000A0F080917E04882319F010929F030DC067
:10219000809171008D7F80937100809190008F738A
:1021A000809390001092AC037DC08091A003C091F9
:1021B0009F03811128C0C0907804D0907904E090EA
:1021C0007A04F0907B0420E030E0A901C701B60159
:1021D0000E94EB2E1816BCF481E08093A0031092AD
:1021E000A7031092A8031092A9031092AA03C09209
:1021F000A303D092A403E092A503F092A603C150DA
:10220000C0939F0343C01092A003109299031092B1
:102210009803E0917504F091760448E0C49FE00DC6
:10222000F11D112480819181A281B3818093A70344
:102230009093A803A093A903B093AA0320E030E0F1
:1022400040E85EE364817581868197810E94F02E6B
:102250006B017C0180917A02682F70E080E090E051
:102260000E94D72D20E030E048EC52E40E942F2D50
:102270009B01AC01C701B6010E94F02E6093A3033D
:102280007093A4038093A5039093A6031092A203D6
:102290001092A1038091770480FD04C01092AC03DA
:1022A0001092AB03FF91EF91DF91CF91BF91AF916E
:1022B0009F918F917F916F915F914F913F912F915E
:1022C000FF90EF90DF90CF90BF90AF909F908F9056
:1022D0007F906F905F904F900F900FBE0F901F9068
:1022E0001895CF92DF92EF92FF92CF93DF936B011D
:1022F0007C01EA0180919A03811102C00E946C0D59
:102300008091770480FF46C08091E9039091EA03B1
:1023100008970CF03FC0809171008D7F8093710011
:102320008091AC0381110E94860D81E08093AB0304
:10233000109299031092980320E030E0A901C701A0
:10234000B6010E94EB2E1816DCF48091E9039091FF
:10235000EA03FC01EE0FFF1FEE0FFF1FEF53FC4FD0
:10236000C082D182E282F382FC01EE0FFF1FEF54A4
:10237000FC4FD183C08301969093EA038093E903D5
:1023800080917100826080937100809190008068DC
:1023900080939000DF91CF91FF90EF90DF90CF90EE
:1023A00008958F929F92AF92BF92CF92DF92EF9259
:1023B000FF920F931F93CF93DF93EC017B01D42EF9
:1023C0004801590180919A03811102C00E946C0D4D
:1023D0008091770480FF6BC0809171008D7F809326
:1023E00071008091AB0381110E94860D81E0809382
:1023F000AC03D0937604C0937504F0927404E09219
:102400007304D0927E048092780490927904A09212
:102410007A04B0927B041092AD031092AE03109236
:10242000AF031092B00310929F0388819981AA8113
:10243000BB818093A7039093A803A093A903B093B3
:10244000AA0320E030E040E85EE36C817D818E816C
:102450009F810E94F02E6B017C0180917A02682F8F
:1024600070E080E090E00E94D72D20E030E048EC62
:1024700052E40E942F2D9B01AC01C701B6010E94BE
:10248000F02E6093A3037093A4038093A50390930D
:10249000A6031092A2031092A103809171008260A2
:1024A0008093710080919000806880939000DF910C
:1024B000CF911F910F91FF90EF90DF90CF90BF9041
:1024C000AF909F908F9008958091770481700895C8
:1024D000809177048160809377040E94BE1F0C94E2
:1024E000AF0B809177048E7F809377040C94BE1F8E
:1024F0008091EB0390E0019666E070E00E94E83086
:102500008093EB0308958091EB0390E0019766E0E0
:1025100070E00E94E8308093EB0308958F929F92C1
:10252000AF92BF92CF92DF92EF92FF920F931F93E1
:10253000CF93DF936B017C01C0919803D0919903F5
:10254000BE0180E090E00E94D72D4B015C01A70105
:10255000960160E070E08CE594E40E942F2D9B01D1
:10256000AC01C501B4010E94F02E0E94A82D20915B
:10257000EB03233009F473C028F4222351F02130F7
:10258000E9F02CC1243009F4A0C0253009F4E0C0E2
:1025900025C180E090E0A0E0BFE3809376029093B5
:1025A0007702A0937802B093790210929B03109265
:1025B0009C0310929D0310929E0310C110929B03E6
:1025C00010929C0310929D0310929E03643171053A
:1025D00040F46A30710560F520E030E040E85EE3E9
:1025E0002BC0693C710508F0AAC080E090E00E9411
:1025F000D72D20E030E040EA51E40E94BD2C20E0DD
:1026000030E044E353E40E942F2D9B01AC010E9473
:10261000F02E20E030E040E05EE30E94F02E9B01CF
:10262000AC0160E070E080E09EE30E94BD2C44C0FD
:1026300020E030E040E05FE3C701B6010E94F02EE9
:102640006B017C0180E090E0A0E0BEE38093760225
:1026500090937702A0937802B0937902BFC0109252
:102660009B0310929C0310929D0310929E034AE0DC
:10267000469F9001479F300D1124C90168EB7BE014
:102680000E94D430BC016C5D754077FF03C071952A
:1026900061957109882777FD8095982F0E94D92D23
:1026A0002EE333EC4EE259E30E94F02E20E030E0BE
:1026B00040EC5EE30E94BE2C60937602709377023A
:1026C000809378029093790289C010929B031092B4
:1026D0009C0310929D0310929E03CE018370992754
:1026E000892BE1F0BE016170772780E090E00E94C5
:1026F000D72D20E030E040E05EE30E94F02E20E0A5
:1027000030E040E45FE30E94BE2C60937602709359
:10271000770280937802909379020CC080E090E079
:10272000A0E0BFE38093760290937702A0937802B3
:10273000B0937902C770DD27CD2B09F04FC01092FE
:10274000760210927702109278021092790246C0B7
:1027500010929B0310929C0310929D0310929E0373
:1027600000E010E020E03FE3009376021093770250
:1027700020937802309379026739710578F180E00F
:1027800090E00E94D72D20E030E047E153E40E9422
:10279000BD2C20E030E04AE754E40E942F2D20E0D9
:1027A00030E048E452E40E94F02E20E030E040EABD
:1027B00051E40E941F2E0E94A12D660F771F660F05
:1027C000771FFB01EE53FD4F208131814281538100
:1027D000C701B6010E94F02E6B017C01C701B60152
:1027E000DF91CF911F910F91FF90EF90DF90CF90ED
:1027F000BF90AF909F908F9008959093F103809336
:10280000F0030895E091F003F091F103309721F087
:102810000190F081E02D099480E00895E091F003AB
:10282000F091F103309721F00280F381E02D0994BB
:102830000895E091F003F091F103309721F00480C6
:10284000F581E02D099408952091EE033091EF0376
:102850008217930771F09093EF038093EE03E0915A
:10286000F003F091F103309721F00680F781E02D1D
:10287000099408952091EC033091ED03821793079A
:1028800071F09093ED038093EC03E091F003F091ED
:10289000F103309721F00084F185E02D099408952B
:1028A00008950C9450140E9440200E94AD0A0E948A
:1028B000C6200C9430254F925F927F928F929F9208
:1028C000AF92BF92CF92DF92EF92FF920F931F933E
:1028D000CF93DF93CDB7DEB72A970FB6F894DEBF5C
:1028E0000FBECDBF0E94F70A93EFC92E93E0D92EF9
:1028F00000E010E0AA24A394B12C702E802F0E9437
:102900009C0B4C01F601419051906F0148265926CD
:1029100041145104B1F40F5F1F4F0430110569F7E2
:102920008FEF89838A831B820E9449208160782FE0
:102930009D838C8349815A816B818D810E941415FE
:102940003AC08091500481FD0E94A50B20E030E048
:102950007501022E02C0EE0CFF1C0A94E2F7C701BB
:1029600084219521892B09F12E837F828E209F203F
:1029700091E0892809F490E098870E9449208160BD
:10298000782F9A8789874E815F8168858A850E9422
:102990001415000F111FF801ED50FC4F808191813B
:1029A000E826F926F182E08206C02F5F3F4F2C30E7
:1029B000310571F6B0CF0E945E221091F2030E94A1
:1029C00002141817D9F00E9402148093F2032A9679
:1029D0000FB6F894DEBF0FBECDBFDF91CF911F9130
:1029E0000F91FF90EF90DF90CF90BF90AF909F90AE
:1029F0008F907F905F904F900C94B7062A960FB6F9
:102A0000F894DEBF0FBECDBFDF91CF911F910F9124
:102A1000FF90EF90DF90CF90BF90AF909F908F90FE
:102A20007F905F904F900895CF93DF93CDB7DEB73F
:102A30002B970FB6F894DEBF0FBECDBF4F835887DC
:102A400069877A878B87DE01119686E0FD011192F6
:102A50008A95E9F785E0FE01379601900D928A95F7
:102A6000E1F749815A816B817C818D819E810E9431
:102A7000961B2B960FB6F894DEBF0FBECDBFDF912D
:102A8000CF910895CF93882309F4CDC0C82F823801
:102A900059F40E94021481FDC6C089E30E94701E91
:102AA0000E943D1F89E30CC0833879F40E94021410
:102AB00080FDB9C083E50E94701E0E943D1F83E522
:102AC0000E94B21ECF910C943D1F843859F40E948D
:102AD000021482FDA8C087E40E94701E0E943D1F60
:102AE00087E4EECF8CEF8C0F813A48F48C2F0E9454
:102AF0009924811198C08C2F0E94701EE3CF80E230
:102B00008C0F883048F4C77081E001C0880FCA95E7
:102B1000EAF70E94F61ED6CF8BE58C0F833078F44F
:102B2000C53A29F0C63A31F083E890E005C081E863
:102B300090E002C082E890E0CF910C94241488E5E4
:102B40008C0F853108F06FC0C83A61F1C93A69F15C
:102B5000CA3A71F1CB3A79F1CC3A81F1CB3B89F1A8
:102B6000CC3B91F1CD3A99F1C03BA1F1CE3AA9F11C
:102B7000CF3AB1F1C13BB9F1C23BC1F1C33BC9F19D
:102B8000C43BD1F1C53BD9F1C63BE1F1C73BE9F10B
:102B9000C83BF1F1C93BF9F1CA3B09F43FC080E001
:102BA00090E03EC082EE90E03BC089EE90E038C0FD
:102BB0008AEE90E035C085EB90E032C086EB90E085
:102BC0002FC083EB90E02CC084EB90E029C087EB12
:102BD00090E026C08CEC90E023C08DEC90E020C00B
:102BE00083E891E01DC08AE891E01AC082E991E093
:102BF00017C084E991E014C081E292E011C083E241
:102C000092E00EC084E292E00BC085E292E008C040
:102C100086E292E005C087E292E002C08AE292E09A
:102C2000CF910C943A14CF910895882309F44BC0A6
:102C3000823859F40E94021481FF45C089E30E9442
:102C4000701E0E943D1F89E30CC0833871F40E94FE
:102C5000021480FF38C083E50E94701E0E943D1F51
:102C600083E50E94B21E0C943D1F843859F40E94E3
:102C7000021482FF28C087E40E94701E0E943D1F3C
:102C800087E4EFCF9CEF980F913A58F390E2980FBA
:102C9000983050F4877091E001C0990F8A95EAF757
:102CA000892F0E94FC1EDFCF9BE5980F933020F404
:102CB00080E090E00C942414885A853120F480E060
:102CC00090E00C943A140895882321F00E94F61E97
:102CD0000C943D1F0895882321F00E94FC1E0C9443
:102CE0003D1F08957F928F929F92AF92BF92CF9295
:102CF000DF92EF92FF920F931F93CF93DF931F9278
:102D0000CDB7DEB77C01C62E772EFC01058102957A
:102D10000F70128111110E94131F0E94691E8823D7
:102D200079F0112369F080E28C0D883048F082E060
:102D30000E94521E0E94691E91E0D82ED92601C021
:102D4000D12CE72DE295EF70F0E0E25AFF4F0C94A2
:102D5000FC30872D807F072D0F70882311F002959E
:102D6000007F112389F0002309F499C180E28C0DC2
:102D7000883020F4802F0E94F61E03C0802F0E940E
:102D8000061F0E943D1F8BC18C2D0E94151600232B
:102D900009F4C3C180E28C0D883020F4802F0E949A
:102DA000FC1E03C0802F0E940C1F0E943D1FB5C156
:102DB000872D807F972D9F70803211F4892F03C05B
:102DC000892F8295807FCC2021F0F1E0CF16A1F0F1
:102DD0001DC0112339F0002319F1013009F50E94BB
:102DE000261F9BC1002319F0013009F496C1898385
:102DF0000E94291F898110C1112321F0063008F09B
:102E00008CC10EC0053008F088C106C1112359F0ED
:102E1000002331F0F701958190FF41C19F709583A8
:102E20000E9464167AC1002309F4F6C03EC1872DC2
:102E300086958695837090E0009719F0019761F070
:102E40006CC1112321F08C2D972D937002C080E06E
:102E500090E00E94241461C1112321F08C2D972D44
:102E6000937002C080E090E00E943A1456C18C2D0D
:102E7000112319F00E94662102C00E94CE210E94F7
:102E800053224BC1872D837009F052C0111145C1E7
:102E90008C2D829586958770880F880F9C2D9F704A
:102EA000892E912CA12CB12C082E04C0880C991CC1
:102EB000AA1CBB1C0A94D2F7C4FE14C00FE010E099
:102EC00020E030E0B901A80104C0440F551F661F7F
:102ED000771F8A95D2F7CB01BA01609570958095DE
:102EE000909503C060E070E0CB01272D26952695D4
:102EF000237030E02230310569F02330310589F04C
:102F0000682979298A299B292130310571F00E948D
:102F1000DE1C03C1682979298A299B290E94FA1C91
:102F2000FCC00E94DE1CC501B4010E94C21CF5C099
:102F3000112319F0872D817001C08695882309F42B
:102F4000ECC08C2D829586958770880F880F9C2DFC
:102F50009F70892E912CA12CB12C082E04C0880CB6
:102F6000991CAA1CBB1C0A94D2F7C4FE14C00FE023
:102F700010E020E030E0B901A80104C0440F551F63
:102F8000661F771F8A95D2F7CB01BA0160957095BD
:102F90008095909503C060E070E0CB01272D2695C9
:102FA00026952370422F50E04230510569F043309E
:102FB000510589F0682979298A299B2941305105D1
:102FC00071F00E94B81DA9C0682979298A299B2916
:102FD0000E94D41DA2C00E94B81DC501B4010E9468
:102FE0009C1D9BC08C2D90E0FC01E05EF109E53159
:102FF000F10508F050C0E259FF4F0C94FC300C2D45
:103000000F70872D8F71112321F00E94351D802FA5
:1030100007CF0E94561D802F0E946B167EC0112381
:1030200041F0053008F079C0872D8F710E947B1D1B
:1030300074C0063008F071C0F7CF112339F0872D26
:103040008F710E94351D69C01123C9F3872D8F71BF
:103050000E94561D62C0112329F0872D8F710E9496
:10306000201D5BC00E94161D58C0112351F0172D62
:103070001F71812F0E94351D63E0812F0E94491E20
:103080004CC081E00E94521E023008F446C082E02B
:103090000E94521E42C0112331F0002381F28C2D78
:1030A0000E9442153AC0002389F28C2D0E94151609
:1030B00034C0472D4F706C2DC7010E94A6090E9495
:1030C0003A1C2BC0111129C0472D4F7050E04230DF
:1030D0005105B9F04CF44115510581F041305105CD
:1030E000E1F40E94582519C04330510569F044307D
:1030F000510599F48C2D0E94AA250FC00E944125EC
:103100000CC00E94742509C00E94872506C0472D67
:103110004F706C2DC7010E94A909DD20F9F00E94B3
:10312000451E80FD1BC0F70112820E943F1E0E94B7
:10313000351DC7010E94BD180E943F1E0F90DF91F0
:10314000CF911F910F91FF90EF90DF90CF90BF90A4
:10315000AF909F908F907F900C94561D0F90DF91B1
:10316000CF911F910F91FF90EF90DF90CF90BF9084
:10317000AF909F908F907F9008950F931F93CF9360
:10318000DF93EC01888199812B813C81232BB9F05D
:103190009F3F11F48F3F99F0CE010E94CA06882309
:1031A00071F0688179818A810E943B1E8C010E94A6
:1031B000F01D0E94B71CB801CE010E947216DF916B
:1031C000CF911F910F9108950E94131F0E94231FFA
:1031D0000E94E81E0E943D1F0E9404230E94532269
:1031E00080E090E00E94241480E090E00C943A1477
:1031F0000E94031F0C94E4180E94301E292F229570
:103200002F7030E02C3031054CF42A3031056CF44D
:103210002250310922303105A8F407C02C30310585
:1032200069F02F30310551F00DC0803F69F018F47E
:10323000803E40F409C0843F29F406C093FB8827F0
:1032400080F9089580E0089581E00895CF93DF9399
:1032500000D000D01F92CDB7DEB70F900F900F9027
:103260000F900F90DF91CF910895CF93DF9300D00F
:1032700000D000D0CDB7DEB726960FB6F894DEBFEB
:103280000FBECDBFDF91CF9108951F93CF93DF93F2
:10329000C091FB0316E08091FC03C81799F0D0E0C1
:1032A0001C9FF0011D9FF00D1124E350FC4F408145
:1032B000518162817381848195810E9435192196A3
:1032C000C770E9CFDF91CF911F91089540912D04F0
:1032D00050912E0460912F0470913004809131043C
:1032E000909132040C9435198091320482958F703C
:1032F00009F054C080912F04882309F44FC08091B5
:10330000FB03A091FC0360912D0470912E04409169
:10331000300450913104B6E08A1709F43FC090E0C0
:1033200041155105C1F17F3F11F46F3FA1F1B89FE5
:10333000F001B99FF00D1124E350FC4F218172136D
:103340002AC02081621327C02281211124C0238139
:1033500034812417350710F421503109241B350B13
:10336000283C3105C0F4209132042F702061209355
:10337000320426E0289FF001299FF00D1124EE5F12
:10338000FB4F80818F70806180838DE294E00E948A
:10339000BD180C94451901968770BECF0895CF9241
:1033A000DF92EF92FF920F931F93CF93DF93CDB7EE
:1033B000DEB762970FB6F894DEBF0FBECDBF8C01AB
:1033C00085E0F801DE011D9601900D928A95E1F7E6
:1033D000D8014C9111965C91119712966C911297AD
:1033E0001396CD90DC90149730912D0470912E049B
:1033F0008091300490913104009709F46BC17F3FB4
:1034000019F43F3F09F466C1E0902F04EE2009F45F
:10341000C0C020913204C816D90628F0F601E81B76
:10342000F90BCF0104C0809590958C0D9D1DFF2454
:10343000F394883C910578F0F12C207F09F0C6C008
:103440007C2DD98AC88A89890E9426198DE294E048
:103450000E94BD18B1C0822F807F09F046C075134D
:1034600014C0341312C0611110C02F70206120935A
:1034700032040E9466198DE294E00E94BD1880918A
:103480003204D80115968C932EC0CD2819F15F3FD8
:1034900011F44F3FF9F0F62E61111CC08091FB032F
:1034A0002091FC0336E0821709F45AC090E0389F5F
:1034B000F001399FF00D1124E350FC4F7181571337
:1034C00006C07081471303C07281711103C0019659
:1034D0008770E9CFF62E662309F418C18091320473
:1034E000816080933204F12C11C1751308C034132C
:1034F00006C0611104C080913204D801C3C04D8759
:103500005E878D859E856A8B0E94FC186A89882358
:10351000E1F16623D1F120913204822F82958F70E0
:1035200090E0029774F080912D0490912E0498877A
:103530008F831986DB86CA862C87CE0107960E9468
:10354000BD1886E0F801ADE2B4E001900D928A95D5
:10355000E1F70E9474190E946619FF24F394D6C003
:103560004D875E878D859E850E94301E292F22956E
:103570002F7030E0223031050CF0BCC09F7009F094
:10358000B6C0805E883008F4C1C0C8010E94BD1872
:10359000E4CFC816D90608F453C0F601E81BF90BAE
:1035A000CF01883C910508F450C0F12C7C2DD98ABC
:1035B000C88A89890E942619EDE2F4E086E0DF01DD
:1035C0001D928A95E9F70E946619A0C0751314C070
:1035D000341312C0611110C080913204F801858348
:1035E000C8010E94BD1886E0EDE2F4E0DF011D9203
:1035F0008A95E9F7FE2C8AC04D875E878D859E856A
:103600006A8B0E94FC186A89882309F4BECF66235E
:1036100009F4BBCF20913204822F82958F7090E005
:1036200002970CF48ECF80912D0490912E049A83F2
:1036300089831B82DD82CC822E83CE0101967FCFCF
:10364000809590958C0D9D1DACCFF62E662309F4C8
:103650009CCF75132EC034132CC02091320420FD52
:103660001FC0822F82958F70D9F0D80115962C93A8
:1036700015978F3049F08F5F982F9295907F822F0A
:103680008F70892B15968C93C8010E94BD1886E017
:10369000F801ADE2B4E001900D928A95E1F793CF85
:1036A00086E0F801ADE2B4E001900D928A95E1F771
:1036B0002DC04D875E878D859E850E94FC188111E7
:1036C00040CF80913204816080933204C8010E940F
:1036D000BD181CC0662309F458CF4D875E878D85C1
:1036E0009E850E94FC18882309F44FCF2ACF8111B0
:1036F00048CF0CC0243031050CF047CF9F7009F43F
:1037000040CFF8019581907F09F03BCF8F2D6296D5
:103710000FB6F894DEBF0FBECDBFDF91CF911F91E2
:103720000F91FF90EF90DF90CF9008951F93CF936C
:10373000DF93CDB7DEB72C970FB6F894DEBF0FBE80
:10374000CDBF4F83588769877A878B879C87CE0147
:1037500007960E94CF19882369F08F8198852A8562
:103760003B85232BF1F19F3F09F063C08F3F09F0A8
:1037700060C037C086E0FE013796DE0111960190E9
:103780000D928A95E1F76F817885EA85FB85309700
:1037900041F17F3F11F46F3F21F12091FC0330E0B4
:1037A000C9010196877099274091FB0350E0841767
:1037B000950709F447C069837A83FD83EC8396E01B
:1037C000929FD001939FB00D1124A350BC4FFE01D6
:1037D000319601900D929A95E1F78093FC030E9437
:1037E000451916E08091FB039091FC038917C1F104
:1037F000189FC001112483509C4F0E94CF19882329
:1038000079F1E091FB031E9FF0011124E350FC4F7E
:103810004081518162817381848195810E94351933
:103820008091FB0390E00196877099278093FB03BA
:10383000D9CF4F81588569857A858B859C850E9473
:103840003519CFCF0E94F8181092FC031092FB0399
:10385000EDE2F4E086E0DF011D928A95E9F7C1CF41
:103860002C960FB6F894DEBF0FBECDBFDF91CF917F
:103870001F910895EF92FF920F931F93CF93DF93C1
:103880008C01892B09F46CC0F12CEE24E394E8013F
:103890002196F8018491843740F4843008F051C0B7
:1038A000813081F0823019F15BC0853709F444C062
:1038B000A8F19CE7980F903708F052C08F770E94CC
:1038C000151641C00E5F1F4FFE01C49180E28C0FA0
:1038D000883048F4C7708E2D01C0880FCA95EAF76A
:1038E0000E94161F14C08C2F0E9442152DC00E5F1F
:1038F0001F4FFE01C49180E28C0F883058F4C770CE
:103900008E2D01C0880FCA95EAF70E941C1F0E94E5
:103910003D1F1AC08C2F0E94151616C00E5F1F4F38
:10392000FE01C491CC2381F08FE99FE00197F1F76C
:1039300000C00000C150F6CF0E5F1F4FFE01F49093
:1039400003C00E9442158E018F2D882309F49FCF5A
:10395000EFE9FFE03197F1F700C000008150F5CFAB
:10396000DF91CF911F910F91FF90EF9008950895EF
:1039700060933704709338048093390490933A0429
:103980000C94E4180F931F9300913704109138049E
:103990002091390430913A04DC01CB01802B912B2A
:1039A000A22BB32B8093370490933804A09339044F
:1039B000B0933A041F910F910C94E4180F931F9346
:1039C00000913704109138042091390430913A0461
:1039D000DC01CB0180239123A223B32380933704FE
:1039E00090933804A0933904B0933A041F910F9137
:1039F0000C94E4180F931F9300913704109138042E
:103A00002091390430913A04DC01CB0180279127C1
:103A1000A227B3278093370490933804A0933904E6
:103A2000B0933A041F910F910C94E4181092330450
:103A30001092340410923504109236040C94E41859
:103A400041E050E060E070E004C0440F551F661F85
:103A5000771F8A95D2F740933304509334046093D0
:103A60003504709336040C94E41841E050E060E0B3
:103A700070E004C0440F551F661F771F8A95D2F768
:103A80008091330490913404A0913504B0913604B0
:103A9000482B592B6A2B7B2B4093330450933404CF
:103AA00060933504709336040C94E41841E050E0C0
:103AB00060E070E004C0440F551F661F771F8A95B1
:103AC000D2F7409550956095709580913304909110
:103AD0003404A0913504B0913604482359236A2355
:103AE0007B234093330450933404609335047093E4
:103AF00036040C94E41841E050E060E070E004C04B
:103B0000440F551F661F771F8A95D2F780913304A3
:103B100090913404A0913504B09136044827592778
:103B20006A277B2740933304509334046093350411
:103B3000709336040C94E4180F931F930091330490
:103B4000109134042091350430913604DC01CB010E
:103B5000802B912BA22BB32B8093330490933404AE
:103B6000A0933504B09336041F910F910C94E41880
:103B70000F931F9300913304109134042091350466
:103B800030913604DC01CB0180239123A223B3239F
:103B90008093330490933404A0933504B093360497
:103BA0001F910F910C94E4180F931F93009133040D
:103BB000109134042091350430913604DC01CB019E
:103BC00080279127A227B32780933304909334044E
:103BD000A0933504B09336041F910F910C94E41810
:103BE0000895CF92DF92EF92FF920F931F93CF939E
:103BF000DF938C01C0903704D0903804E0903904F2
:103C0000F0903A048091330490913404A0913504EB
:103C1000B0913604C82AD92AEA2AFB2ACFE1D0E09B
:103C2000D701C6010C2E04C0B695A7959795879528
:103C30000A94D2F780FF06C0B8018C2F0E94F707C4
:103C4000019721F4219760F780E001C08C2FDF916C
:103C5000CF911F910F91FF90EF90DF90CF9008953B
:103C6000CF93DF93EC010E94F11DBE010E94F70784
:103C7000DF91CF910895CB010E94301E089580916D
:103C80003B04859585958595089580913B048770C3
:103C9000089598E0899F90011124262B20933B04DE
:103CA0000C94351D20913B048095822380933B0426
:103CB000982F977069F430E0482F552747FD5095AD
:103CC0002417350729F08595859585950C94561D03
:103CD000089590913B04977081E009F480E0089585
:103CE00090918E02992321F090917B02911109C04D
:103CF00020917C0230917D02F90132969FEF40E0E5
:103D00001FC0982F9695969596959F3050F5E09107
:103D10007C02F0917D02E90FF11D877021E030E017
:103D2000A90102C0440F551F8A95E2F7CA0191818B
:103D3000892B818308959F3F39F04F5F4E3041F0CA
:103D400051915813F8CF0DC05111F7CF942FF5CFE3
:103D50009F3F39F0F901E90FF11D97FDFA95828334
:103D60000895089590918E02992321F090917B02FD
:103D7000911109C020917C0230917D02F9013296A7
:103D8000205F3F4F1FC0982F9695969596959F3030
:103D9000F0F4E0917C02F0917D02E90FF11D877053
:103DA00021E030E0A90102C0440F551F8A95E2F7D7
:103DB000CA01809591818923818308953196E21704
:103DC000F30729F090819813F9CF1082F7CF089567
:103DD00081E090E0E0917C02F0917D02E80FF91F14
:103DE0001082019680319105A9F7089590914F04B2
:103DF000892B80934F040895809590914F048923D7
:103E000080934F04089510924F04089590914E04AA
:103E1000892B80934E040895809590914E048923B8
:103E200080934E04089510924E04089590914D048D
:103E3000892B80934D040895809590914D0489239A
:103E400080934D04089510924D04089580933C048E
:103E5000089510923C04089580917C0290917D0217
:103E6000FC0131969C01205F3F4F80E091919111C0
:103E70008F5FE217F307D1F70895E0917C02F0918C
:103E80007D0280914F048083E0917C02F0917D025D
:103E9000908180914E04892B8083E0917C02F09187
:103EA0007D02908180914D04892B808380913C0418
:103EB000882361F0E0917C02F0917D029081892B52
:103EC00080830E942C1F811110923C0480917C02FF
:103ED00090917D020C940E146DEE7EEF80E090E0E8
:103EE0000E94213160E082E090E00E94103160E0A9
:103EF00083E090E00E94103160E084E090E00E9456
:103F0000103160E085E090E00E94103160E086E0D2
:103F100090E00E9410316FEF87E090E00C94103138
:103F200080E090E00E940A3121E08D3E9E4F09F032
:103F300020E0822F089582E090E00C94023183E02B
:103F400090E00C940231682F83E090E00C941031E3
:103F500084E090E00C940231682F84E090E00C94AF
:103F6000103186E090E00C940231682F86E090E0FA
:103F70000C94103187E090E00C940231682F87E0B8
:103F800090E00C94103180918604843051F11092AD
:103F9000510420E488E190E00FB6F894A89580934E
:103FA00060000FBE2093600080E00E948A0680E0DF
:103FB0000E94B70683B7817F846083BF83B7816027
:103FC00083BF7894889583B78E7F83BF0FB6F894AC
:103FD000A8958091600088618093600010926000D5
:103FE0000FBE089508950895CF9380E00E948A0639
:103FF0000E94F21F0E94F70A0E94F31FC0E08C2F5C
:104000000E949C0B892B29F4CF5FC430C1F780E05C
:1040100001C081E0CF9108950E94F81880E00E94CD
:104020008A060E9430250E9402140C94B7061F9243
:104030000F920FB60F9211248F939F93AF93BF935C
:1040400080915104811113C08091520490915304C6
:10405000A0915404B09155044196A11DB11D8093C7
:10406000520490935304A0935404B0935504BF9109
:10407000AF919F918F910F900FBE0F901F90189549
:1040800082E084BD93E095BD9AEF97BD80936E006A
:1040900008952FB7F8948091520490915304A09101
:1040A0005404B09155042FBF0895CF92DF92EF9240
:1040B000FF920F931F932FB7F894409152045091A1
:1040C000530460915404709155042FBF6A017B0121
:1040D000EE24FF248C0120E030E0C016D106E20679
:1040E000F30610F4415051099A01281B390BC901FC
:1040F0001F910F91FF90EF90DF90CF9008951F9246
:104100000F920FB60F9211248F939F93AF93BF938B
:104110008091520490915304A0915404B09155049D
:104120000196A11DB11D8093520490935304A09356
:104130005404B0935504BF91AF919F918F910F900C
:104140000FBE0F901F9018950E94BF29F8942FEF73
:1041500087EA91E6215080409040E1F700C00000DE
:1041600087E090EBDC0180938F0490939004A09300
:104170009104B09392049CE088E10FB6F894A8955E
:10418000809360000FBE90936000FFCF0E94901F4D
:10419000811102C00E946C1F0E949B1F80935004DB
:1041A0000E94A81F90E09093800480937F0487FB77
:1041B000882780F980937B020E949F1F682F70E000
:1041C00080E090E00C94B81C8091580480FF0BC0F4
:1041D0006091810285E0689FB00111247595679513
:1041E000759567952BC081FF09C06091810285E0BC
:1041F000689FB00111247595679520C082FF07C0A4
:104200006091810285E0689FB001112417C09091F0
:1042100059049923D1F060918002961788F7209174
:10422000810285E0289F90011124929FA001939F15
:10423000500D112470E0CA010E94E8306038710509
:1042400040F46115710539F002C065E070E0862F19
:1042500008958FE7089581E008958091580480FFC4
:1042600008C060917F0270E07595679575956795B8
:1042700021C081FF06C060917F0270E0759567954F
:1042800019C082FF04C060917F0270E010C090915D
:1042900059049923C1F060917E029617A0F780918E
:1042A0007F02899FC001112470E00E94E8306038CD
:1042B000710528F46115710521F0862F08958FE7A7
:1042C000089581E0089561E070E0F4CF803F21F42B
:1042D0000E94E420819504C0813F29F40E94E420DB
:1042E00080935C040895823F21F40E94E42081952C
:1042F00004C0833F29F40E94E42080935B04089566
:10430000893F19F40E942D2105C08A3F31F40E9493
:104310002D21819580935D0408958B3F21F40E94A7
:104320002D21819504C08C3F29F40E942D2180937A
:104330005E040895843F21F480915A04816017C07F
:10434000853F21F480915A04826011C0863F21F498
:1043500080915A0484600BC0873F21F480915A04F5
:10436000886005C0883F31F480915A048061809351
:104370005A0408958D3F21F48091580481600BC048
:104380008E3F21F480915804826005C08F3F29F44C
:10439000809158048460809358040895803F39F4D4
:1043A00080915C0487FF6CC010925C0469C0813FFF
:1043B00029F480915C041816BCF362C090915B04F0
:1043C000823F29F497FF5CC010925B0459C0833F81
:1043D00019F41916CCF354C0893F41F480915D045F
:1043E00018160CF04DC010925D044AC08A3F29F4A3
:1043F00080915D0487FF44C0F6CF8B3F39F48091F4
:104400005E0487FF3DC010925E043AC08C3F29F4E1
:1044100080915E041816BCF333C0843F21F4809170
:104420005A048E7F17C0853F21F480915A048D7FF6
:1044300011C0863F21F480915A048B7F0BC0873FC7
:1044400021F480915A04877F05C0883F31F4809120
:104450005A048F7E80935A0413C08D3F21F48091BB
:1044600058048E7F0BC08E3F21F4809158048D7FBD
:1044700005C08F3F29F4809158048B7F80935804A6
:1044800080915B0481110EC080915C0481110AC08F
:1044900080915D04811106C080915E04811102C08B
:1044A0001092590408958AE594E00E9419140E941C
:1044B0004920909357048093560408951F93CF93F7
:1044C000DF9380915604909157040E945520AC01CF
:1044D00090915904992321F02091820230E006C086
:1044E000209183028AE0289F9001112442175307EC
:1044F00008F486C080915B04C0915C04D0915D0497
:1045000010915E04811107C0C11176C0D11174C031
:10451000111172C075C09F3F19F09F5F90935904AD
:10452000181624F40E94E42080935B0480915B04BD
:1045300087FF05C00E94E420819580935B041C16D0
:1045400024F40E94E42080935C0480915C0487FF43
:1045500005C00E94E420819580935C0460915B0417
:10456000662339F1C0915C04CC2319F1772767FDEC
:104570007095872F972F0E94D92D23E333E343E3D0
:104580005FE30E94F02E0E94A12D60935B046C2FCC
:10459000772767FD7095872F972F0E94D92D23E3EA
:1045A00033E343E35FE30E94F02E0E94A12D60936A
:1045B0005C041D1624F40E942D2180935D048091DB
:1045C0005D0487FF05C00E942D21819580935D04C5
:1045D000111624F40E942D2180935E0480915E04C4
:1045E00087FF05C00E942D21819580935E04DF9195
:1045F000CF911F910C9453229F3F09F08ECF96CFFD
:10460000DF91CF911F910895EAE5F4E085E0DF01A5
:104610001D928A95E9F71092590410925804089552
:10462000833081F128F4813059F08230D1F008953F
:10463000853009F449C0B8F1863009F456C00895B0
:1046400080918302262F30E0280F311D2F3F310546
:1046500024F4680F6093830208958FEF80938302A0
:10466000089580918202262F30E0280F311D2F3FC0
:10467000310524F4680F6093820208958FEF8093D0
:104680008202089580918102262F30E0280F311D8B
:104690002F3F310524F4680F6093810208958FEF56
:1046A00080938102089580918002262F30E0280FA8
:1046B000311D2F3F310524F4680F60938002089567
:1046C0008FEF80938002089580917F02262F30E043
:1046D000280F311D2F3F310524F4680F60937F02AE
:1046E00008958FEF80937F02089580917E02262F98
:1046F00030E0280F311D2F3F310524F4680F6093FF
:104700007E0208958FEF80937E020895833011F129
:1047100028F4813049F0823091F00895853081F19C
:1047200020F18630C1F1089580918302681720F44A
:10473000861B8093830208951092830208958091CE
:104740008202681720F4861B8093820208951092DB
:104750008202089580918102681720F4861B80935D
:104760008102089510928102089580918002681755
:1047700020F4861B80938002089510928002089591
:1047800080917F02681720F4861B80937F02089532
:1047900010927F02089580917E02681720F4861B94
:1047A00080937E02089510927E0208950F931F93C6
:1047B000873208F048C08E3108F08DC0803109F48E
:1047C00077C008F5873009F461C068F4863009F0D5
:1047D0009DC080915004817F8E7F8093500481E042
:1047E0008093600494C08B3009F489C08E3009F046
:1047F0008DC08091500482FB222720F991E09227FE
:1048000090FB82F95EC0863109F479C060F4813191
:1048100009F07CC00E94F81890917B0281E0892702
:1048200080937B026CC0893109F469C08B3109F037
:104830006DC08091500481FB222720F991E09227DE
:1048400090FB81F93EC0883309F459C050F4893295
:1048500009F457C0853309F454C0873209F451C0B4
:1048600055C0833409F44DC028F48A3308F44EC08F
:10487000895332C0883409F049C00E94F8180E9458
:10488000860D0E9404060E94A42039C09091500415
:10489000892F8095817080FB90F929F0966098604F
:1048A0009093500434C0997F977F9093500427C011
:1048B0008091500483FB222720F991E0922790FBFE
:1048C00083F9809350049923D1F080915004816042
:1048D0008093500414C08D5141E050E060E070E0DE
:1048E0008A019B0104C0000F111F221F331F8A95EC
:1048F000D2F7C901B8010E94B81C0E94F81881E0E3
:1049000006C061E070E080E090E0F5CF80E01F91AC
:104910000F91089580E0089580E008958E518A30C7
:1049200030F4E82FF0E0EE5EFC4F8081089580E0E7
:104930000895CF93C82F80916004813069F018F0FA
:104940008230C9F183C0E0917C02F0917D028081C8
:10495000823209F07DC007C0E0917C02F0917D02B7
:104960008081823261F48C2F0E948A24811104C0DC
:104970008C2F0E94D6231DC081E090E01AC08C2F9E
:104980000E948C24811114C0C43179F048F4CB30DA
:1049900079F0C03109F060C082E08093600408C003
:1049A000C93219F0C83321F057C01092600454C0C6
:1049B00081E0817053C0C93289F118F5C43171F1B9
:1049C000B0F4C73009F046C08EE18093830282E3E1
:1049D000809382028AE08093810284E18093800246
:1049E00088E080937F0288E280937E0233C082EE6B
:1049F0008C0F863078F58C2F0E948E2480935F0474
:104A000029C0CE34E9F020F4CB3421F56AE013C09C
:104A1000C13579F0C235F1F461E00DC080915F04D9
:104A2000882319F010925F0415C081E08093600420
:104A300015C061E006C080915F040E9410230AC087
:104A40006AE080915F040E94862304C01092600493
:104A500080E004C081E002C080E0ABCFCF91089538
:104A60000E94901F811102C00E946C1F0E94B11F02
:104A70008093810480FF02C0869501C080E00C9481
:104A80008A0680918104982F9695292F30E0233053
:104A900031054CF49F5F990F8170892B8160809361
:104AA00081040E94B51F8091810486950C948A062A
:104AB00080918104982F969591F09158990F81706B
:104AC000892B809381048E7F91E009F490E080919E
:104AD000810490FB80F9809381040E94B51F80912E
:104AE000810486950C948A0680918104982F909574
:104AF00090FB80F9809381040E94B51F809181040E
:104B000080FF02C0869501C080E00C948A069091D7
:104B10008104892F86958F5F8F779170843028F478
:104B2000880F892B8093810402C090938104809127
:104B300081048E7F91E009F490E08091810490FBE4
:104B400080F9809381040E94B51F8091810486952D
:104B50000C948A0620918104922F96958927982F8C
:104B6000990F822F8170892B809381048E7F91E031
:104B700009F490E08091810490FB80F98093810496
:104B80000E94B51F8091810486950C948A068091BD
:104B900071040895CF93DF9300D01F92CDB7DEB795
:104BA0009C0180918604843019F593E099833B83BE
:104BB0002A839093E9008FEF9091E800815095FD52
:104BC00006C095ED9A95F1F700008111F5CF80911F
:104BD000E80085FF0DC040E050E063E070E0CE01EA
:104BE00001960E942A288091E8008E778093E80041
:104BF0000F900F900F90DF91CF910895CF93DF9397
:104C000000D01F92CDB7DEB720918604243021F565
:104C100022E029839B838A8383E08093E9008FEFDE
:104C20009091E800815095FD06C095ED9A95F1F7B9
:104C300000008111F5CF8091E80085FF0DC040E0B4
:104C400050E063E070E0CE0101960E942A28809136
:104C5000E8008E778093E8000F900F900F90DF911F
:104C6000CF910895209186042430F1F422E020931E
:104C7000E9002FEF3091E800215035FD06C035EDF9
:104C80003A95F1F700002111F5CF2091E80025FFBA
:104C90000BC040E050E065E070E00E942A2880915F
:104CA000E8008E778093E8000895CF93DF93EC01BE
:104CB00090918604943009F046C080918E0288233A
:104CC000D9F080917B028823B9F09093E9008FEFAF
:104CD0009091E800815095FD06C095E19A95F1F715
:104CE00000008111F5CF8091E80085FF2CC040E0E5
:104CF00050E060E170E017C081E08093E9008FEF41
:104D00009091E800815095FD06C095ED9A95F1F7D8
:104D100000008111F5CF8091E80085FF14C040E0CC
:104D200050E068E070E0CE010E942A288091E800FF
:104D30008E778093E80080E1FE01A1E6B4E0019067
:104D40000D928A95E1F7DF91CF91089580918504C6
:104D5000811109C00E94BF290E941C2A8091E20093
:104D600084608093E2000895109285040895089568
:104D700008950C940C2042E061EC81E00E943929F6
:104D800042E061EC82E00E94392942E061EC83E07C
:104D90000E94392942E161EC84E00C943929809128
:104DA0008804833009F455C030F4813071F08230CA
:104DB00009F48EC008958A3009F47AC08B3009F462
:104DC00060C0893009F09CC020C080918704813A7E
:104DD00009F096C08091E800877F8093E800809179
:104DE0008B0490918C04892B21F460E181E694E09E
:104DF00003C060E080E090E070E00E947528809140
:104E0000E8008B778093E8000895809187048132D1
:104E100009F076C080918B0490918C04009719F072
:104E2000039709F06DC08091E800877F8093E800C8
:104E30008091E80082FD05C0809186048111F8CF41
:104E40005FC08091F100809371048091E8008B77BE
:104E500053C080918704813A09F052C080918B043D
:104E600090918C04892B09F04BC08091E800877FDA
:104E70008093E8008091E80080FFFCCF80918E0253
:104E800036C0809187048132D9F580918B0490914E
:104E90008C04892BA9F58091E800877F8093E80036
:104EA0000E946E298091890480938E020C94F818D8
:104EB00080918704813221F58091E800877F80937B
:104EC000E8000E946E2980918A04809372040895FC
:104ED00080918704813AA1F48091E800877F8093D4
:104EE000E8008091E80080FFFCCF809172048093FD
:104EF000F1008091E8008E778093E8000C946E2991
:104F0000089584B7877F84BF0FB6F894A8958091E1
:104F10006000886180936000109260000FBE80E89E
:104F200080936100109261000E9451140E94BF2979
:104F30000E941C2A8091E20084608093E2007894B1
:104F40000E94A22C0E94531484E892E00E94FD1358
:104F500080918604853069F40E94C31F8091840487
:104F60008823B1F30E94F41F882391F30E94142830
:104F7000EFCF0E945B14ECCF292F3327233031056C
:104F8000C9F064F42130310581F02230310509F097
:104F900043C08DE690E028E538E042C0213231057B
:104FA000F1F02232310541F137C082E190E025EC89
:104FB00038E036C099278130910541F08230910563
:104FC00041F0892B49F5E4E5F8E005C0E6E2F8E0B8
:104FD00002C0ECEFF7E0849190E09F0121C06430C3
:104FE000D8F4E62FF0E0EE0FFF1FE85DFC4F2081C4
:104FF000318189E090E014C0643070F470E0FB010E
:10500000EE0FFF1FE05EFC4F20813181FB01E45E6B
:10501000FC4F808190E004C080E090E020E030E030
:10502000FA0131832083089580E189BD82E189BD41
:1050300009B400FEFDCF8091D8008F7D8093D80009
:105040008091E00082608093E0008091E00081FD2B
:10505000FCCF0895CF92DF92EF92FF920F931F93B0
:10506000CF93DF93EC018B016A010E948D2981119E
:1050700033C0C114D10439F0F60180819181081B3D
:10508000190BC80FD91FE12CF12C0115110519F1CD
:105090008091E80085FD16C08091E8008E778093AE
:1050A000E800C114D10449F0F60180819181E80E35
:1050B000F91EF182E08285E00FC00E948D298823CD
:1050C00021F30AC089918093F10001501109FFEF8B
:1050D000EF1AFF0ADACF80E0DF91CF911F910F9195
:1050E000FF90EF90DF90CF90089520918D04309144
:1050F0008E042617370748F06115710539F42091A1
:10510000E8002E772093E80001C0B90140E0611566
:105110007105A9F120918604222309F443C02530AA
:1051200009F442C02091E80023FD40C02091E8002E
:1051300022FD32C02091E80020FFE9CF4091F3002A
:105140002091F20030E0342BFC01CF016115710594
:1051500059F02830310540F481918093F10061507D
:1051600071092F5F3F4FF1CF41E02830310509F041
:1051700040E02091E8002E772093E800C8CF41114D
:10518000C9CF0AC080918604882361F0853061F020
:105190008091E80083FD0AC08091E80082FFF2CF91
:1051A00080E0089582E0089583E0089581E0089505
:1051B00020918D0430918E042617370748F0611531
:1051C000710539F42091E8002E772093E80001C0A2
:1051D000B901FC0120E06115710591F1809186040F
:1051E000882309F440C0853009F43FC08091E8006D
:1051F00083FD3DC08091E80082FD2FC08091E800D2
:1052000080FFE9CF2091F3008091F20090E0922B93
:105210006115710559F08830910540F4249120936F
:10522000F1003196615071090196F2CF21E00897A3
:1052300009F020E08091E8008E778093E800CBCFE2
:105240002111CCCF0AC080918604882361F085307B
:1052500061F08091E80083FD0AC08091E80082FF40
:10526000F2CF80E0089582E0089583E0089581E020
:105270000895982F973058F59093E900981739F0D2
:105280007091EC002091ED005091F00003C0242FAC
:10529000762F50E021FF19C03091EB003E7F309314
:1052A000EB003091ED003D7F3093ED003091EB004D
:1052B00031603093EB007093EC002093ED0050933D
:1052C000F0002091EE0027FF07C09F5FD3CF8F70C3
:1052D0008093E90081E0089580E00895809187043B
:1052E00087FF11C08091E80082FD05C0809186048F
:1052F0008111F8CF11C08091E8008B770BC08091AD
:105300008604882349F08091E80080FFF8CF8091DF
:10531000E8008E778093E80008952091E4003091B2
:10532000E50095E64091EC00842F817040FF22C09B
:105330008091E80080FD1CC080918604882391F054
:10534000853091F08091EB0085FD10C04091E40024
:105350005091E5004217530729F39A01915011F734
:1053600084E0089582E0089583E0089581E008953F
:1053700080E008954091E80042FFDECF08950E944A
:105380002D2A0E94352AE0EEF0E080818160808342
:10539000E8EDF0E080818F77808319BCA7EDB0E065
:1053A0008C918E7F8C9380818F7E80831092850478
:1053B00008950F931F93CF93DF930E942D2A0E948D
:1053C000352AC8EDD0E088818F778883888180680E
:1053D000888388818F7D888319BC109286041092FF
:1053E0008204109284041092830400EE10E0F8010D
:1053F00080818B7F808388818160888342E060E048
:1054000080E00E943929E1EEF0E080818E7F808388
:10541000E2EEF0E08081816080838081886080831B
:10542000F80180818E7F8083888180618883DF910D
:10543000CF911F910F910895E8EDF0E080818F7E6C
:105440008083E7EDF0E080818160808384E082BF2B
:1054500081E0809385040C94D929E8EDF0E0808107
:105460008E7F80831092E20008951092DA001092ED
:10547000E10008951F920F920FB60F9211242F93FF
:105480003F934F935F936F937F938F939F93AF93CC
:10549000BF93EF93FF938091E10082FF0BC0809157
:1054A000E20082FF07C08091E1008B7F8093E100E2
:1054B0000E94A12C8091DA0080FF1FC08091D8004B
:1054C00080FF1BC08091DA008E7F8093DA0080918C
:1054D000D90080FF0DC080E189BD82E189BD09B49A
:1054E00000FEFDCF81E0809386040E94A62605C0C1
:1054F00019BC109286040E94B4268091E10080FFBE
:1055000019C08091E20080FF15C08091E2008E7F7B
:105510008093E2008091E20080618093E2008091BC
:10552000D80080628093D80019BC85E080938604FF
:105530000E94B8268091E10084FF30C08091E20093
:1055400084FF2CC080E189BD82E189BD09B400FEE1
:10555000FDCF8091D8008F7D8093D8008091E100AD
:105560008F7E8093E1008091E2008F7E8093E20045
:105570008091E20081608093E20080918204882320
:1055800011F084E007C08091E30087FD02C081E054
:1055900001C083E0809386040E94B9268091E100D7
:1055A00083FF29C08091E20083FF25C08091E10044
:1055B000877F8093E10082E08093860410928204CA
:1055C0008091E1008E7F8093E1008091E2008E7FE8
:1055D0008093E2008091E20080618093E20042E0EB
:1055E00060E080E00E9439298091F000886080931B
:1055F000F0000E94B726FF91EF91BF91AF919F916C
:105600008F917F916F915F914F913F912F910F906B
:105610000FBE0F901F9018951F920F920FB60F920A
:1056200011242F933F934F935F936F937F938F93A7
:105630009F93AF93BF93CF93DF93EF93FF93C0916B
:10564000E900CF708091EC00D82FD17080FDD0E8B8
:105650001092E9008091F000877F8093F0007894A9
:105660000E94502B1092E9008091F0008860809396
:10567000F000CD2BCF70C093E900FF91EF91DF9147
:10568000CF91BF91AF919F918F917F916F915F91DA
:105690004F913F912F910F900FBE0F901F90189533
:1056A0001F93CF93DF93CDB7DEB7AA970FB6F894C9
:1056B000DEBF0FBECDBFE7E8F4E088E08E0F90912B
:1056C000F10091938E13FBCF0E94CF268091E800CA
:1056D00083FF1FC18091870490918804492F50E077
:1056E0004A30510508F015C1FA01ED57FF4F0C94EF
:1056F000FC30803881F0823809F00BC180918B0436
:105700008F708093E9008091EB0085FB882780F9FA
:105710001092E90006C08091830490918404911155
:1057200082609091E800977F9093E8008093F10069
:105730001092F100C8C0282F2D7F09F0EAC08823FD
:1057400019F0823061F0E5C080918904813009F060
:10575000E0C0933009F080E0809384042BC08091F6
:105760008904811127C080918B048F7009F4D1C006
:105770008093E9002091EB0020FF1CC0933021F4BE
:105780008091EB00806214C09091EB009061909347
:10579000EB0021E030E0A90102C0440F551F8A95BB
:1057A000E2F74093EA001092EA008091EB008860F3
:1057B0008093EB001092E9008091E800877F86C01B
:1057C0008111A7C0109189041F778091E300807830
:1057D000812B8093E3008091E800877F8093E8002D
:1057E0000E946E298091E80080FFFCCF8091E30049
:1057F00080688093E300111102C082E001C083E061
:105800008093860486C08058823008F082C08091E0
:10581000890490918A048C3D53E0950779F583E0E3
:105820008A838AE289834FB7F894DE01139620E0D9
:105830003EE051E2E32FF0E050935700E49120FF67
:1058400003C0E295EF703F5FEF708E2F90E0EA307B
:1058500010F0C79601C0C0968D939D932F5F2431A1
:1058600049F74FBF8091E800877F8093E8006AE2A4
:1058700070E0CE0101960E94752814C0AE014F5F02
:105880005F4F60918B040E94BC27BC01892B09F4F7
:1058900040C09091E800977F9093E80089819A81B9
:1058A0000E94D8288091E8008B778093E80031C06F
:1058B000803879F58091E800877F8093E8008091B7
:1058C00082048093F1008091E8008E778093E80055
:1058D0000E946E291EC081111CC0909189049230D3
:1058E000C0F48091E800877F8093E8009093820461
:1058F0000E946E2980918204811106C08091E3008C
:1059000087FD02C081E001C084E0809386040E948C
:10591000BB268091E80083FF0AC08091E800877F62
:105920008093E8008091EB0080628093EB00AA9660
:105930000FB6F894DEBF0FBECDBFDF91CF911F91A0
:1059400008950895CF93809186048823A1F0C09193
:10595000E900CF709091EC00892F817090FD80E874
:10596000C82B1092E9008091E80083FD0E94502B23
:10597000CF70C093E900CF9108955058BB27AA2754
:105980000E94D52C0C94B12E0E94A32E38F00E94B8
:10599000AA2E20F039F49F3F19F426F40C94A02E7F
:1059A0000EF4E095E7FB0C948C2EE92F0E94C22E9A
:1059B00058F3BA17620773078407950720F079F444
:1059C000A6F50C94E42E0EF4E0950B2EBA2FA02D24
:1059D0000B01B90190010C01CA01A0011124FF279C
:1059E000591B99F0593F50F4503E68F11A16F04097
:1059F000A22F232F342F4427585FF3CF4695379596
:105A00002795A795F0405395C9F77EF41F16BA0B5A
:105A1000620B730B840BBAF09150A1F0FF0FBB1F08
:105A2000661F771F881FC2F70EC0BA0F621F731F51
:105A3000841F48F4879577956795B795F7959E3FAE
:105A400008F0B0CF9395880F08F09927EE0F97953F
:105A5000879508950E94682E08F481E008950E94B9
:105A6000432D0C94B12E0E94AA2E58F00E94A32E12
:105A700040F029F45F3F29F00C948C2E51110C94C6
:105A8000E52E0C94A02E0E94C22E68F39923B1F348
:105A9000552391F3951B550BBB27AA276217730754
:105AA000840738F09F5F5F4F220F331F441FAA1FE8
:105AB000A9F335D00E2E3AF0E0E832D091505040A4
:105AC000E695001CCAF72BD0FE2F29D0660F771F52
:105AD000881FBB1F261737074807AB07B0E809F038
:105AE000BB0B802DBF01FF2793585F4F3AF09E3FBD
:105AF000510578F00C948C2E0C94E52E5F3FE4F366
:105B0000983ED4F3869577956795B795F7959F5FFF
:105B1000C9F7880F911D9695879597F90895E1E04B
:105B2000660F771F881FBB1F621773078407BA07AA
:105B300020F0621B730B840BBA0BEE1F88F7E09505
:105B400008950E94A82D6894B1110C94E52E089533
:105B50000E94CA2E88F09F5798F0B92F9927B75105
:105B6000B0F0E1F0660F771F881F991F1AF0BA9501
:105B7000C9F714C0B13091F00E94E42EB1E008954D
:105B80000C94E42E672F782F8827B85F39F0B93F3F
:105B9000CCF3869577956795B395D9F73EF49095B4
:105BA0008095709561957F4F8F4F9F4F0895E89432
:105BB00009C097FB3EF490958095709561957F4F55
:105BC0008F4F9F4F9923A9F0F92F96E9BB27939503
:105BD000F695879577956795B795F111F8CFFAF413
:105BE000BB0F11F460FF1BC06F5F7F4F8F4F9F4F44
:105BF00016C0882311F096E911C0772321F09EE8A2
:105C0000872F762F05C0662371F096E8862F70E007
:105C100060E02AF09A95660F771F881FDAF7880FE1
:105C20009695879597F908950E94A32E20F019F074
:105C30000E94AA2E50F40C94A02E0C94E52EE92F6D
:105C40000E94C22E88F35523B1F3E7FB6217730756
:105C500084079507A8F189F3E92FFF2788232AF005
:105C60003197660F771F881FDAF7952F5527442342
:105C700032F091505040220F331F441FD2F7BB2700
:105C8000E91BF50B621B730B840BB109B1F222F413
:105C9000620F731F841FB11D31972AF0660F771FA3
:105CA000881FBB1FEFCF9150504062F041F0882316
:105CB00032F0660F771F881F91505040C1F79395BF
:105CC0000C94922E8695779567959F5FD9F7F7CFBD
:105CD000990F0008550FAA0BE0E8FEEF16161706FD
:105CE000E807F907C0F012161306E407F50798F065
:105CF000621B730B840B950B39F40A2661F0232B7E
:105D0000242B252B21F408950A2609F4A140A695F9
:105D10008FEF811D811D089597F99F6780E870E0DE
:105D200060E008959F3F31F0915020F4879577957A
:105D30006795B795880F911D9695879597F9089562
:105D40009FEF80EC089500240A9416161706180693
:105D50000906089500240A9412161306140605066F
:105D60000895092E0394000C11F4882352F0BB0F00
:105D700040F4BF2B11F460FF04C06F5F7F4F8F4F63
:105D80009F4F089557FD9058440F551F59F05F3F9E
:105D900071F04795880F97FB991F61F09F3F79F04D
:105DA00087950895121613061406551FF2CF4695CF
:105DB000F1DF08C0161617061806991FF1CF869551
:105DC0007105610508940895E894BB276627772735
:105DD000CB0197F908950E94682E08F48FEF08957B
:105DE0000E94032F0C94B12E0E94A32E38F00E9423
:105DF000AA2E20F0952311F00C948C2E0C94A02E3A
:105E000011240C94E52E0E94C22E70F3959FC1F3CD
:105E1000950F50E0551F629FF001729FBB27F00D58
:105E2000B11D639FAA27F00DB11DAA1F649F6627AD
:105E3000B00DA11D661F829F2227B00DA11D621FFC
:105E4000739FB00DA11D621F839FA00D611D221FB6
