:100000000C946E050C94B5050C94B5050C94B505CF
:100010000C94B5050C94B5050C94B5050C94B50578
:100020000C94B5050C94B5050C949C210C946E228F
:100030000C9474170C94B5050C94B5050C94B50587
:100040000C94B5050C94B5050C94B5050C94B50548
:100050000C94B5050C94DC170C94B5050C94B505FF
:100060000C94B5050C94B5050C94B5050C94B50528
:100070000C94B5050C94B5050C94B5050C94B50518
:100080000C94B5050C94B5050C94B5050C94B50508
:100090000C94B5050C94B5050C94B5050C94B505F8
:1000A0000C94B5050C94B5050C94B505140E140EFE
:1000B000430E430E820EA20EF80FF80FAD0EF80F8E
:1000C0005D0F5D0FC40FCD0FF80FF20F6A0F6A0FAF
:1000D0006A0F6A0F6A0F6A0F6A0F6A0F6A0F6A0F58
:1000E0006A0F6A0F6A0F6A0F6A0F6A0F7A0F880F1A
:1000F0008F0F960FA00FDB22FD22EB23FD22EB23B7
:1001000042236523EB23BA23CD2329001E001F00C1
:1001100020002100220023002400250026002700C3
:100120002D002B0014001A000800150017001C00F9
:1001300018000C00120013002A00E0000400160052
:10014000070009000A000B000D000E000F0033002D
:100150002800E1001D001B00060019000500110029
:100160001000360037003800340042702900E200E9
:10017000E30040702C002C004170500051005200F0
:100180004F0035001E001F00200021002200230028
:1001900024002500260027002A002B0014001A0046
:1001A000090013000A000D000F0018001C003300A6
:1001B0004C002900040015001600170007000B0072
:1001C000110008000C0012003400E1001D001B00AB
:1001D0000600190005000E00100036003700380038
:1001E00028004270E000E200E30040702C002C0088
:1001F00041705000510052004F0035001E001F009A
:1002000020002100220023002400250026002700D2
:100210002A002B0034003600370013001C000900B0
:100220000A00060015000F004C002900040012000F
:10023000080018000C0007000B0017001100160042
:100240003800E100330014000D000E001B00050013
:1002500010001A0019001D0028004270E000E200A2
:10026000E30040702C002C004170500051005200FF
:100270004F0035021E021F02200221022202230229
:1002800024022502260227022D0235021E021F0229
:100290002002210222022302240225022F00300024
:1002A00035004C003A003B003C003D003E003F0062
:1002B0002D022E022F0230023102010040004100C7
:1002C0004200430044004500320264022E00010057
:1002D00035020100010001000100010001000100E0
:1002E00001004A004E004B004D0035001E001F006B
:1002F00020002100220023002400250026002700E2
:10030000460035001E001F002000210022002300AF
:100310002400F400F000F500FD004C003A003B0022
:100320003C003D003E003F002D00F200F100F300D4
:10033000FE0001004000410042004300440045002F
:10034000320064002E000100FF00010001000100E6
:1003500001000100010001000100AB00AA00A9009A
:10036000AE000000000000000000000000000000DF
:10037000000000000000000000000000000000007D
:10038000000000000000000000000000000000006D
:10039000000000000000000000000000000000005D
:1003A000000000000000000000000000000000004D
:10088000000000000000000000003A003B003C00B7
:100890003D003E003F004000410042004300440054
:1008A0004500010000701D701E7001000100010074
:1008B00001000100010001004C00010001000100E5
:1008C0001570167013700A703D703E703F70010015
:1008D000010001001C701B70187019701D701E70D3
:1008E0000100010001000100010001000100010000
:1008F00001000100010001000100010001000100F0
:1009000001002A03540068006500200050007200B6
:1009100065006F006E006900630020004B006500F9
:10092000790062006F0061007200640000002C0317
:100930004F007200740068006F006C0069006E0068
:1009400065006100720020004B00650079006200C4
:100950006F0061007200640073000000040309046A
:1009600009026D00040100A0FA090400000103015E
:10097000010009211101000122400007058103083F
:10098000000A09040100010301020009211101000C
:1009900001224D000705820308000A090402000134
:1009A0000300000009211101000122360007058320
:1009B0000308000A090403000103000000092111D3
:1009C0000100012239000705840310000112011003
:1009D0000100000008EDFE61600100010200010558
:1009E000010906A101050719E029E7150025019570
:1009F0000875018102050819012905950575019100
:100A00000295017503910105071900297715002545
:100A100001957875018102C005010980A101850257
:100A200016810026B7001A81002AB70075109501BB
:100A30008100C0050C0901A1018503160100269C57
:100A4000021A01002A9C02751095018100C005015F
:100A50000902A1010901A1000509190129051500D3
:100A60002501950575018102950175038101050137
:100A7000093009311581257F9502750881060938ED
:100A80001581257F950175088106050C0A38021528
:100A900081257F950175088106C0C005010906A161
:100AA00001050719E029E715002501950875018161
:100AB000029501750881010508190129059505753B
:100AC0000191029501750391010507190029FF1590
:100AD0000026FF00950675088100C00011241FBE86
:100AE000CFEFDAE0DEBFCDBF04B603FE27C08091B2
:100AF000010290910202A0910302B091040287309A
:100B0000904BA740B04BD1F4109201021092020218
:100B1000109203021092040214BE84B7877F84BF30
:100B20000FB6F894A895809160008861809360006A
:100B3000109260000FBEE0E0F8E3099511E0A0E03C
:100B4000B1E0EAE6FBE402C005900D92A434B107DF
:100B5000D9F712E0A4E4B1E001C01D92A130B107C1
:100B6000E1F70E94E31E0C94B3250C9400006E9AEA
:100B7000769A0C941B06CF93DF93EC010E94091721
:100B8000BE0180E090E0DF91CF910C942314CF93CD
:100B9000FB018F3320E7920701F140F48D3320E70A
:100BA000920769F08E33904781F041C0813420E78D
:100BB0009207E1F0C0F08234904761F138C0C28101
:100BC000CC23B1F181E090E005C0C281CC2381F15A
:100BD00082E090E00E94BB0525C0C281CC2341F198
:100BE00084E090E0F7CFC28183E002C0C28184E05C
:100BF000CC2341F00E94A01440E164E083E00E9415
:100C0000530710C00E94C11440E164E083E00E94D9
:100C100053070EC0C28185EECC2331F00E94AD0C8B
:100C20000E94E91CC0E004C00E94800D01C0C1E028
:100C30008C2FCF910895089581E008950C94C705F5
:100C40000E9463102FEF84E39CE02150804090408D
:100C5000E1F700C000000C9401180F931F93CF938D
:100C6000DF938C01FC01C081D181CE010E945C1513
:100C7000BE010E948B09EC01B8010E941E06882368
:100C800009F40BC1B801CE010E941B0A882309F4A4
:100C900004C1C431F0E7DF0708F0CDC0C23080E7FF
:100CA000D80708F4A3C0F8018281882309F4AAC0F8
:100CB0000E94F616811102C00E94D7160E940E17DC
:100CC00090E09093F2018093F101C230F0E7DF07EA
:100CD00021F48091F101816082C0C33080E7D807A0
:100CE00021F48091F10182607AC0C430E0E7DE0730
:100CF00021F48091F101846072C0C530F0E7DF0714
:100D000019F48091F10127C0C63080E7D80721F49B
:100D10008091F101806163C0C730E0E7DE0721F414
:100D20008091F10180625BC0C830F0E7DF0721F4F9
:100D30008091F101806453C0C93080E7D80721F465
:100D40008091F10180684BC0CA30E0E7DE0729F4EA
:100D50008091F1018460886042C0CB30F0E7DF070A
:100D600021F48091F1018E7F3AC0CC3080E7D80722
:100D700021F48091F1018D7F32C0CD30E0E7DE07B4
:100D800021F48091F1018B7F2AC0CE30F0E7DF079C
:100D900019F48091F10122C0CF3080E7D80721F407
:100DA0008091F1018F7E1BC0C031E0E7DE0721F4A6
:100DB0008091F1018F7D13C0C131F0E7DF0721F48D
:100DC0008091F1018F7B0BC0C231D04721F480911B
:100DD000F1018F7704C08091F1018B7F877F809331
:100DE000F1018091F1010E94121757C0C115E0E78F
:100DF000DE0779F0C130D047A1F081E08093440153
:100E000080934501C801DF91CF911F910F910C9400
:100E10001C06F8018281882309F43FC00E94200645
:100E20003CC0F80182818823C1F18091CE018160AC
:100E30008093CE0132C0CB3380E7D807A1F4F8010C
:100E40008281882321F01092440182E016C08091B3
:100E50004401811106C086E20E94AD0C86E20E9428
:100E6000800D82E018C0CC33D04739F6F80182817A
:100E7000882331F01092450180E20E94CF0D0DC011
:100E800080914501811106C087E20E94AD0C87E286
:100E90000E94800D80E20E94D60D80E0DF91CF910C
:100EA0001F910F910895CF92DF92EF92FF920F93CF
:100EB0001F9301E010E020E030E06801790104C0F8
:100EC000CC0CDD1CEE1CFF1C8A95D2F704C0000F71
:100ED000111F221F331F6A95D2F70C291D292E29B5
:100EE0003F29C090B101D090B201E090B301F090E1
:100EF000B401C022D122E222F322842FC016D106EF
:100F0000E206F30641F41F910F91FF90EF90DF90FE
:100F1000CF900C94A0141F910F91FF90EF90DF9051
:100F2000CF900C94C1140C948C0A279A2F988FEFB1
:100F30009FEF90938700809386008AE080938000E3
:100F400089E1809381000C94921C0E9495070C9477
:100F5000B705282F2F9880918000211108C0877F26
:100F60008093800010928D0010928C00089588600C
:100F700080938000233019F48FEF9FEF0FC083E040
:100F800090E0821B9109880F991F2FEF3FEFA90175
:100F900002C0569547958A95E2F7CA0190938D0055
:100FA00080938C00089508950C94D3070C94D40773
:100FB0002CE0729FF00111243CE3839FE00DF11DB2
:100FC0001124E60FF11DEE0FFF1FE65FFE4F859126
:100FD00094910E949D09811540E5940708F047C04F
:100FE000811520E4920708F01BC1883E910520F589
:100FF000803E910508F08AC1883A910578F4853AD7
:10100000910508F0A5C08130910509F47FC108F46D
:1010100036C18430910508F079C131C18D3B91050D
:1010200008F4A1C0803C910508F429C1FC01EE0F31
:10103000FF1FEE57F84FEEC0811530E2930758F4CA
:10104000811541E0940708F061C1803F910508F4E3
:1010500016C190650895811520E3920708F0DDC060
:10106000FC01FF70EE0FFF1FEE5FF64FD3C081153E
:1010700035E5930708F043C0811544E5940708F06F
:10108000E6C0811522E5920708F5811531E5930741
:1010900008F0C9C0482F437021E030E002C0220FA1
:1010A000331F4A95E2F73C68AC0164E056954795DA
:1010B0006A95E1F74370342B8F708695869540E2F0
:1010C000849FC0011124822B932B0895282F2695ED
:1010D0002695AC01437055278115934508F0A8C0AB
:1010E00080E2289F9001112481E090E002C0880FE7
:1010F000991F4A95E2F7822B932B9C6808958F32B3
:1011000040E7940790F48F3120E7920708F0AAC0D7
:10111000811536E5930708F49FC09C0130562115D0
:10112000304108F0ACC09F709BC0803320E792072D
:1011300009F49FC008F49AC0813340E7940709F48A
:101140009BC08233904709F09AC080E093ED0895E8
:10115000853A910509F496C0863A910509F095C043
:1011600082E890E40895883A910509F491C0893A9B
:10117000910509F490C08A3A910509F48FC08B3A21
:10118000910509F48EC08C3A910509F48DC08B3B12
:10119000910509F48CC08C3B910509F48BC08D3A04
:1011A000910509F48AC0803B910509F489C08E3A03
:1011B000910509F488C08F3A910509F487C0813BF5
:1011C000910509F486C0823B910509F485C0833BF3
:1011D000910509F484C0843B910509F483C0853BE3
:1011E000910509F482C0863B910509F481C0873BD3
:1011F000910509F480C0883B910509F47FC0893BC3
:10120000910509F47EC08A3B910509F47DC080E018
:1012100094E408958591949108959927906C089588
:101220009F70906A0895982F8827816F906A08951B
:1012300090E2299F9001112481E090E002C0880F84
:10124000991F4A95E2F7822B932B9A680895982F5D
:101250008827846F906A08958F719927982F88271F
:10126000906208958F519047946D089580E091EDBC
:10127000089580E090ED089580E092ED089580E07B
:1012800090E0089581E890E4089583E890E408955B
:1012900082EE94E4089589EE94E408958AEE94E44D
:1012A000089585EB94E4089586EB94E4089583EB28
:1012B00094E4089584EB94E4089587EB94E408950E
:1012C0008CEC94E408958DEC94E4089583E895E41F
:1012D00008958AE895E4089582E995E4089584E9FB
:1012E00095E4089581E296E4089583E296E40895F2
:1012F00084E296E4089585E296E4089586E296E411
:10130000089587E296E408958AE296E4089580E0DD
:1013100090E0089508959CE0799FF00111249CE3EA
:10132000899FE00DF11D1124E60FF11DEE0FFF1F47
:10133000E65FFE4F8591949108958238910549F1B9
:10134000B0F48133910509F458C048F4893291050D
:1013500009F44EC08A32910509F454C008958533CA
:10136000910509F440C08933910599F00895833EB1
:10137000910529F138F4803E910591F0823E910566
:10138000A1F00895863E9105F9F0873E910531F16F
:1013900008952091F10120FD3AC021FD38C0089543
:1013A0008091F10180FD35C032C08091F10182FF52
:1013B00032C08091F10184FD30C083EE39C080914C
:1013C000F10182FD28C0F5CF8091F10183FF27C094
:1013D0008091F10184FD21C087EE2AC08091F10146
:1013E00083FD1DC0F5CF8091F10185FD1AC01BC0A2
:1013F0008091F10185FD17C014C08091F10186FD37
:1014000014C015C08091F10186FD11C00EC080EEA0
:101410000FC089E30DC082EE0BC080E009C086EEEC
:1014200007C089E205C085E303C08AE201C081E309
:1014300090E0089508950F931F93CF93FB012281AD
:10144000211102C0C1E041C08C01C0915301C11102
:1014500025C084319047B1F70E941A0A81E0809339
:1014600053010E94A617909352018093510110924C
:101470004601109248011092470110924A011092C1
:10148000490110924C0110924B0110924E011092A2
:101490004D011092500110924F0117C080915101DF
:1014A000909152010E94B217883C910558F6909194
:1014B0004601E92FF0E0EE0FFF1FE95BFE4F1183BD
:1014C00000839F5F90934601C0E08C2FCF911F91C6
:1014D0000F910895A1E2B1E041E050E08D91E82F35
:1014E000F0E094E0F595E7959A95E1F721A18F70EA
:1014F000BA0102C0660F771F8A95E2F7CB01962FDB
:101500009095922391A392A1892B82A371E0A63298
:10151000B70721F7089508950C948B0A85B7806862
:1015200085BF85B7806885BF0E946A0AA5E1B1E0E2
:1015300041E050E08D91E82FF0E094E0F595E795DB
:101540009A95E1F721A18F70BA0102C0660F771F4B
:101550008A95E2F7CB01962F9095922391A392A1C1
:10156000892B82A371E0A132B70721F7EEE5F1E004
:10157000A4E5B1E0119211921D921D9281E0E8362E
:10158000F807C1F70C94A507AF92BF92CF92DF92F4
:10159000EF92FF920F931F93CF93DF9304E511E037
:1015A0007801C1E2D1E0CC24C394D12C35E0A32E44
:1015B000BC2EBA0C8991E82FF0E094E0F595E79500
:1015C0009A95E1F721A18F70A60102C0440F551F23
:1015D0008A95E2F7CA01922F982B91A392A1809548
:1015E000892382A350EA5A95F1F7E5E1F1E020E082
:1015F00030E040E050E06191A62FB0E084E0B59586
:10160000A7958A95E1F790968C9190E06F7002C053
:10161000959587956A95E2F780FD08C0C601042E6E
:1016200002C0880F991F0A94E2F702C080E090E0A0
:10163000282B392B4F5F5F4F4C305105E1F6D70116
:101640008D919D917D018217930731F0FD013297B5
:1016500031832083A09200010E946A0ABC12AACFA3
:10166000809100018823C1F081508093000188237C
:1016700039F0EFE9FFE03197F1F700C000000CC04E
:10168000EEE5F1E0D8018D919D918D0181939193CB
:10169000B1E00E351B07B1F70E94930781E0DF919F
:1016A000CF911F910F91FF90EF90DF90CF90BF905F
:1016B000AF900895E82FF0E0EE0FFF1FE25AFE4FC3
:1016C000808191810895089590936D0180936C01BC
:1016D0000895E0916C01F0916D01309721F0019037
:1016E000F081E02D099480E00895E0916C01F09183
:1016F0006D01309721F00280F381E02D0994089567
:10170000E0916C01F0916D01309721F00480F5813A
:10171000E02D0994089520916A0130916B018217A0
:10172000930771F090936B0180936A01E0916C01D3
:10173000F0916D01309721F00680F781E02D09943A
:10174000089520916801309169018217930771F023
:101750009093690180936801E0916C01F0916D01B3
:10176000309721F00084F185E02D099408950895C3
:101770000C94B70B0E949D170E948E0A0E9423189A
:101780000E94921C81E08093010108954F925F9224
:101790007F928F929F92AF92BF92CF92DF92EF9201
:1017A000FF920F931F93CF93DF93CDB7DEB72A97A6
:1017B0000FB6F894DEBF0FBECDBF0E94C40A9FE6ED
:1017C000C92E91E0D92E00E010E0AA24A394B12CF8
:1017D000702E802F0E945A0B4C01F60141905190BF
:1017E0006F014826592641145104B1F40F5F1F4F71
:1017F0000530110569F78FEF89838A831B820E9468
:10180000A6178160782F9D838C8349815A816B81D3
:101810008D810E947F0C3AC08091CE0181FD0E9493
:10182000630B20E030E07501022E02C0EE0CFF1CBD
:101830000A94E2F7C70184219521892B09F12E83AF
:101840007F828E209F2091E0892809F490E098877C
:101850000E94A6178160782F9A8789874E815F81C1
:1018600068858A850E947F0C000F111FF801E159DD
:10187000FE4F80819181E826F926F182E08206C040
:101880002F5F3F4F2C30310571F6B0CF0E94BB194E
:1018900010916E010E94690B1817D9F00E94690B14
:1018A00080936E012A960FB6F894DEBF0FBECDBFAF
:1018B000DF91CF911F910F91FF90EF90DF90CF902C
:1018C000BF90AF909F908F907F905F904F900C94BF
:1018D000D6072A960FB6F894DEBF0FBECDBFDF91B4
:1018E000CF911F910F91FF90EF90DF90CF90BF901D
:1018F000AF909F908F907F905F904F900895CF937F
:10190000DF93CDB7DEB72B970FB6F894DEBF0FBECF
:10191000CDBF4F83588769877A878B87DE01119601
:1019200086E0FD0111928A95E9F785E0FE01379680
:1019300001900D928A95E1F749815A816B817C81F2
:101940008D819E810E9401132B960FB6F894DEBF05
:101950000FBECDBFDF91CF910895CF93882309F4B7
:10196000CDC0C82F823859F40E94690B81FDC6C0D2
:1019700089E30E94DB150E94A81689E30CC0833816
:1019800079F40E94690B80FDB9C083E50E94DB15E4
:101990000E94A81683E50E941D16CF910C94A816EC
:1019A000843859F40E94690B82FDA8C087E40E9424
:1019B000DB150E94A81687E4EECF8CEF8C0F813ADE
:1019C00048F48C2F0E94FB1B811198C08C2F0E9421
:1019D000DB15E3CF80E28C0F883048F4C77081E0DC
:1019E00001C0880FCA95EAF70E946116D6CF8BE531
:1019F0008C0F833078F4C53A29F0C63A31F083E889
:101A000090E005C081E890E002C082E890E0CF91CC
:101A10000C948B0B88E58C0F853108F06FC0C83AA9
:101A200061F1C93A69F1CA3A71F1CB3A79F1CC3A2C
:101A300081F1CB3B89F1CC3B91F1CD3A99F1C03B9F
:101A4000A1F1CE3AA9F1CF3AB1F1C13BB9F1C23B14
:101A5000C1F1C33BC9F1C43BD1F1C53BD9F1C63B90
:101A6000E1F1C73BE9F1C83BF1F1C93BF9F1CA3BF0
:101A700009F43FC080E090E03EC082EE90E03BC0C1
:101A800089EE90E038C08AEE90E035C085EB90E0BA
:101A900032C086EB90E02FC083EB90E02CC084EB4B
:101AA00090E029C087EB90E026C08CEC90E023C04A
:101AB0008DEC90E020C083E891E01DC08AE891E0C1
:101AC0001AC082E991E017C084E991E014C081E274
:101AD00092E011C083E292E00EC084E292E00BC07B
:101AE00085E292E008C086E292E005C087E292E0DB
:101AF00002C08AE292E0CF910C94A10BCF9108959D
:101B0000882309F44BC0823859F40E94690B81FF85
:101B100045C089E30E94DB150E94A81689E30CC02A
:101B2000833871F40E94690B80FF38C083E50E94FE
:101B3000DB150E94A81683E50E941D160C94A816BA
:101B4000843859F40E94690B82FF28C087E40E9400
:101B5000DB150E94A81687E4EFCF9CEF980F913A0F
:101B600058F390E2980F983050F4877091E001C0DC
:101B7000990F8A95EAF7892F0E946716DFCF9BE5B8
:101B8000980F933020F480E090E00C948B0B885AEF
:101B9000853120F480E090E00C94A10B0895882317
:101BA00021F00E9461160C94A8160895882321F054
:101BB0000E9467160C94A81608957F928F929F92A8
:101BC000AF92BF92CF92DF92EF92FF920F931F934B
:101BD000CF93DF931F92CDB7DEB77C01C62E772E51
:101BE000FC01058102950F70128111110E947E1671
:101BF0000E94D415882379F0112369F080E28C0DBE
:101C0000883048F082E00E94BD150E94D41591E012
:101C1000D82ED92601C0D12CE72DE295EF70F0E047
:101C2000EA5AFF4F0C946425872D807F072D0F7093
:101C3000882311F00295007F112389F0002309F415
:101C400099C180E28C0D883020F4802F0E946116AB
:101C500003C0802F0E9471160E94A8168BC18C2D84
:101C60000E94800D002309F4C3C180E28C0D8830EE
:101C700020F4802F0E94671603C0802F0E947716E1
:101C80000E94A816B5C1872D807F972D9F70803246
:101C900011F4892F03C0892F8295807FCC2021F0F9
:101CA000F1E0CF16A1F01DC0112339F0002319F186
:101CB000013009F50E9491169BC1002319F00130F3
:101CC00009F496C189830E949416898110C1112359
:101CD00021F0063008F08CC10EC0053008F088C134
:101CE00006C1112359F0002331F0F701958190FFCF
:101CF00041C19F7095830E94CF0D7AC1002309F4E2
:101D0000F6C03EC1872D86958695837090E000973A
:101D100019F0019761F06CC1112321F08C2D972DE2
:101D2000937002C080E090E00E948B0B61C1112390
:101D300021F08C2D972D937002C080E090E00E94DE
:101D4000A10B56C18C2D112319F00E94C31802C09B
:101D50000E942B190E94B0194BC1872D837009F086
:101D600052C0111145C18C2D829586958770880FC0
:101D7000880F9C2D9F70892E912CA12CB12C082EA0
:101D800004C0880C991CAA1CBB1C0A94D2F7C4FE80
:101D900014C00FE010E020E030E0B901A80104C059
:101DA000440F551F661F771F8A95D2F7CB01BA01E2
:101DB000609570958095909503C060E070E0CB01D0
:101DC000272D26952695237030E02230310569F0C5
:101DD0002330310589F0682979298A299B29213006
:101DE000310571F00E94491403C1682979298A29B3
:101DF0009B290E946514FCC00E944914C501B401CE
:101E00000E942D14F5C0112319F0872D817001C097
:101E10008695882309F4ECC08C2D82958695877071
:101E2000880F880F9C2D9F70892E912CA12CB12C8E
:101E3000082E04C0880C991CAA1CBB1C0A94D2F75B
:101E4000C4FE14C00FE010E020E030E0B901A801AA
:101E500004C0440F551F661F771F8A95D2F7CB0128
:101E6000BA01609570958095909503C060E070E030
:101E7000CB01272D269526952370422F50E0423026
:101E8000510569F04330510589F0682979298A297B
:101E90009B294130510571F00E942315A9C0682982
:101EA00079298A299B290E943F15A2C00E942315E7
:101EB000C501B4010E9407159BC08C2D90E0FC0168
:101EC000E05EF109E531F10508F050C0EA59FF4F35
:101ED0000C9464250C2D0F70872D8F71112321F028
:101EE0000E94A014802F07CF0E94C114802F0E944F
:101EF000D60D7EC0112341F0053008F079C0872D42
:101F00008F710E94E61474C0063008F071C0F7CFDC
:101F1000112339F0872D8F710E94A01469C01123FD
:101F2000C9F3872D8F710E94C11462C0112329F05B
:101F3000872D8F710E948B145BC00E94811458C042
:101F4000112351F0172D1F71812F0E94A01463E0FF
:101F5000812F0E94B4154CC081E00E94BD15023053
:101F600008F446C082E00E94BD1542C0112331F042
:101F7000002381F28C2D0E94AD0C3AC0002389F21F
:101F80008C2D0E94800D34C0472D4F706C2DC701E1
:101F90000E9487090E94A5132BC0111129C0472D4B
:101FA0004F7050E042305105B9F04CF441155105E5
:101FB00081F041305105E1F40E94BA1C19C0433050
:101FC000510569F04430510599F48C2D0E940C1D87
:101FD0000FC00E94A31C0CC00E94D61C09C00E9406
:101FE000E91C06C0472D4F706C2DC7010E948A095D
:101FF000DD20F9F00E94B01580FD1BC0F7011282B0
:102000000E94AA150E94A014C7010E9428100E94D5
:10201000AA150F90DF91CF911F910F91FF90EF9034
:10202000DF90CF90BF90AF909F908F907F900C9457
:10203000C1140F90DF91CF911F910F91FF90EF90FE
:10204000DF90CF90BF90AF909F908F907F9008953A
:102050000F931F93CF93DF93EC01888199812B819C
:102060003C81232BB9F09F3F11F48F3F99F0CE01B3
:102070000E942D06882371F0688179818A810E94EF
:10208000A6158C010E945B150E942214B801CE0196
:102090000E94DD0DDF91CF911F910F9108950E9455
:1020A0007E160E948E160E9453160E94A8160E9449
:1020B000611A0E94B01980E090E00E948B0B80E0D2
:1020C00090E00C94A10B0E946E160C944F100E948D
:1020D0009B15292F22952F7030E02C3031054CF4C0
:1020E0002A3031056CF42250310922303105A8F430
:1020F00007C02C30310569F02F30310551F00DC08B
:10210000803F69F018F4803E40F409C0843F29F410
:1021100006C093FB882780F9089580E0089581E048
:102120000895CF93DF9300D000D01F92CDB7DEB7D4
:102130000F900F900F900F900F90DF91CF91089517
:10214000CF93DF9300D000D000D0CDB7DEB7269676
:102150000FB6F894DEBF0FBECDBFDF91CF910895CB
:102160001F93CF93DF93C091790116E080917A019C
:10217000C81799F0D0E01C9FF0011D9FF00D1124AD
:10218000E558FE4F40815181628173818481958140
:102190000E94A0102196C770E9CFDF91CF911F91C7
:1021A00008954091AB015091AC016091AD017091E7
:1021B000AE018091AF019091B0010C94A01080917C
:1021C000B00182958F7009F054C08091AD018823D1
:1021D00009F44FC080917901A0917A016091AB011F
:1021E0007091AC014091AE015091AF01B6E08A17F9
:1021F00009F43FC090E041155105C1F17F3F11F452
:102200006F3FA1F1B89FF001B99FF00D1124E5587F
:10221000FE4F218172132AC02081621327C02281C0
:10222000211124C0238134812417350710F4215053
:102230003109241B350B283C3105C0F42091B00135
:102240002F7020612093B00126E0289FF001299F84
:10225000F00D1124E058FE4F80818F7080618083E3
:102260008BEA91E00E9428100C94B01001968770C0
:10227000BECF0895CF92DF92EF92FF920F931F93FC
:10228000CF93DF93CDB7DEB762970FB6F894DEBF7A
:102290000FBECDBF8C0185E0F801DE011D960190D7
:1022A0000D928A95E1F7D8014C9111965C911197A6
:1022B00012966C9112971396CD90DC9014973091F2
:1022C000AB017091AC018091AE019091AF0100978C
:1022D00009F46BC17F3F19F43F3F09F466C1E090F8
:1022E000AD01EE2009F4C0C02091B001C816D90696
:1022F00028F0F601E81BF90BCF0104C080959095FA
:102300008C0D9D1DFF24F394883C910578F0F12CF1
:10231000207F09F0C6C07C2DD98AC88A89890E948D
:1023200091108BEA91E00E942810B1C0822F807F2B
:1023300009F046C0751314C0341312C0611110C0E7
:102340002F7020612093B0010E94D1108BEA91E0A0
:102350000E9428108091B001D80115968C932EC050
:10236000CD2819F15F3F11F44F3FF9F0F62E6111BE
:102370001CC08091790120917A0136E0821709F41E
:102380005AC090E0389FF001399FF00D1124E558B4
:10239000FE4F7181571306C07081471303C07281CD
:1023A000711103C001968770E9CFF62E662309F4F8
:1023B00018C18091B00181608093B001F12C11C1EE
:1023C000751308C0341306C0611104C08091B001B8
:1023D000D801C3C04D875E878D859E856A8B0E941C
:1023E00067106A898823E1F16623D1F12091B00159
:1023F000822F82958F7090E0029774F08091AB01EC
:102400009091AC0198878F831986DB86CA862C87CA
:10241000CE0107960E94281086E0F801ABEAB1E0F1
:1024200001900D928A95E1F70E94DF100E94D11071
:10243000FF24F394D6C04D875E878D859E850E94CC
:102440009B15292F22952F7030E0223031050CF09A
:10245000BCC09F7009F0B6C0805E883008F4C1C06F
:10246000C8010E942810E4CFC816D90608F453C04A
:10247000F601E81BF90BCF01883C910508F450C028
:10248000F12C7C2DD98AC88A89890E949110EBEAA7
:10249000F1E086E0DF011D928A95E9F70E94D110F4
:1024A000A0C0751314C0341312C0611110C0809104
:1024B000B001F8018583C8010E94281086E0EBEA8C
:1024C000F1E0DF011D928A95E9F7FE2C8AC04D8765
:1024D0005E878D859E856A8B0E9467106A89882336
:1024E00009F4BECF662309F4BBCF2091B001822F3F
:1024F00082958F7090E002970CF48ECF8091AB01A3
:102500009091AC019A8389831B82DD82CC822E83D9
:10251000CE0101967FCF809590958C0D9D1DACCFFF
:10252000F62E662309F49CCF75132EC034132CC0ED
:102530002091B00120FD1FC0822F82958F70D9F0AD
:10254000D80115962C9315978F3049F08F5F982FEF
:102550009295907F822F8F70892B15968C93C8014E
:102560000E94281086E0F801ABEAB1E001900D92DC
:102570008A95E1F793CF86E0F801ABEAB1E00190EC
:102580000D928A95E1F72DC04D875E878D859E85DA
:102590000E946710811140CF8091B00181608093CB
:1025A000B001C8010E9428101CC0662309F458CF4E
:1025B0004D875E878D859E850E946710882309F46C
:1025C0004FCF2ACF811148CF0CC0243031050CF0F9
:1025D00047CF9F7009F440CFF8019581907F09F0B3
:1025E0003BCF8F2D62960FB6F894DEBF0FBECDBFE6
:1025F000DF91CF911F910F91FF90EF90DF90CF90DF
:1026000008951F93CF93DF93CDB7DEB72C970FB606
:10261000F894DEBF0FBECDBF4F83588769877A8796
:102620008B879C87CE0107960E943A11882369F018
:102630008F8198852A853B85232BF1F19F3F09F0F7
:1026400063C08F3F09F060C037C086E0FE01379657
:10265000DE01119601900D928A95E1F76F817885E0
:10266000EA85FB85309741F17F3F11F46F3F21F1FF
:1026700020917A0130E0C901019687709927409135
:10268000790150E08417950709F447C069837A837C
:10269000FD83EC8396E0929FD001939FB00D1124AF
:1026A000A558BE4FFE01319601900D929A95E1F723
:1026B00080937A010E94B01016E080917901909188
:1026C0007A018917C1F1189FC001112485589E4FC6
:1026D0000E943A11882379F1E09179011E9FF0015F
:1026E0001124E558FE4F40815181628173818481BC
:1026F00095810E94A0108091790190E001968770E9
:10270000992780937901D9CF4F81588569857A853A
:102710008B859C850E94A010CFCF0E9463101092E1
:102720007A0110927901EBEAF1E086E0DF011D9277
:102730008A95E9F7C1CF2C960FB6F894DEBF0FBE8D
:10274000CDBFDF91CF911F910895EF92FF920F932C
:102750001F93CF93DF938C01892B09F46CC0F12C6C
:10276000EE24E394E8012196F8018491843740F443
:10277000843008F051C0813081F0823019F15BC0A3
:10278000853709F444C0A8F19CE7980F903708F00A
:1027900052C08F770E94800D41C00E5F1F4FFE0117
:1027A000C49180E28C0F883048F4C7708E2D01C030
:1027B000880FCA95EAF70E94811614C08C2F0E94D8
:1027C000AD0C2DC00E5F1F4FFE01C49180E28C0F37
:1027D000883058F4C7708E2D01C0880FCA95EAF76B
:1027E0000E9487160E94A8161AC08C2F0E94800D86
:1027F00016C00E5F1F4FFE01C491CC2381F08FE9FC
:102800009FE00197F1F700C00000C150F6CF0E5FC6
:102810001F4FFE01F49003C00E94AD0C8E018F2D5E
:10282000882309F49FCFEFE9FFE03197F1F700C06B
:1028300000008150F5CFDF91CF911F910F91FF9054
:10284000EF90089508956093B5017093B601809359
:10285000B7019093B8010C944F100F931F93009100
:10286000B5011091B6012091B7013091B801DC019A
:10287000CB01802B912BA22BB32B8093B50190938E
:10288000B601A093B701B093B8011F910F910C94BA
:102890004F100F931F930091B5011091B601209135
:1028A000B7013091B801DC01CB0180239123A22331
:1028B000B3238093B5019093B601A093B701B09371
:1028C000B8011F910F910C944F100F931F9300911B
:1028D000B5011091B6012091B7013091B801DC012A
:1028E000CB0180279127A227B3278093B50190932E
:1028F000B601A093B701B093B8011F910F910C944A
:102900004F101092B1011092B2011092B3011092C7
:10291000B4010C944F1041E050E060E070E004C05E
:10292000440F551F661F771F8A95D2F74093B10158
:102930005093B2016093B3017093B4010C944F10A3
:1029400041E050E060E070E004C0440F551F661F96
:10295000771F8A95D2F78091B1019091B201A09131
:10296000B301B091B401482B592B6A2B7B2B4093B8
:10297000B1015093B2016093B3017093B4010C9410
:102980004F1041E050E060E070E004C0440F551F7C
:10299000661F771F8A95D2F7409550956095709580
:1029A0008091B1019091B201A091B301B091B401B5
:1029B000482359236A237B234093B1015093B201EA
:1029C0006093B3017093B4010C944F1041E050E058
:1029D00060E070E004C0440F551F661F771F8A95A2
:1029E000D2F78091B1019091B201A091B301B09161
:1029F000B401482759276A277B274093B101509398
:102A0000B2016093B3017093B4010C944F100F9313
:102A10001F930091B1011091B2012091B301309147
:102A2000B401DC01CB01802B912BA22BB32B809323
:102A3000B1019093B201A093B301B093B4011F917F
:102A40000F910C944F100F931F930091B1011091AF
:102A5000B2012091B3013091B401DC01CB0180239C
:102A60009123A223B3238093B1019093B201A09349
:102A7000B301B093B4011F910F910C944F100F93B9
:102A80001F930091B1011091B2012091B3013091D7
:102A9000B401DC01CB0180279127A227B3278093C3
:102AA000B1019093B201A093B301B093B4011F910F
:102AB0000F910C944F100895CF92DF92EF92FF92F6
:102AC0000F931F93CF93DF938C01C090B501D090EB
:102AD000B601E090B701F090B8018091B1019091FA
:102AE000B201A091B301B091B401C82AD92AEA2A4F
:102AF000FB2ACFE1D0E0D701C6010C2E04C0B69569
:102B0000A795979587950A94D2F780FF06C0B801DC
:102B10008C2F0E94D807019721F4219760F780E05D
:102B200001C08C2FDF91CF911F910F91FF90EF90FB
:102B3000DF90CF900895CF93DF93EC010E945C1556
:102B4000BE010E94D807DF91CF910895CB010E946A
:102B50009B1508958091B901859585958595089572
:102B60008091B9018770089598E0899F90011124A0
:102B7000262B2093B9010C94A0142091B9018095C3
:102B800082238093B901982F977069F430E0482F21
:102B9000552747FD50952417350729F085958595CC
:102BA00085950C94C11408959091B901977081E0B6
:102BB00009F480E0089590911401992321F09091F7
:102BC0000101911109C02091020130910301F90125
:102BD00032969FEF40E01FC0982F96959695969558
:102BE0009F3050F5E0910201F0910301E90FF11DD2
:102BF000877021E030E0A90102C0440F551F8A957B
:102C0000E2F7CA019181892B818308959F3F39F0B2
:102C10004F5F4E3041F051915813F8CF0DC0511114
:102C2000F7CF942FF5CF9F3F39F0F901E90FF11D50
:102C300097FDFA9582830895089590911401992340
:102C400021F090910101911109C020910201309170
:102C50000301F9013296205F3F4F1FC0982F9695D0
:102C6000969596959F30F0F4E0910201F091030162
:102C7000E90FF11D877021E030E0A90102C0440F87
:102C8000551F8A95E2F7CA01809591818923818336
:102C900008953196E217F30729F090819813F9CF40
:102CA0001082F7CF089581E090E0E0910201F09169
:102CB0000301E80FF91F1082019680319105A9F7F1
:102CC00008959091CD01892B8093CD010895809531
:102CD0009091CD0189238093CD0108951092CD016B
:102CE00008959091CC01892B8093CC010895809513
:102CF0009091CC0189238093CC0108951092CC014E
:102D000008959091CB01892B8093CB0108958095F4
:102D10009091CB0189238093CB0108951092CB0130
:102D200008958093BA0108951092BA010895809190
:102D3000020190910301FC0131969C01205F3F4FFD
:102D400080E0919191118F5FE217F307D1F7089519
:102D5000E0910201F09103018091CD018083E09127
:102D60000201F091030190818091CC01892B808335
:102D7000E0910201F091030190818091CB01892BB8
:102D800080838091BA01882361F0E0910201F09183
:102D900003019081892B80830E94971681111092E4
:102DA000BA0180910201909103010C94750B6DEEB4
:102DB0007EEF80E090E00E949D2560E082E090E060
:102DC0000E948C2560E083E090E00E948C2560E00A
:102DD00084E090E00E948C2560E085E090E00E9415
:102DE0008C2560E086E090E00C948C2580E090E0FB
:102DF0000E94862521E08D3E9E4F09F020E0822F23
:102E0000089582E090E00C947E2583E090E00C949D
:102E10007E25682F83E090E00C948C2584E090E080
:102E20000C947E25682F84E090E00C948C2586E03D
:102E300090E00C947E25682F86E090E00C948C2521
:102E40008091F801843051F11092CF0120E488E1A3
:102E500090E00FB6F894A895809360000FBE209381
:102E6000600080E00E94A90780E00E94D60783B737
:102E7000817F846083BF83B7816083BF78948895A6
:102E800083B78E7F83BF0FB6F894A89580916000BA
:102E9000886180936000109260000FBE08950895CD
:102EA0000895CF9380E00E94A9070E944F170E94C7
:102EB000C40A0E945017C0E08C2F0E945A0B892B25
:102EC00029F4CF5FC530C1F780E001C081E0CF9128
:102ED00008950E94631080E00E94A9070E94921C3E
:102EE0000E94690B0C94D6071F920F920FB60F9297
:102EF00011248F939F93AF93BF938091CF01811142
:102F000013C08091D0019091D101A091D201B091D4
:102F1000D3014196A11DB11D8093D0019093D101A1
:102F2000A093D201B093D301BF91AF919F918F91A4
:102F30000F900FBE0F901F90189582E084BD93E014
:102F400095BD9AEF97BD80936E0008952FB7F894C2
:102F50008091D0019091D101A091D201B091D30183
:102F60002FBF0895CF92DF92EF92FF920F931F939E
:102F70002FB7F8944091D0015091D1016091D201C6
:102F80007091D3012FBF6A017B01EE24FF248C01D5
:102F900020E030E0C016D106E206F30610F44150FE
:102FA00051099A01281B390BC9011F910F91FF90FC
:102FB000EF90DF90CF9008951F920F920FB60F926F
:102FC00011248F939F93AF93BF938091D0019091E1
:102FD000D101A091D201B091D3010196A11DB11DE3
:102FE0008093D0019093D101A093D201B093D301EB
:102FF000BF91AF919F918F910F900FBE0F901F9037
:1030000018950E942121F8942FEF87EA91E621502C
:1030100080409040E1F700C0000087E090EBDC01C9
:103020008093010290930202A0930302B0930402E2
:103030009CE088E10FB6F894A895809360000FBEDD
:1030400090936000FFCF0E94F616811102C00E948B
:10305000D7160E9401178093CE010E940E1790E0B0
:103060009093F2018093F10187FB882780F9809388
:1030700001010E940517682F70E080E090E00C9439
:1030800023148091D60180FF0BC06091070185E079
:10309000689FB001112475956795759567952BC04C
:1030A00081FF09C06091070185E0689FB00111248C
:1030B0007595679520C082FF07C06091070185E084
:1030C000689FB001112417C09091D7019923D1F0C6
:1030D00060910601961788F72091070185E0289FE7
:1030E00090011124929FA001939F500D112470E034
:1030F000CA010E9450256038710540F461157105C0
:1031000039F002C065E070E0862F08958FE70895DA
:1031100081E008958091D60180FF08C0609105018B
:1031200070E0759567957595679521C081FF06C01C
:103130006091050170E07595679519C082FF04C024
:103140006091050170E010C09091D7019923C1F002
:10315000609104019617A0F780910501899FC00135
:10316000112470E00E9450256038710528F4611523
:10317000710521F0862F08958FE7089581E0089565
:1031800061E070E0F4CF803F21F40E944118819506
:1031900004C0813F29F40E9441188093DA01089508
:1031A000823F21F40E944118819504C0833F29F495
:1031B0000E9441188093D9010895893F19F40E9413
:1031C0008A1805C08A3F31F40E948A18819580933D
:1031D000DB0108958B3F21F40E948A18819504C079
:1031E0008C3F29F40E948A188093DC010895843F63
:1031F00021F48091D801816017C0853F21F480912E
:10320000D801826011C0863F21F48091D80184608A
:103210000BC0873F21F48091D801886005C0883FAA
:1032200031F48091D80180618093D80108958D3F59
:1032300021F48091D60181600BC08E3F21F48091F2
:10324000D601826005C08F3F29F48091D601846049
:103250008093D6010895803F39F48091DA0187FF89
:103260006CC01092DA0169C0813F29F48091DA01C3
:103270001816BCF362C09091D901823F29F497FFE0
:103280005CC01092D90159C0833F19F41916CCF3D0
:1032900054C0893F41F48091DB0118160CF04DC0F9
:1032A0001092DB014AC08A3F29F48091DB0187FF3D
:1032B00044C0F6CF8B3F39F48091DC0187FF3DC0DD
:1032C0001092DC013AC08C3F29F48091DC01181681
:1032D000BCF333C0843F21F48091D8018E7F17C0A6
:1032E000853F21F48091D8018D7F11C0863F21F464
:1032F0008091D8018B7F0BC0873F21F48091D8014A
:10330000877F05C0883F31F48091D8018F7E8093FC
:10331000D80113C08D3F21F48091D6018E7F0BC060
:103320008E3F21F48091D6018D7F05C08F3F29F417
:103330008091D6018B7F8093D6018091D901811134
:103340000EC08091DA0181110AC08091DB018111E8
:1033500006C08091DC01811102C01092D70108954E
:1033600088ED91E00E94800B0E94A6179093D501F2
:103370008093D40108951F93CF93DF938091D4015C
:103380009091D5010E94B217AC019091D701992379
:1033900021F02091080130E006C0209109018AE067
:1033A000289F900111244217530708F486C080918A
:1033B000D901C091DA01D091DB011091DC018111BA
:1033C00007C0C11176C0D11174C0111172C075C08F
:1033D0009F3F19F09F5F9093D701181624F40E9425
:1033E00041188093D9018091D90187FF05C00E94BF
:1033F000411881958093D9011C1624F40E9441182C
:103400008093DA018091DA0187FF05C00E9441189C
:1034100081958093DA016091D901662339F1C091D9
:10342000DA01CC2319F1772767FD7095872F972F45
:103430000E94572423E333E343E35FE30E94BB246A
:103440000E941F246093D9016C2F772767FD709528
:10345000872F972F0E94572423E333E343E35FE34F
:103460000E94BB240E941F246093DA011D1624F4DD
:103470000E948A188093DB018091DB0187FF05C0E1
:103480000E948A1881958093DB01111624F40E9412
:103490008A188093DC018091DC0187FF05C00E94BF
:1034A0008A1881958093DC01DF91CF911F910C9454
:1034B000B0199F3F09F08ECF96CFDF91CF911F912A
:1034C0000895E8EDF1E085E0DF011D928A95E9F7C6
:1034D0001092D7011092D6010895833081F128F41B
:1034E000813059F08230D1F00895853009F449C017
:1034F000B8F1863009F456C0089580910901262F4D
:1035000030E0280F311D2F3F310524F4680F609300
:10351000090108958FEF80930901089580910801B2
:10352000262F30E0280F311D2F3F310524F4680F7E
:103530006093080108958FEF8093080108958091AA
:103540000701262F30E0280F311D2F3F310524F4CD
:10355000680F6093070108958FEF80930701089526
:1035600080910601262F30E0280F311D2F3F3105B5
:1035700024F4680F6093060108958FEF809306018D
:10358000089580910501262F30E0280F311D2F3F2F
:10359000310524F4680F6093050108958FEF80933F
:1035A0000501089580910401262F30E0280F311D78
:1035B0002F3F310524F4680F6093040108958FEFC5
:1035C000809304010895833011F128F4813049F08B
:1035D000823091F00895853081F120F18630C1F17B
:1035E000089580910901681720F4861B80930901D2
:1035F000089510920901089580910801681720F438
:10360000861B809308010895109208010895809107
:103610000701681720F4861B809307010895109214
:103620000701089580910601681720F4861B809396
:10363000060108951092060108958091050168170A
:1036400020F4861B809305010895109205010895CA
:1036500080910401681720F4861B8093040108956B
:103660001092040108950F931F93873208F048C009
:103670008E3108F092C0803109F47CC008F58730A3
:1036800009F466C068F4863009F0A2C08091CE01CA
:10369000817F8E7F8093CE0181E08093DE0199C08F
:1036A0008B3009F48EC08E3009F092C08091CE012B
:1036B00082FB222720F991E0922790FB82F963C0D8
:1036C000863109F47EC060F4813109F081C00E9426
:1036D00063109091010181E089278093010171C0FD
:1036E000893109F46EC08B3109F072C08091CE012E
:1036F00081FB222720F991E0922790FB81F943C0BA
:10370000883309F45EC050F4893209F45CC0853313
:1037100009F459C0873209F456C05AC0833409F4F9
:1037200052C028F48A3308F453C0895337C0883410
:1037300009F04EC00E9463100FEF13ED20E301501B
:1037400010402040E1F700C000000E94011839C07D
:103750009091CE01892F8095817080FB90F929F09E
:10376000966098609093CE0134C0997F977F909334
:10377000CE0127C08091CE0183FB222720F991E062
:10378000922790FB83F98093CE019923D1F0809109
:10379000CE0181608093CE0114C08D5141E050E094
:1037A00060E070E08A019B0104C0000F111F221F1E
:1037B000331F8A95D2F7C901B8010E9423140E94D1
:1037C000631081E006C061E070E080E090E0F5CF3A
:1037D00080E01F910F91089580E0089580E00895A2
:1037E0008E518A3030F4E82FF0E0EA5DFE4F8081A0
:1037F000089580E00895CF93C82F8091DE01813035
:1038000069F018F08230C9F183C0E0910201F091B3
:1038100003018081823209F07DC007C0E09102017E
:10382000F09103018081823261F48C2F0E94EC1BA5
:10383000811104C08C2F0E94331B1DC081E090E0D9
:103840001AC08C2F0E94EE1B811114C0C43179F074
:1038500048F4CB3079F0C03109F060C082E0809349
:10386000DE0108C0C93219F0C83321F057C01092E8
:10387000DE0154C081E0817053C0C93289F118F56E
:10388000C43171F1B0F4C73009F046C08EE18093C5
:10389000090182E3809308018AE08093070184E1B3
:1038A0008093060188E08093050188E280930401FB
:1038B00033C082EE8C0F863078F58C2F0E94F01B7F
:1038C0008093DD0129C0CE34E9F020F4CB3421F51A
:1038D0006AE013C0C13579F0C235F1F461E00DC082
:1038E0008091DD01882319F01092DD0115C081E07F
:1038F0008093DE0115C061E006C08091DD010E9469
:103900006D1A0AC06AE08091DD010E94E31A04C0CA
:103910001092DE0180E004C081E002C080E0ABCF05
:10392000CF9108950E94F616811102C00E94D71609
:103930000E9417178093F30180FF02C0869501C093
:1039400080E00C94A9078091F301982F9695292F78
:1039500030E0233031054CF49F5F990F8170892B43
:1039600081608093F3010E941B178091F30186957B
:103970000C94A9078091F301982F969591F0915896
:10398000990F8170892B8093F3018E7F91E009F468
:1039900090E08091F30190FB80F98093F3010E9405
:1039A0001B178091F30186950C94A9078091F30170
:1039B000982F909590FB80F98093F3010E941B173C
:1039C0008091F30180FF02C0869501C080E00C94D5
:1039D000A9079091F301892F86958F5F8F7791705A
:1039E000843028F4880F892B8093F30102C09093D0
:1039F000F3018091F3018E7F91E009F490E08091D2
:103A0000F30190FB80F98093F3010E941B178091D2
:103A1000F30186950C94A9072091F301922F9695B6
:103A20008927982F990F822F8170892B8093F3011A
:103A30008E7F91E009F490E08091F30190FB80F992
:103A40008093F3010E941B178091F30186950C94DB
:103A5000A9078091EF010895CF93DF9300D01F92C3
:103A6000CDB7DEB79C018091F801843019F593E061
:103A700099833B832A839093E9008FEF9091E8002C
:103A8000815095FD06C095ED9A95F1F700008111E2
:103A9000F5CF8091E80085FF0DC040E050E063E085
:103AA00070E0CE0101960E948C1F8091E8008E7715
:103AB0008093E8000F900F900F90DF91CF910895C1
:103AC000CF93DF9300D01F92CDB7DEB72091F801DE
:103AD000243021F522E029839B838A8383E080932D
:103AE000E9008FEF9091E800815095FD06C095EDBB
:103AF0009A95F1F700008111F5CF8091E80085FFDC
:103B00000DC040E050E063E070E0CE0101960E94FD
:103B10008C1F8091E8008E778093E8000F900F90C3
:103B20000F90DF91CF9108952091F8012430F1F4A6
:103B300022E02093E9002FEF3091E800215035FD7D
:103B400006C035ED3A95F1F700002111F5CF20912F
:103B5000E80025FF0BC040E050E065E070E00E9407
:103B60008C1F8091E8008E778093E8000895CF93B2
:103B7000DF93EC019091F801943009F046C08091F8
:103B800014018823D9F0809101018823B9F0909322
:103B9000E9008FEF9091E800815095FD06C095E116
:103BA0009A95F1F700008111F5CF8091E80085FF2B
:103BB0002CC040E050E060E170E017C081E08093ED
:103BC000E9008FEF9091E800815095FD06C095EDDA
:103BD0009A95F1F700008111F5CF8091E80085FFFB
:103BE00014C040E050E068E070E0CE010E948C1FFD
:103BF0008091E8008E778093E80080E1FE01AFEDD0
:103C0000B1E001900D928A95E1F7DF91CF9108958F
:103C10008091F701811109C00E9421210E947E211B
:103C20008091E20084608093E20008951092F70191
:103C30000895089508950C94691742E061EC81E0BD
:103C40000E949B2042E061EC82E00E949B2042E0C7
:103C500061EC83E00E949B2042E161EC84E00C94E3
:103C60009B208091FA01833009F455C030F48130F3
:103C700071F0823009F48EC008958A3009F47AC058
:103C80008B3009F460C0893009F09CC020C080915D
:103C9000F901813A09F096C08091E800877F80930E
:103CA000E8008091FD019091FE01892B21F460E1F3
:103CB0008FED91E003C060E080E090E070E00E9452
:103CC000D71F8091E8008B778093E800089580915A
:103CD000F901813209F076C08091FD019091FE01D9
:103CE000009719F0039709F06DC08091E800877F75
:103CF0008093E8008091E80082FD05C08091F80182
:103D00008111F8CF5FC08091F1008093EF01809125
:103D1000E8008B7753C08091F901813A09F052C0D5
:103D20008091FD019091FE01892B09F04BC080919B
:103D3000E800877F8093E8008091E80080FFFCCF57
:103D40008091140136C08091F9018132D9F58091BA
:103D5000FD019091FE01892BA9F58091E800877FF4
:103D60008093E8000E94D0208091FB018093140191
:103D70000C9463108091F901813221F58091E80063
:103D8000877F8093E8000E94D0208091FC0180937F
:103D9000F00108958091F901813AA1F48091E80041
:103DA000877F8093E8008091E80080FFFCCF8091BE
:103DB000F0018093F1008091E8008E778093E80015
:103DC0000C94D020089584B7877F84BF0FB6F894F1
:103DD000A8958091600088618093600010926000D7
:103DE0000FBE80E880936100109261000E94B80BC2
:103DF0000E9421210E947E218091E20084608093B4
:103E0000E20078940E9404240E94BA0B8AE091E0B8
:103E10000E94640B8091F801853069F40E9420179C
:103E20008091F6018823B1F30E945117882391F302
:103E30000E94761FEFCF0E94C60BECCF292F3327AD
:103E400023303105C9F064F42130310581F022308E
:103E5000310509F043C08DE690E020E639E042C02C
:103E600021323105F1F02232310541F137C082E1D2
:103E700090E02DEC39E036C099278130910541F072
:103E80008230910541F0892B49F5ECE5F9E005C058
:103E9000EEE2F9E002C0E2E0F9E0849190E09F01F7
:103EA00021C06430D8F4E62FF0E0EE0FFF1FE45C91
:103EB000FE4F2081318189E090E014C0643070F4BD
:103EC00070E0FB01EE0FFF1FEC5CFE4F20813181A3
:103ED000FB01E05DFE4F808190E004C080E090E057
:103EE00020E030E0FA0131832083089580E189BD2C
:103EF00082E189BD09B400FEFDCF8091D8008F7D9D
:103F00008093D8008091E00082608093E0008091EF
:103F1000E00081FDFCCF0895CF92DF92EF92FF92F7
:103F20000F931F93CF93DF93EC018B016A010E94E3
:103F3000EF20811133C0C114D10439F0F601808122
:103F40009181081B190BC80FD91FE12CF12C011509
:103F5000110519F18091E80085FD16C08091E800F7
:103F60008E778093E800C114D10449F0F601808176
:103F70009181E80EF91EF182E08285E00FC00E9477
:103F8000EF20882321F30AC089918093F10001502A
:103F90001109FFEFEF1AFF0ADACF80E0DF91CF912E
:103FA0001F910F91FF90EF90DF90CF900895209197
:103FB000FF01309100022617370748F0611571059F
:103FC00039F42091E8002E772093E80001C0B90170
:103FD00040E061157105A9F12091F801222309F44F
:103FE00043C0253009F442C02091E80023FD40C0C1
:103FF0002091E80022FD32C02091E80020FFE9CFA7
:104000004091F3002091F20030E0342BFC01CF010D
:104010006115710559F02830310540F48191809384
:10402000F100615071092F5F3F4FF1CF41E028301F
:10403000310509F040E02091E8002E772093E80058
:10404000C8CF4111C9CF0AC08091F801882361F01F
:10405000853061F08091E80083FD0AC08091E8001E
:1040600082FFF2CF80E0089582E0089583E0089512
:1040700081E008952091FF01309100022617370753
:1040800048F06115710539F42091E8002E772093EE
:10409000E80001C0B901FC0120E06115710591F152
:1040A0008091F801882309F440C0853009F43FC0AD
:1040B0008091E80083FD3DC08091E80082FD2FC023
:1040C0008091E80080FFE9CF2091F3008091F20019
:1040D00090E0922B6115710559F08830910540F4FC
:1040E00024912093F1003196615071090196F2CF2D
:1040F00021E0089709F020E08091E8008E77809316
:10410000E800CBCF2111CCCF0AC08091F8018823E1
:1041100061F0853061F08091E80083FD0AC08091F4
:10412000E80082FFF2CF80E0089582E0089583E006
:10413000089581E00895982F973058F59093E900FD
:10414000981739F07091EC002091ED005091F0003B
:1041500003C0242F762F50E021FF19C03091EB00CF
:104160003E7F3093EB003091ED003D7F3093ED00CA
:104170003091EB0031603093EB007093EC002093B2
:10418000ED005093F0002091EE0027FF07C09F5FE5
:10419000D3CF8F708093E90081E0089580E0089587
:1041A0008091F90187FF11C08091E80082FD05C070
:1041B0008091F8018111F8CF11C08091E8008B77D0
:1041C0000BC08091F801882349F08091E80080FFBE
:1041D000F8CF8091E8008E778093E80008952091D1
:1041E000E4003091E50095E64091EC00842F817069
:1041F00040FF22C08091E80080FD1CC08091F80142
:10420000882391F0853091F08091EB0085FD10C0FE
:104210004091E4005091E5004217530729F39A01B9
:10422000915011F784E0089582E0089583E00895A5
:1042300081E0089580E008954091E80042FFDECFDC
:1042400008950E948F210E949721E0EEF0E0808186
:1042500081608083E8EDF0E080818F77808319BCF6
:10426000A7EDB0E08C918E7F8C9380818F7E8083D0
:104270001092F70108950F931F93CF93DF930E943D
:104280008F210E949721C8EDD0E088818F778883A5
:1042900088818068888388818F7D888319BC10928B
:1042A000F8011092F4011092F6011092F50100EE5F
:1042B00010E0F80180818B7F808388818160888312
:1042C00042E060E080E00E949B20E1EEF0E080812F
:1042D0008E7F8083E2EEF0E0808181608083808148
:1042E00088608083F80180818E7F808388818061EF
:1042F0008883DF91CF911F910F910895E8EDF0E051
:1043000080818F7E8083E7EDF0E080818160808313
:1043100084E082BF81E08093F7010C943B21E8EDBB
:10432000F0E080818E7F80831092E20008951092E9
:10433000DA001092E10008951F920F920FB60F92CB
:1043400011242F933F934F935F936F937F938F939A
:104350009F93AF93BF93EF93FF938091E10082FF10
:104360000BC08091E20082FF07C08091E1008B7F4B
:104370008093E1000E9403248091DA0080FF1FC037
:104380008091D80080FF1BC08091DA008E7F8093DF
:10439000DA008091D90080FF0DC080E189BD82E103
:1043A00089BD09B400FEFDCF81E08093F8010E9431
:1043B000081E05C019BC1092F8010E94161E8091BB
:1043C000E10080FF19C08091E20080FF15C080915C
:1043D000E2008E7F8093E2008091E2008061809312
:1043E000E2008091D80080628093D80019BC85E0FB
:1043F0008093F8010E941A1E8091E10084FF30C072
:104400008091E20084FF2CC080E189BD82E189BDFA
:1044100009B400FEFDCF8091D8008F7D8093D80035
:104420008091E1008F7E8093E1008091E2008F7E99
:104430008093E2008091E20081608093E2008091AD
:10444000F401882311F084E007C08091E30087FD28
:1044500002C081E001C083E08093F8010E941B1E2E
:104460008091E10083FF29C08091E20083FF25C095
:104470008091E100877F8093E10082E08093F801E2
:104480001092F4018091E1008E7F8093E100809191
:10449000E2008E7F8093E2008091E2008061809351
:1044A000E20042E060E080E00E949B208091F0000A
:1044B00088608093F0000E94191EFF91EF91BF91D8
:1044C000AF919F918F917F916F915F914F913F91AC
:1044D0002F910F900FBE0F901F9018951F920F9263
:1044E0000FB60F9211242F933F934F935F936F93C7
:1044F0007F938F939F93AF93BF93CF93DF93EF936C
:10450000FF93C091E900CF708091EC00D82FD1705B
:1045100080FDD0E81092E9008091F000877F8093C1
:10452000F00078940E94B2221092E9008091F0008D
:1045300088608093F000CD2BCF70C093E900FF918D
:10454000EF91DF91CF91BF91AF919F918F917F912B
:104550006F915F914F913F912F910F900FBE0F90F0
:104560001F9018951F93CF93DF93CDB7DEB7AA970F
:104570000FB6F894DEBF0FBECDBFE9EFF1E088E0E3
:104580008E0F9091F10091938E13FBCF0E94311EFC
:104590008091E80083FF1FC18091F9019091FA0199
:1045A000492F50E04A30510508F015C1FA01E5588D
:1045B000FF4F0C946425803881F0823809F00BC1DC
:1045C0008091FD018F708093E9008091EB0085FB65
:1045D000882780F91092E90006C08091F50190913A
:1045E000F601911182609091E800977F9093E80026
:1045F0008093F1001092F100C8C0282F2D7F09F0A0
:10460000EAC0882319F0823061F0E5C08091FB0197
:10461000813009F0E0C0933009F080E08093F6012A
:104620002BC08091FB01811127C08091FD018F700B
:1046300009F4D1C08093E9002091EB0020FF1CC059
:10464000933021F48091EB00806214C09091EB00D4
:1046500090619093EB0021E030E0A90102C0440F8B
:10466000551F8A95E2F74093EA001092EA00809184
:10467000EB0088608093EB001092E9008091E800E5
:10468000877F86C08111A7C01091FB011F778091A1
:10469000E3008078812B8093E3008091E800877F9E
:1046A0008093E8000E94D0208091E80080FFFCCF3A
:1046B0008091E30080688093E300111102C082E0E2
:1046C00001C083E08093F80186C08058823008F0F2
:1046D00082C08091FB019091FC018C3D53E09507D5
:1046E00079F583E08A838AE289834FB7F894DE0103
:1046F000139620E03EE051E2E32FF0E050935700A4
:10470000E49120FF03C0E295EF703F5FEF708E2FC2
:1047100090E0EA3010F0C79601C0C0968D939D934B
:104720002F5F243149F74FBF8091E800877F809346
:10473000E8006AE270E0CE0101960E94D71F14C023
:10474000AE014F5F5F4F6091FD010E941E1FBC01D3
:10475000892B09F440C09091E800977F9093E8007E
:1047600089819A810E943A208091E8008B7780931A
:10477000E80031C0803879F58091E800877F809328
:10478000E8008091F4018093F1008091E8008E7739
:104790008093E8000E94D0201EC081111CC090911F
:1047A000FB019230C0F48091E800877F8093E8009D
:1047B0009093F4010E94D0208091F401811106C0F1
:1047C0008091E30087FD02C081E001C084E0809316
:1047D000F8010E941D1E8091E80083FF0AC08091AD
:1047E000E800877F8093E8008091EB0080628093EF
:1047F000EB00AA960FB6F894DEBF0FBECDBFDF91D7
:10480000CF911F9108950895CF938091F801882347
:10481000A1F0C091E900CF709091EC00892F8170D8
:1048200090FD80E8C82B1092E9008091E80083FD9C
:104830000E94B222CF70C093E900CF9108950E94E8
:1048400026246894B1110C94B52408950E949A24EA
:1048500088F09F5798F0B92F9927B751B0F0E1F041
:10486000660F771F881F991F1AF0BA95C9F714C0F1
:10487000B13091F00E94B424B1E008950C94B424B6
:10488000672F782F8827B85F39F0B93FCCF386952A
:1048900077956795B395D9F73EF490958095709587
:1048A00061957F4F8F4F9F4F0895E89409C097FB04
:1048B0003EF490958095709561957F4F8F4F9F4FF7
:1048C0009923A9F0F92F96E9BB279395F69587953B
:1048D00077956795B795F111F8CFFAF4BB0F11F4FE
:1048E00060FF1BC06F5F7F4F8F4F9F4F16C08823A5
:1048F00011F096E911C0772321F09EE8872F762FDB
:1049000005C0662371F096E8862F70E060E02AF01B
:104910009A95660F771F881FDAF7880F9695879507
:1049200097F9089557FD9058440F551F59F05F3F70
:1049300071F04795880F97FB991F61F09F3F79F0C1
:1049400087950895121613061406551FF2CF469543
:10495000F1DF08C0161617061806991FF1CF8695C5
:104960007105610508940895E894BB2766277727A9
:10497000CB0197F908950E94CE240C943F250E9404
:10498000312538F00E94382520F0952311F00C9441
:1049900028250C942E2511240C94B5240E949224D1
:1049A00070F3959FC1F3950F50E0551F629FF00182
:1049B000729FBB27F00DB11D639FAA27F00DB11D9B
:1049C000AA1F649F6627B00DA11D661F829F222724
:1049D000B00DA11D621F739FB00DA11D621F839FAB
:1049E000A00D611D221F749F3327A00D611D231F81
:1049F000849F600D211D822F762F6A2F11249F57CF
:104A000050409AF0F1F088234AF0EE0FFF1FBB1FD1
:104A1000661F771F881F91505040A9F79E3F510590
:104A200080F00C9428250C94B5245F3FE4F3983E65
:104A3000D4F3869577956795B795F795E7959F5F3A
:104A4000C1F7FE2B880F911D9695879597F90895CC
:104A500097F99F6780E870E060E008959FEF80EC31
:104A6000089500240A9416161706180609060895D4
:104A700000240A9412161306140605060895092E3A
:104A80000394000C11F4882352F0BB0F40F4BF2BA9
:104A900011F460FF04C06F5F7F4F8F4F9F4F0895E9
:104AA00097FB072E16F4009407D077FD09D00E94DB
:104AB0006A2507FC05D03EF4909581959F4F089597
:104AC000709561957F4F0895EE0FFF1F0590F4914B
:104AD000E02D0994AA1BBB1B51E107C0AA1FBB1FF5
:104AE000A617B70710F0A61BB70B881F991F5A957A
:104AF000A9F780959095BC01CD010895F999FECF55
:104B000092BD81BDF89A992780B50895A8E1B0E0DB
:104B100042E050E00C94A525262FF999FECF92BDD6
:104B200081BDF89A019700B4021631F020BD0FB68E
:104B3000F894FA9AF99A0FBE08950196272F0E94C9
:104B40008D250C948C25DC01CB01FC01F999FECF5D
:104B500006C0F2BDE1BDF89A319600B40D92415005
:0A4B60005040B8F70895F894FFCF15
:104B6A000501BB012808140A321E291DB71D941D10
:104B7A00601D2C1D01F1F03067F4F5F6F7949634B8
:104B8A009792953536930102030405060708090032
:104B9A00404D36399B0A4E0A180ADF0972098B09F9
:044BAA00A409BD0994
:00000001FF
