:100000000C94AF050C94F6050C94F6050C94F605CB
:100010000C94F6050C94F6050C94F6050C94F60574
:100020000C94F6050C94F6050C94A12A0C94732BF1
:100030000C947E200C94F6050C94F6050C94F605B1
:100040000C94F6050C94F6050C94F6050C94F60544
:100050000C94F6050C94E6200C94F6050C94F60529
:100060000C94F6050C94F6050C94F6050C94F60524
:100070000C94F6050C94F6050C94F6050C94F60514
:100080000C94BA0E0C94F6050C94F6050C94F60537
:100090000C94F6050C94F6050C94F6050C94F605F4
:1000A0000C94F6050C94F6050C94F6051017101731
:1000B0003F173F177E179E17F418F418A917F41866
:1000C00059185918C018C918F418EE186618661887
:1000D0006618661866186618661866186618661830
:1000E00066186618661866186618661876188418F2
:1000F0008B1892189C18E02B022CF02C022CF02C60
:10010000472C6A2CF02CBF2CD22C07634236B79BAD
:10011000D8A71A39685618AEBAAB558C1D3CB7CC67
:100120005763BD6DEDFD753EF6177231BF000000DF
:10013000803F08000000BE922449123EABAAAA2AC2
:10014000BECDCCCC4C3E00000080BEABAAAAAA3EDD
:1001500000000000BF000000803F00000000000819
:100160004178D3BB4387D1133D190E3CC3BD4282B6
:10017000AD2B3E68EC8276BED98FE1A93E4C80EF74
:10018000FFBE01C4FF7F3F000000000029001E00E9
:100190001F0020002100220023002400250026004B
:1001A000270035002B0014001A0008001500170066
:1001B0001C0018000C00120013002A00E0000400CC
:1001C0001600070009000A000B000D000E000F00CA
:1001D00033002800E1001D001B0006001900050087
:1001E000110010003600370038003400427029003A
:1001F000E200E30040702C002C00417050005100E0
:1002000052004F0035001E001F0020002100220078
:10021000230024002500260027002A002B001400BC
:100220001A00090013000A000D000F0018001C003E
:1002300033004C00290004001500160017000700C9
:100240000B00110008000C0012003400E1001D003A
:100250001B000600190005000E00100036003700D4
:10026000380028004270E000E200E30040702C00FB
:100270002C0041705000510052004F0035001E000C
:100280001F0020002100220023002400250026005A
:1002900027002A002B0034003600370013001C0012
:1002A00009000A00060015000F004C002900040098
:1002B0001200080018000C0007000B0017001100C6
:1002C00016003800E100330014000D000E001B0082
:1002D000050010001A0019001D0028004270E000FF
:1002E000E200E30040702C002C00417050005100EF
:1002F00052004F0035021E021F022002210222027C
:1003000023022402250226022702350235021E029C
:100310001F022002210222022302240225022F00B2
:1003200030004C004C003A003B003C003D003E00D9
:100330003F002D022E022F02300231020100400048
:1003400041004200430044004500320264020100C3
:100350000100010001000100010001000100010095
:10036000010001004A004E004B004D0035001E0008
:100370001F00200021002200230024002500260069
:100380002700460035001E001F002000210022002B
:1003900023002400F400F000F500FD004C003A00BA
:1003A0003B003C003D003E003F002D00F200F1000C
:1003B000F300FE0001004000410042004300440001
:1003C0004500320064002E000100FF000100010022
:1003D000010001000100010001000100AB00AA00C2
:1003E000A900AE00000000000000000000000000B6
:1003F00000000000000000000000000000000000FD
:1004000000000000000000000000000000000000EC
:1004100000000000000000000000000000000000DC
:1004200000000000000000000000000000000000CC
:100900000000000000000000000000003A003B0072
:100910003C003D003E003F004000410042004300DB
:1009200044004500010000700100010001000100C9
:10093000010001000100010001004C000100010064
:1009400001001570167013700A703D703E703F7094
:100950000100010001001C701B70187019701D70DF
:100960001E700100010001000100010001000100F2
:10097000010001000100010001000100010001006F
:10098000010001002A0354006800650020005000A7
:10099000720065006F006E006900630020004B006C
:1009A0006500790062006F00610072006400000061
:1009B0002C034F007200740068006F006C00690027
:1009C0006E0065006100720020004B006500790038
:1009D00062006F0061007200640073000000040395
:1009E000090409026D00040100A0FA0904000001D5
:1009F00003010100092111010001224000070581C6
:100A00000308000A09040100010301020009211181
:100A1000010001224D000705820308000A090402B3
:100A20000001030000000921110100012236000726
:100A300005830308000A09040300010300000009FC
:100A40002111010001223900070584031000011261
:100A500001100100000008EDFE61600100010200CC
:100A60000105010906A101050719E029E71500257F
:100A7000019508750181020508190129059505757B
:100A80000191029501750391010507190029771558
:100A9000002501957875018102C005010980A10139
:100AA000850216810026B7001A81002AB70075104A
:100AB00095018100C0050C0901A101850316010003
:100AC000269C021A01002A9C02751095018100C023
:100AD00005010902A1010901A10005091901290562
:100AE00015002501950575018102950175038101A8
:100AF0000501093009311581257F950275088106A8
:100B000009381581257F950175088106050C0A387D
:100B1000021581257F950175088106C0C005010970
:100B200006A101050719E029E715002501950875BB
:100B300001810295017508810105081901290595B2
:100B400005750191029501750391010507190029A9
:100B5000FF150026FF00950675088100C0001124CE
:100B60001FBECFEFDAE0DEBFCDBF04B603FE27C065
:100B700080912E0490912F04A0913004B091310403
:100B80008730904BA740B04BD1F410922E041092B6
:100B90002F04109230041092310414BE84B7877F62
:100BA00084BF0FB6F894A895809160008861809307
:100BB0006000109260000FBEE0E0F8E3099512E0DB
:100BC000A0E0B1E0E0E4F3E602C005900D92AA3C9B
:100BD000B107D9F714E0AAECB2E001C01D92AE3221
:100BE000B107E1F70E94E8270C949E310C940000B5
:100BF0006E9A769A0C949906CF93DF93EC010E943B
:100C00000A20BE0180E090E0DF91CF910C941F1D7F
:100C10000F931F93CF93FB018F3320E79207B9F116
:100C200040F48D3320E7920771F08E339047E1F066
:100C300062C0813420E79207E9F1C8F1823490471D
:100C400009F44CC058C0C281CC2309F455C000E05F
:100C500010E0980140E064E070E088EC91E00E94D0
:100C6000381281E090E010C0C281CC2309F444C066
:100C700000E010E0980140E066E070E088E591E077
:100C80000E94381282E090E00E94FC052FC0C281D1
:100C9000CC2391F100E010E0980140E068E070E0C2
:100CA00088E891E00E94381284E090E0EDCFC281A4
:100CB00083E002C0C28184E0CC2341F00E949C1DED
:100CC00040E164E083E00E94C90610C00E94BD1D9F
:100CD00040E164E083E00E94C9060EC0C28185EE57
:100CE000CC2331F00E94A9150E94EE25C0E004C07B
:100CF0000E947C1601C0C1E08C2FCF911F910F91F3
:100D000008950F931F932FEF89EF90E021508040BB
:100D10009040E1F700C0000000E010E0980140E0E2
:100D200064E070E088EE91E00E9438121F910F910C
:100D300008950C9481060F931F9300E010E0980132
:100D400040E063E070E080E491E00E9438122FEF11
:100D500082E597E0215080409040E1F700C000001C
:100D60001F910F910C94ED0D0F931F9300E010E075
:100D7000980140E068E070E080E091E00E94381265
:100D80001F910F9108950C94B40681E008950C947E
:100D90000806CF92DF92EF92FF920F931F9301E02C
:100DA00010E020E030E06801790104C0CC0CDD1CCB
:100DB000EE1CFF1C8A95D2F704C0000F111F221FE2
:100DC000331F6A95D2F70C291D292E293F29C0907F
:100DD000D203D090D303E090D403F090D503C02287
:100DE000D122E222F322842FC016D106E206F306B6
:100DF00041F41F910F91FF90EF90DF90CF900C94F2
:100E00009C1D1F910F91FF90EF90DF90CF900C945D
:100E1000BD1D0E94850D0C94420B279A2F988FEFD1
:100E20009FEF90938700809386008AE080938000F4
:100E300089E1809381000C9497250E940D070C9402
:100E4000F805282F2F9880918000211108C0877FF6
:100E50008093800010928D0010928C00089588601D
:100E600080938000233019F48FEF9FEF0FC083E051
:100E700090E0821B9109880F991F2FEF3FEFA90186
:100E800002C0569547958A95E2F7CA0190938D0066
:100E900080938C00089508950C944B070C944C0794
:100EA0000E945F190E94ED0D0E949B062FEF84E3C4
:100EB0009CE0215080409040E1F700C000000C947D
:100EC0000B210F931F93CF93DF938C01FC01C08103
:100ED000D181CE010E94581EBE010E94410AEC0140
:100EE000B8010E94C706882309F412C1B801CE01D7
:100EF0000E94240C882309F40BC1B801CE010E9482
:100F0000D10A882309F404C1C431F0E7DF0708F0EF
:100F1000CDC0C23080E7D80708F4A3C0F8018281B1
:100F2000882309F4AAC00E94F71F811102C00E9401
:100F3000D31F0E940F2090E090931F0480931E0403
:100F4000C230F0E7DF0721F480911E04816082C087
:100F5000C33080E7D80721F480911E0482607AC0F4
:100F6000C430E0E7DE0721F480911E04846072C083
:100F7000C530F0E7DF0719F480911E0427C0C630A2
:100F800080E7D80721F480911E04806163C0C730D8
:100F9000E0E7DE0721F480911E0480625BC0C83068
:100FA000F0E7DF0721F480911E04806453C0C9304C
:100FB00080E7D80721F480911E0480684BC0CA30B6
:100FC000E0E7DE0729F480911E048460886042C057
:100FD000CB30F0E7DF0721F480911E048E7F3AC00A
:100FE000CC3080E7D80721F480911E048D7F32C079
:100FF000CD30E0E7DE0721F480911E048B7F2AC00C
:10100000CE30F0E7DF0719F480911E0422C0CF3004
:1010100080E7D80721F480911E048F7E1BC0C03169
:10102000E0E7DE0721F480911E048F7D13C0C131FB
:10103000F0E7DF0721F480911E048F7B0BC0C231E3
:10104000D04721F480911E048F7704C080911E0444
:101050008B7F877F80931E0480911E040E94132043
:1010600057C0C115E0E7DE0779F0C130D047A1F0E5
:1010700081E08093CA028093CB02C801DF91CF91B7
:101080001F910F910C94C506F8018281882309F401
:101090003FC00E9450073CC0F80182818823C1F103
:1010A0008091EF0381608093EF0332C0CB3380E700
:1010B000D807A1F4F8018281882321F01092CA0296
:1010C00082E016C08091CA02811106C086E20E94A9
:1010D000A91586E20E947C1682E018C0CC33D04766
:1010E00039F6F8018281882331F01092CB0280E238
:1010F0000E94CB160DC08091CB02811106C087E201
:101100000E94A91587E20E947C1680E20E94D216F6
:1011100080E0DF91CF911F910F9108952CE0729F95
:10112000F00111243CE3839FE00DF11D1124E60F33
:10113000F11DEE0FFF1FE457FE4F859194910E9421
:10114000530A811540E5940708F047C0811520E453
:10115000920708F01BC1883E910520F5803E91055D
:1011600008F08AC1883A910578F4853A910508F02B
:10117000A5C08130910509F47FC108F436C18430DF
:10118000910508F079C131C18D3B910508F4A1C0EA
:10119000803C910508F429C1FC01EE0FFF1FEC5FB4
:1011A000F74FEEC0811530E2930758F4811541E006
:1011B000940708F061C1803F910508F416C190655D
:1011C0000895811520E3920708F0DDC0FC01FF704F
:1011D000EE0FFF1FEC57F64FD3C0811535E593078F
:1011E00008F043C0811544E5940708F0E6C0811576
:1011F00022E5920708F5811531E5930708F0C9C08B
:10120000482F437021E030E002C0220F331F4A957F
:10121000E2F73C68AC0164E0569547956A95E1F7C2
:101220004370342B8F708695869540E2849FC00171
:101230001124822B932B0895282F26952695AC01F7
:10124000437055278115934508F0A8C080E2289F78
:101250009001112481E090E002C0880F991F4A9507
:10126000E2F7822B932B9C6808958F3240E7940716
:1012700090F48F3120E7920708F0AAC0811536E577
:10128000930708F49FC09C0130562115304108F0A7
:10129000ACC09F709BC0803320E7920709F49FC0C9
:1012A00008F49AC0813340E7940709F49BC0823365
:1012B000904709F09AC080E093ED0895853A910532
:1012C00009F496C0863A910509F095C082E890E449
:1012D0000895883A910509F491C0893A910509F475
:1012E00090C08A3A910509F48FC08B3A910509F4B0
:1012F0008EC08C3A910509F48DC08B3B910509F4A1
:101300008CC08C3B910509F48BC08D3A910509F492
:101310008AC0803B910509F489C08E3A910509F491
:1013200088C08F3A910509F487C0813B910509F483
:1013300086C0823B910509F485C0833B910509F481
:1013400084C0843B910509F483C0853B910509F471
:1013500082C0863B910509F481C0873B910509F461
:1013600080C0883B910509F47FC0893B910509F451
:101370007EC08A3B910509F47DC080E094E4089525
:101380008591949108959927906C08959F70906A23
:101390000895982F8827816F906A089590E2299F79
:1013A0009001112481E090E002C0880F991F4A95B6
:1013B000E2F7822B932B9A680895982F8827846FE1
:1013C000906A08958F719927982F882790620895C1
:1013D0008F519047946D089580E091ED089580E0DD
:1013E00090ED089580E092ED089580E090E00895FA
:1013F00081E890E4089583E890E4089582EE94E40F
:10140000089589EE94E408958AEE94E4089585EBB6
:1014100094E4089586EB94E4089583EB94E40895AE
:1014200084EB94E4089587EB94E408958CEC94E4C1
:1014300008958DEC94E4089583E895E408958AE88E
:1014400095E4089582E995E4089584E995E4089582
:1014500081E296E4089583E296E4089584E296E4B6
:10146000089585E296E4089586E296E4089587E279
:1014700096E408958AE296E4089580E090E0089565
:1014800008959CE0799FF00111249CE3899FE00D71
:10149000F11D1124E60FF11DEE0FFF1FE457FE4F63
:1014A0008591949108958238910549F1B0F4813382
:1014B000910509F458C048F48932910509F44EC0E9
:1014C0008A32910509F454C008958533910509F4D1
:1014D00040C08933910599F00895833E910529F123
:1014E00038F4803E910591F0823E9105A1F0089577
:1014F000863E9105F9F0873E910531F108952091DE
:101500001E0420FD3AC021FD38C0089580911E04BC
:1015100080FD35C032C080911E0482FF32C08091B0
:101520001E0484FD30C083EE39C080911E0482FD0C
:1015300028C0F5CF80911E0483FF27C080911E0430
:1015400084FD21C087EE2AC080911E0483FD1DC04A
:10155000F5CF80911E0485FD1AC01BC080911E042A
:1015600085FD17C014C080911E0486FD14C015C0EF
:1015700080911E0486FD11C00EC080EE0FC089E36D
:101580000DC082EE0BC080E009C086EE07C089E284
:1015900005C085E303C08AE201C081E390E00895BD
:1015A00008950F931F93CF93FB012281211102C055
:1015B000C1E041C08C01C091D902C11125C0843164
:1015C0009047B1F70E94D00A81E08093D9020E942F
:1015D000B0209093D8028093D7021092CC02109240
:1015E000CE021092CD021092D0021092CF02109231
:1015F000D2021092D1021092D4021092D302109211
:10160000D6021092D50217C08091D7029091D802CD
:101610000E94BC20883C910558F69091CC02E92F9D
:10162000F0E0EE0FFF1FE353FD4F118300839F5F38
:101630009093CC02C0E08C2FCF911F910F91089511
:10164000A6E5B2E041E050E08D91E82FF0E094E0B3
:10165000F595E7959A95E1F721A18F70BA0102C03F
:10166000660F771F8A95E2F7CB01962F909592230C
:1016700091A392A1892B82A372E0AB35B70721F722
:10168000089508950C94410B85B7806885BF85B790
:10169000806885BF0E94200BAAE4B2E041E050E0E0
:1016A0008D91E82FF0E094E0F595E7959A95E1F7B4
:1016B00021A18F70BA0102C0660F771F8A95E2F7E9
:1016C000CB01962F9095922391A392A1892B82A36F
:1016D00072E0A635B70721F7E4EEF2E0AAEDB2E03A
:1016E000119211921D921D9282E0EE3EF807C1F711
:1016F0000C941D07AF92BF92CF92DF92EF92FF92B0
:101700000F931F93CF93DF930AED12E07801C6E5A4
:10171000D2E0CC24C394D12C35E0A32EBC2EBA0C3D
:101720008991E82FF0E094E0F595E7959A95E1F737
:1017300021A18F70A60102C0440F551F8A95E2F7C0
:10174000CA01922F982B91A392A18095892382A3FD
:1017500050EA5A95F1F7EAE4F2E020E030E040E0A8
:1017600050E06191A62FB0E084E0B595A7958A95E9
:10177000E1F790968C9190E06F7002C095958795F7
:101780006A95E2F780FD08C0C601042E02C0880FEA
:10179000991F0A94E2F702C080E090E0282B392BD1
:1017A0004F5F5F4F4C305105E1F6D7018D919D9110
:1017B0007D018217930731F0FD0132973183208339
:1017C000A09208020E94200BBC12AACF80910802AE
:1017D0008823C1F0815080930802882339F0EFE913
:1017E000FFE03197F1F700C000000CC0E4EEF2E03A
:1017F000D8018D919D918D0181939193B2E0043E2A
:101800001B07B1F70E94090781E0DF91CF911F917B
:101810000F91FF90EF90DF90CF90BF90AF90089521
:10182000E82FF0E0EE0FFF1FEC51FD4F808191811A
:1018300008950895109234030C94ED0D81E0809387
:1018400034030C94C30608958F929F92AF92BF9277
:10185000EF92FF920F931F93CF93DF93CDB7DEB735
:10186000A3970FB6F894DEBF0FBECDBF7C018B01EE
:10187000853120E7920741F4FB018281882309F436
:1018800058C00E94CF120BC08631F0E79F0749F481
:10189000FB018281882309F44CC00E94D81280E0A9
:1018A00023C18731F0E79F0751F4FB018281882330
:1018B00009F43FC00E94CB128111EFCFE2CF8831F3
:1018C000F0E79F0739F4FB018281882391F10E94A0
:1018D0001E0CE5CF8931F0E79F0739F4FB018281C7
:1018E000882339F10E941A0CDACF8A31F0E79F077A
:1018F00049F4FB0182818823E1F080913403811156
:10190000F1CFE5CF8B31F0E79F0739F4FB018281FE
:10191000882379F00E94DF1209C08C31904749F486
:10192000FB018281882329F00E94EA120E94B406FA
:10193000B6CF80913403882309F4D5C0F0EEEF16BA
:10194000F10479F4F8018281882309F452C00E94DD
:10195000ED0D81E080933303109232031092F10277
:101960009ECFF2EEEF16F10461F4F8018281882334
:1019700009F43FC00E94ED0D109233031092320320
:101980008ECFF3EEEF16F10491F4F80182818823F3
:1019900081F10E94ED0D1092330381E080933203B8
:1019A0001092F0021092EF021092EE0278CFF2E560
:1019B000EF16F10459F4F8018281882309F494C0E8
:1019C0008091090290910A020A970EC0F1E5EF1684
:1019D000F10479F4F8018281882309F485C08091AB
:1019E000090290910A020A9690930A0280930902D2
:1019F00056CF40910D0283E2E7E2F2E0DE0111965C
:101A000001900D928A95E1F7F801808121E030E0A4
:101A10002C0F3D1F280F311DC90120910B02309161
:101A20000C02FC01E20FF31F6081772767FD7095C0
:101A3000640F711D882777FD8095982F0E94402E96
:101A400020E030E040E451E40E94962D4B015C011F
:101A5000F801218185E090E0821B9109BC01882773
:101A600077FD8095982F0E94402E9B01AC01C50107
:101A7000B4010E94252D9B01AC0160E070E080E084
:101A800090E40E94C42F20E030E04CED50E40E942E
:101A9000572F4B015C01F80182818823D1F04FE080
:101AA00050E0C501B4010E94D8118091330388230E
:101AB000A1F08091F10224E0829FF0011124EE5008
:101AC000FD4F80829182A282B3828F5F8093F10268
:101AD00004C0C501B4010E94200E81E03FEFE3166F
:101AE000F10410F4DCCE81E0A3960FB6F894DEBFCB
:101AF0000FBECDBFDF91CF911F910F91FF90EF905F
:101B0000BF90AF909F908F9008958091320388236B
:101B100009F448C08091EE029091EF02009779F4A9
:101B20000E94B0209093EF028093EE028091F00229
:101B300090E0009771F48091F10290E00AC00E9459
:101B4000BC202091090230910A022817390740F37E
:101B500008950197880F991F880F991FFC01EE5077
:101B6000FD4F60817181828193810E94200EE091FE
:101B7000F00284E0E89FF0011124EE50FD4F6081F7
:101B80007181828193814FE050E00E94D811809151
:101B9000F00290E001966091F10270E00E944F31F6
:101BA0008093F00208950E94F71F811102C00E94E5
:101BB000D31F0E942120809316043E9A80917100C9
:101BC0008D7F8093710082E0809390008AE1809302
:101BD000910081E08093370308958091370381114C
:101BE00002C00E94D30D1092870310928603809149
:101BF00071008D7F80937100809190008F7380932E
:101C000090001092490310924803109280031092A2
:101C10008103109282031092830310927F0310922B
:101C20007E03EEE5F3E0AEE4B3E01192119211927F
:101C300011921D921D9283E0EE37F807B1F70895D7
:101C4000CF92DF92EF92FF920F931F93CF93DF9388
:101C500020914803222309F484C06B017C01809108
:101C60003703811102C00E94D30D0EE713E0C7E0D5
:101C7000D0E0A7019601F801929182917291629150
:101C80008F010E94912D811131C0FE01EE0FFF1FC7
:101C9000EE0FFF1FE25AFC4F108211821282138254
:101CA000DE01AA0FBB1FA25BBC4F11961C921E92B5
:101CB000C730D105E9F0219644815581668177814D
:101CC0004083518362837383148215821682178244
:101CD00012968D919C91139711969C938E931396C7
:101CE0001C921E92129734961296E2CF219708F614
:101CF0008091860390918703019797FD05C090938B
:101D000087038093860304C0109287031092860392
:101D100080918603909187032091840330918503FD
:101D20002817390724F01092850310928403892B19
:101D3000C1F4809171008D7F80937100809190003B
:101D40008F73809390001092800310928103109201
:101D500082031092830310927F0310927E031092ED
:101D60004803DF91CF911F910F91FF90EF90DF908B
:101D7000CF9008951F920F920FB60F9211244F9299
:101D80005F926F927F928F929F92AF92BF92CF920B
:101D9000DF92EF92FF922F933F934F935F936F9356
:101DA0007F938F939F93AF93BF93CF93DF93EF93E3
:101DB000FF9380914803882309F49BC1C091860357
:101DC000D09187031C161D060CF093C14090380378
:101DD0005090390360903A0370903B0320E030E06C
:101DE000A901C301B2010E94522F18160CF065C060
:101DF000C130D10509F452C08091840390918503CC
:101E0000BE010E944F317C0190938503809384032F
:101E100080904A0390904B03A0904C03B0904D03E8
:101E200020E030E040E85FE3C501B4010E94252DC9
:101E300060934A0370934B0380934C0390934D033C
:101E4000F701EE0FFF1FEE0FFF1FE25AFC4FA30139
:101E5000920160817181828193810E94962D20E0A0
:101E600030E040E05EE30E94572F9B01AC01C501CA
:101E7000B4010E94522F18168CF4C7010196BE01BE
:101E80000E944F31909385038093840310924A03FC
:101E900010924B0310924C0310924D03E091840377
:101EA000F0918503EE0FFF1FEE0FFF1FE25AFC4F6C
:101EB0006081718182819381D0C0C0908003D09075
:101EC0008103E0908203F090830320E030E0A901D9
:101ED000C701B6010E94912D2197882309F4A2C061
:101EE000FE01EE0FFF1FEE0FFF1FE25AFC4F808036
:101EF0009180A280B380A5019401C701B6010E9420
:101F0000912D87FF31C0A501940160E070E08CED58
:101F100093EC0E94962D20E030E040E451E40E94D2
:101F2000962D20E030E040E05FE30E94572F9B01B8
:101F3000AC0160E070E080E090E40E94C42F9B015F
:101F4000AC01C501B4010E94572F9B01AC01C70130
:101F5000B6010E94912D87FF07C0A701960160E09E
:101F600070E08CED93E439C0A5019401C701B6017E
:101F70000E94522F18160CF055C0A501940160E084
:101F800070E08CED93E40E94962D20E030E040E478
:101F900051E40E94962D20E030E040E05FE30E9493
:101FA000572F9B01AC0160E070E080E090E40E945C
:101FB000C42F9B01AC01C501B4010E94572F9B01A6
:101FC000AC01C701B6010E94522F18165CF5A7019B
:101FD000960160E070E08CED93EC0E94962D20E07D
:101FE00030E040E451E40E94962D20E030E040E0F3
:101FF0005FE30E94572F9B01AC0160E070E080E03E
:1020000090E40E94C42F9B01AC01C701B6010E945D
:10201000572F609380037093810380938203909382
:10202000830313C0FE01EE0FFF1FEE0FFF1FE25AE6
:10203000FC4F80819181A281B38180938003909332
:102040008103A0938203B093830360918003709116
:102050008103809182039091830320913503309115
:1020600036032F3F4FEF340731F02F5F3F4F309350
:102070003603209335030E94F5126B017C0120E0AA
:1020800034E244EF51E40E94912D87FF08C086EFAF
:10209000C82E88E2D82E84EFE82E81E4F82E20E0C6
:1020A00030E040E051E4C701B6010E94572F9B0188
:1020B000AC0160E074E284E79BE40E94962D6B0122
:1020C0007C010E940F2E70939700609396002091E0
:1020D0000E0230910F024091100250911102C7017F
:1020E000B6010E94572F0E940F2E709399006093A3
:1020F000980080914903882309F433C1C0904403B8
:10210000D0904503E0904603F090470320E030E094
:10211000A901C701B6010E94522F1816D4F580916B
:102120003503909136038F3F2FEF920729F00196E8
:102130009093360380933503C701B6010E94F512D0
:1021400020E030E040E051E40E94572F9B01AC01B9
:1021500060E074E284E79BE40E94962D6B017C01B1
:102160000E940F2E709397006093960020910E02AC
:1021700030910F024091100250911102C701B60137
:102180000E94572F0E940F2E709399006093980021
:1021900008C0109297001092960010929900109229
:1021A000980060913E0370913F036F5F7F4F709383
:1021B0003F0360933E03209196003091970080E0AA
:1021C00090E0232BF1F0C0919600D09197000E94EF
:1021D0003E2E6B017C01BE0180E090E00E943E2E0D
:1021E0009B01AC01609140037091410380914203D7
:1021F000909143030E94962D20E03FEF4FE757E474
:1022000010C00E943E2E6B017C0120E030EE4FEFAB
:1022100054E4609140037091410380914203909196
:1022200043030E94572F9B01AC01C701B6010E94D6
:10223000522F87FD96C080913C038F5F80933C03B3
:1022400090E0209112043091130482179307A0F0BC
:1022500080911D04882319F010923C030DC08091D9
:1022600071008D7F80937100809190008F738093B7
:102270009000109249037DC080913D03C0913C03C2
:10228000811128C0C0901704D0901804E090190460
:10229000F0901A0420E030E0A901C701B6010E94C5
:1022A000522F1816BCF481E080933D031092440332
:1022B000109245031092460310924703C0924003C8
:1022C000D0924103E0924203F0924303C150C09385
:1022D0003C0343C010923D03109236031092350325
:1022E000E0911404F091150448E0C49FE00DF11D45
:1022F000112480819181A281B381809344039093C2
:102300004503A0934603B093470320E030E040E844
:102310005EE364817581868197810E94572F6B01EE
:102320007C0180911202682F70E080E090E00E94B2
:102330003E2E20E030E048EC52E40E94962D9B01B6
:10234000AC01C701B6010E94572F60934003709300
:102350004103809342039093430310923F031092F2
:102360003E038091160480FD04C010924903109230
:102370004803FF91EF91DF91CF91BF91AF919F9172
:102380008F917F916F915F914F913F912F91FF902E
:10239000EF90DF90CF90BF90AF909F908F907F9005
:1023A0006F905F904F900F900FBE0F901F901895F9
:1023B000CF92DF92EF92FF92CF93DF936B017C017C
:1023C000EA0180913703811102C00E94D30D8091F0
:1023D000160480FF46C0809186039091870308977A
:1023E0000CF03FC0809171008D7F809371008091CF
:1023F000490381110E94ED0D81E080934803109202
:1024000036031092350320E030E0A901C701B60180
:102410000E94522F1816DCF4809186039091870356
:10242000FC01EE0FFF1FEE0FFF1FE25AFC4FC082B0
:10243000D182E282F382FC01EE0FFF1FE25BFC4FD0
:10244000D183C08301969093870380938603809104
:102450007100826080937100809190008068809309
:102460009000DF91CF91FF90EF90DF90CF90089593
:102470008F929F92AF92BF92CF92DF92EF92FF9294
:102480000F931F93CF93DF93EC017B01D42E480170
:10249000590180913703811102C00E94D30D8091B0
:1024A000160480FF6BC0809171008D7F8093710056
:1024B0008091480381110E94ED0D81E080934903D2
:1024C000D0931504C0931404F0921304E092120404
:1024D000D0921D048092170490921804A0921904BF
:1024E000B0921A0410924A0310924B0310924C03BC
:1024F00010924D0310923C0388819981AA81BB817F
:102500008093440390934503A0934603B0934703FD
:1025100020E030E040E85EE36C817D818E819F8128
:102520000E94572F6B017C0180911202682F70E08E
:1025300080E090E00E943E2E20E030E048EC52E443
:102540000E94962D9B01AC01C701B6010E94572F36
:10255000609340037093410380934203909343033D
:1025600010923F0310923E0380917100826080932D
:10257000710080919000806880939000DF91CF91EE
:102580001F910F91FF90EF90DF90CF90BF90AF9091
:102590009F908F9008958091160481700895809186
:1025A00016048160809316040E9425200C94230C4D
:1025B000809116048E7F809316040C9425208091C0
:1025C000880390E0019666E070E00E944F318093AE
:1025D000880308958091880390E0019766E070E099
:1025E0000E944F318093880308958F929F92AF92FB
:1025F000BF92CF92DF92EF92FF920F931F93CF93F0
:10260000DF936B017C01C0913503D0913603BE018D
:1026100080E090E00E943E2E4B015C01A7019601F4
:1026200060E070E08CE594E40E94962D9B01AC0183
:10263000C501B4010E94572F0E940F2E20918803DC
:10264000233009F473C028F4222351F02130E9F03B
:102650002CC1243009F4A0C0253009F4E0C025C104
:1026600080E090E0A0E0BFE380930E0290930F0221
:10267000A0931002B0931102109238031092390304
:1026800010923A0310923B0310C11092380310923B
:10269000390310923A0310923B036431710540F400
:1026A0006A30710560F520E030E040E85EE32BC061
:1026B000693C710508F0AAC080E090E00E943E2EBF
:1026C00020E030E040EA51E40E94242D20E030E098
:1026D00044E353E40E94962D9B01AC010E94572FC6
:1026E00020E030E040E05EE30E94572F9B01AC0108
:1026F00060E070E080E09EE30E94242D44C020E072
:1027000030E040E05FE3C701B6010E94572F6B0144
:102710007C0180E090E0A0E0BEE380930E02909305
:102720000F02A0931002B0931102BFC010923803A1
:102730001092390310923A0310923B034AE0469FED
:102740009001479F300D1124C90168EB7BE00E9486
:102750003B31BC016C5D754077FF03C0719561959D
:102760007109882777FD8095982F0E94402E2EE3CF
:1027700033EC4EE259E30E94572F20E030E040EC6A
:102780005EE30E94252D60930E0270930F028093EA
:1027900010029093110289C01092380310923903ED
:1027A00010923A0310923B03CE0183709927892B34
:1027B000E1F0BE016170772780E090E00E943E2E3C
:1027C00020E030E040E05EE30E94572F20E030E060
:1027D00040E45FE30E94252D60930E0270930F0288
:1027E00080931002909311020CC080E090E0A0E072
:1027F000BFE380930E0290930F02A0931002B09358
:102800001102C770DD27CD2B09F04FC010920E02C8
:1028100010920F02109210021092110246C01092F4
:1028200038031092390310923A0310923B0300E0F0
:1028300010E020E03FE300930E0210930F0220937C
:102840001002309311026739710578F180E090E051
:102850000E943E2E20E030E047E153E40E94242D08
:1028600020E030E04AE754E40E94962D20E030E07A
:1028700048E452E40E94572F20E030E040EA51E45F
:102880000E94862E0E94082E660F771F660F771F04
:10289000FB01E55AFD4F2081318142815381C701FF
:1028A000B6010E94572F6B017C01C701B601DF9171
:1028B000CF911F910F91FF90EF90DF90CF90BF903D
:1028C000AF909F908F90089590938E0380938D0387
:1028D0000895E0918D03F0918E03309721F00190DF
:1028E000F081E02D099480E00895E0918D03F0914E
:1028F0008E03309721F00280F381E02D0994089532
:10290000E0918D03F0918E03309721F00480F581E2
:10291000E02D0994089520918B0330918C03821748
:10292000930771F090938C0380938B03E0918D0358
:10293000F0918E03309721F00680F781E02D099405
:1029400008952091890330918A038217930771F0CB
:1029500090938A0380938903E0918D03F0918E0315
:10296000309721F00084F185E02D099408950895B1
:102970000C94B7140E94A7200E94440B0E942D21A2
:102980000C9497254F925F927F928F929F92AF9275
:10299000BF92CF92DF92EF92FF920F931F93CF934C
:1029A000DF93CDB7DEB72A970FB6F894DEBF0FBE20
:1029B000CDBF0E947A0B90E9C92E93E0D92E00E09A
:1029C00010E0AA24A394B12C702E802F0E94100C2A
:1029D0004C01F601419051906F014826592641144F
:1029E0005104B1F40F5F1F4F0530110569F78FEFE8
:1029F00089838A831B820E94B0208160782F9D8307
:102A00008C8349815A816B818D810E947B153AC0EC
:102A10008091EF0381FD0E94190C20E030E07501E8
:102A2000022E02C0EE0CFF1C0A94E2F7C7018421BB
:102A30009521892B09F12E837F828E209F2091E0A2
:102A4000892809F490E098870E94B0208160782F4F
:102A50009A8789874E815F8168858A850E947B1568
:102A6000000F111FF801E057FC4F80819181E8268B
:102A7000F926F182E08206C02F5F3F4F2C303105EE
:102A800071F6B0CF0E94C52210918F030E94691485
:102A90001817D9F00E94691480938F032A960FB6F5
:102AA000F894DEBF0FBECDBFDF91CF911F910F9184
:102AB000FF90EF90DF90CF90BF90AF909F908F905E
:102AC0007F905F904F900C944E072A960FB6F89423
:102AD000DEBF0FBECDBFDF91CF911F910F91FF9051
:102AE000EF90DF90CF90BF90AF909F908F907F90AE
:102AF0005F904F900895CF93DF93CDB7DEB72B97BC
:102B00000FB6F894DEBF0FBECDBF4F8358876987DD
:102B10007A878B87DE01119686E0FD0111928A95F6
:102B2000E9F785E0FE01379601900D928A95E1F76D
:102B300049815A816B817C818D819E810E94FD1B20
:102B40002B960FB6F894DEBF0FBECDBFDF91CF91AD
:102B50000895CF93882309F4CDC0C82F823859F443
:102B60000E94691481FDC6C089E30E94D71E0E949D
:102B7000A41F89E30CC0833879F40E94691480FD96
:102B8000B9C083E50E94D71E0E94A41F83E50E945E
:102B9000191FCF910C94A41F843859F40E94691412
:102BA00082FDA8C087E40E94D71E0E94A41F87E46C
:102BB000EECF8CEF8C0F813A48F48C2F0E940025C9
:102BC000811198C08C2F0E94D71EE3CF80E28C0F1A
:102BD000883048F4C77081E001C0880FCA95EAF7D1
:102BE0000E945D1FD6CF8BE58C0F833078F4C53AF9
:102BF00029F0C63A31F083E890E005C081E890E022
:102C000002C082E890E0CF910C948B1488E58C0F81
:102C1000853108F06FC0C83A61F1C93A69F1CA3A22
:102C200071F1CB3A79F1CC3A81F1CB3B89F1CC3BD4
:102C300091F1CD3A99F1C03BA1F1CE3AA9F1CF3A49
:102C4000B1F1C13BB9F1C23BC1F1C33BC9F1C43BD6
:102C5000D1F1C53BD9F1C63BE1F1C73BE9F1C83B36
:102C6000F1F1C93BF9F1CA3B09F43FC080E090E0C3
:102C70003EC082EE90E03BC089EE90E038C08AEE24
:102C800090E035C085EB90E032C086EB90E02FC03D
:102C900083EB90E02CC084EB90E029C087EB90E0C0
:102CA00026C08CEC90E023C08DEC90E020C083E83F
:102CB00091E01DC08AE891E01AC082E991E017C056
:102CC00084E991E014C081E292E011C083E292E0D5
:102CD0000EC084E292E00BC085E292E008C086E27A
:102CE00092E005C087E292E002C08AE292E0CF91D2
:102CF0000C94A114CF910895882309F44BC0823815
:102D000059F40E94691481FF45C089E30E94D71ECF
:102D10000E94A41F89E30CC0833871F40E946914D7
:102D200080FF38C083E50E94D71E0E94A41F83E560
:102D30000E94191F0C94A41F843859F40E9469142E
:102D400082FF28C087E40E94D71E0E94A41F87E448
:102D5000EFCF9CEF980F913A58F390E2980F98308C
:102D600050F4877091E001C0990F8A95EAF7892F96
:102D70000E94631FDFCF9BE5980F933020F480E023
:102D800090E00C948B14885A853120F480E090E018
:102D90000C94A1140895882321F00E945D1F0C94C7
:102DA000A41F0895882321F00E94631F0C94A41F80
:102DB00008957F928F929F92AF92BF92CF92DF92AF
:102DC000EF92FF920F931F93CF93DF931F92CDB794
:102DD000DEB77C01C62E772EFC01058102950F70AF
:102DE000128111110E947A1F0E94D01E882379F04F
:102DF000112369F080E28C0D883048F082E00E9457
:102E0000B91E0E94D01E91E0D82ED92601C0D12C27
:102E1000E72DE295EF70F0E0EA5AFF4F0C94633132
:102E2000872D807F072D0F70882311F00295007F7A
:102E3000112389F0002309F499C180E28C0D8830B8
:102E400020F4802F0E945D1F03C0802F0E946D1F01
:102E50000E94A41F8BC18C2D0E947C16002309F4B4
:102E6000C3C180E28C0D883020F4802F0E94631F44
:102E700003C0802F0E94731F0E94A41FB5C1872D1D
:102E8000807F972D9F70803211F4892F03C0892F86
:102E90008295807FCC2021F0F1E0CF16A1F01DC0FB
:102EA000112339F0002319F1013009F50E948D1F1B
:102EB0009BC1002319F0013009F496C189830E9457
:102EC000901F898110C1112321F0063008F08CC1B8
:102ED0000EC0053008F088C106C1112359F0002347
:102EE00031F0F701958190FF41C19F7095830E9459
:102EF000CB167AC1002309F4F6C03EC1872D869512
:102F00008695837090E0009719F0019761F06CC18D
:102F1000112321F08C2D972D937002C080E090E05A
:102F20000E948B1461C1112321F08C2D972D937079
:102F300002C080E090E00E94A11456C18C2D1123A4
:102F400019F00E94CD2102C00E9435220E94BA22AF
:102F50004BC1872D837009F052C0111145C18C2DD2
:102F6000829586958770880F880F9C2D9F70892E7B
:102F7000912CA12CB12C082E04C0880C991CAA1CE1
:102F8000BB1C0A94D2F7C4FE14C00FE010E020E08E
:102F900030E0B901A80104C0440F551F661F771F18
:102FA0008A95D2F7CB01BA0160957095809590957E
:102FB00003C060E070E0CB01272D26952695237095
:102FC00030E02230310569F02330310589F068297D
:102FD00079298A299B292130310571F00E94451DEC
:102FE00003C1682979298A299B290E94611DFCC097
:102FF0000E94451DC501B4010E94291DF5C0112381
:1030000019F0872D817001C08695882309F4ECC0E2
:103010008C2D829586958770880F880F9C2D9F70C8
:10302000892E912CA12CB12C082E04C0880C991C3F
:10303000AA1CBB1C0A94D2F7C4FE14C00FE010E017
:1030400020E030E0B901A80104C0440F551F661FFD
:10305000771F8A95D2F7CB01BA016095709580955C
:10306000909503C060E070E0CB01272D2695269552
:103070002370422F50E04230510569F04330510532
:1030800089F0682979298A299B294130510571F0F5
:103090000E941F1EA9C0682979298A299B290E949C
:1030A0003B1EA2C00E941F1EC501B4010E94031E48
:1030B0009BC08C2D90E0FC01E05EF109E531F1054B
:1030C00008F050C0EA59FF4F0C9463310C2D0F707B
:1030D000872D8F71112321F00E949C1D802F07CF17
:1030E0000E94BD1D802F0E94D2167EC0112341F088
:1030F000053008F079C0872D8F710E94E21D74C0E1
:10310000063008F071C0F7CF112339F0872D8F7189
:103110000E949C1D69C01123C9F3872D8F710E94E5
:10312000BD1D62C0112329F0872D8F710E94871D5C
:103130005BC00E947D1D58C0112351F0172D1F71D7
:10314000812F0E949C1D63E0812F0E94B01E4CC005
:1031500081E00E94B91E023008F446C082E00E945D
:10316000B91E42C0112331F0002381F28C2D0E9440
:10317000A9153AC0002389F28C2D0E947C1634C018
:10318000472D4F706C2DC7010E943D0A0E94A11C63
:103190002BC0111129C0472D4F7050E0423051050E
:1031A000B9F04CF44115510581F041305105E1F47D
:1031B0000E94BF2519C04330510569F044305105C4
:1031C00099F48C2D0E9411260FC00E94A8250CC0D6
:1031D0000E94DB2509C00E94EE2506C0472D4F70D6
:1031E0006C2DC7010E94400ADD20F9F00E94AC1E40
:1031F00080FD1BC0F70112820E94A61E0E949C1D2A
:10320000C7010E9424190E94A61E0F90DF91CF9142
:103210001F910F91FF90EF90DF90CF90BF90AF90F4
:103220009F908F907F900C94BD1D0F90DF91CF9158
:103230001F910F91FF90EF90DF90CF90BF90AF90D4
:103240009F908F907F9008950F931F93CF93DF935C
:10325000EC01888199812B813C81232BB9F09F3F20
:1032600011F48F3F99F0CE010E946107882371F01D
:10327000688179818A810E94A21E8C010E94571E5A
:103280000E941E1DB801CE010E94D916DF91CF9178
:103290001F910F9108950E947A1F0E948A1F0E9419
:1032A0004F1F0E94A41F0E946B230E94BA2280E03D
:1032B00090E00E948B1480E090E00C94A1140E9496
:1032C0006A1F0C944B190E94971E292F22952F706C
:1032D00030E02C3031054CF42A3031056CF42250AA
:1032E000310922303105A8F407C02C30310569F0CE
:1032F0002F30310551F00DC0803F69F018F4803E49
:1033000040F409C0843F29F406C093FB882780F964
:10331000089580E0089581E00895CF93DF9300D071
:1033200000D01F92CDB7DEB70F900F900F900F9087
:103330000F90DF91CF910895CF93DF9300D000D00D
:1033400000D0CDB7DEB726960FB6F894DEBF0FBE1D
:10335000CDBFDF91CF9108951F93CF93DF93C0919D
:103360009A0316E080919B03C81799F0D0E01C9F48
:10337000F0011D9FF00D1124E456FC4F4081518156
:1033800062817381848195810E949C192196C77006
:10339000E9CFDF91CF911F9108954091CC035091D7
:1033A000CD036091CE037091CF038091D0039091B3
:1033B000D1030C949C198091D10382958F7009F0F0
:1033C00054C08091CE03882309F44FC080919A03A2
:1033D000A0919B036091CC037091CD034091CF03EA
:1033E0005091D003B6E08A1709F43FC090E0411530
:1033F0005105C1F17F3F11F46F3FA1F1B89FF0017A
:10340000B99FF00D1124E456FC4F218172132AC09C
:103410002081621327C02281211124C0238134819D
:103420002417350710F421503109241B350B283C93
:103430003105C0F42091D1032F7020612093D10376
:1034400026E0289FF001299FF00D1124EF55FC4F35
:1034500080818F70806180838CEC93E00E942419BE
:103460000C94AC1901968770BECF0895CF92DF926D
:10347000EF92FF920F931F93CF93DF93CDB7DEB7F9
:1034800062970FB6F894DEBF0FBECDBF8C0185E00A
:10349000F801DE011D9601900D928A95E1F7D801A1
:1034A0004C9111965C91119712966C91129713960C
:1034B000CD90DC9014973091CC037091CD03809126
:1034C000CF039091D003009709F46BC17F3F19F4AB
:1034D0003F3F09F466C1E090CE03EE2009F4C0C07E
:1034E0002091D103C816D90628F0F601E81BF90B84
:1034F000CF0104C0809590958C0D9D1DFF24F39401
:10350000883C910578F0F12C207F09F0C6C07C2D15
:10351000D98AC88A89890E948D198CEC93E00E940F
:103520002419B1C0822F807F09F046C0751314C0E2
:10353000341312C0611110C02F7020612093D10389
:103540000E94CD198CEC93E00E9424198091D10344
:10355000D80115968C932EC0CD2819F15F3F11F438
:103560004F3FF9F0F62E61111CC080919A03209113
:103570009B0336E0821709F45AC090E0389FF001AF
:10358000399FF00D1124E456FC4F7181571306C08A
:103590007081471303C07281711103C00196877057
:1035A000E9CFF62E662309F418C18091D10381601A
:1035B0008093D103F12C11C1751308C0341306C0D8
:1035C000611104C08091D103D801C3C04D875E87CB
:1035D0008D859E856A8B0E9463196A898823E1F133
:1035E0006623D1F12091D103822F82958F7090E0D4
:1035F000029774F08091CC039091CD0398878F83CC
:103600001986DB86CA862C87CE0107960E9424196C
:1036100086E0F801ACECB3E001900D928A95E1F7F9
:103620000E94DB190E94CD19FF24F394D6C04D8768
:103630005E878D859E850E94971E292F22952F706B
:1036400030E0223031050CF0BCC09F7009F0B6C0EC
:10365000805E883008F4C1C0C8010E942419E4CFFC
:10366000C816D90608F453C0F601E81BF90BCF01C0
:10367000883C910508F450C0F12C7C2DD98AC88A69
:1036800089890E948D19ECECF3E086E0DF011D9240
:103690008A95E9F70E94CD19A0C0751314C03413A0
:1036A00012C0611110C08091D103F8018583C80157
:1036B0000E94241986E0ECECF3E0DF011D928A956C
:1036C000E9F7FE2C8AC04D875E878D859E856A8BC3
:1036D0000E9463196A89882309F4BECF662309F41E
:1036E000BBCF2091D103822F82958F7090E00297FB
:1036F0000CF48ECF8091CC039091CD039A83898373
:103700001B82DD82CC822E83CE0101967FCF8095F5
:1037100090958C0D9D1DACCFF62E662309F49CCFA1
:1037200075132EC034132CC02091D10320FD1FC06F
:10373000822F82958F70D9F0D80115962C9315970A
:103740008F3049F08F5F982F9295907F822F8F70E6
:10375000892B15968C93C8010E94241986E0F801E4
:10376000ACECB3E001900D928A95E1F793CF86E03F
:10377000F801ACECB3E001900D928A95E1F72DC011
:103780004D875E878D859E850E946319811140CF8C
:103790008091D10381608093D103C8010E942419D4
:1037A0001CC0662309F458CF4D875E878D859E85A2
:1037B0000E946319882309F44FCF2ACF811148CF83
:1037C0000CC0243031050CF047CF9F7009F440CF76
:1037D000F8019581907F09F03BCF8F2D62960FB64F
:1037E000F894DEBF0FBECDBFDF91CF911F910F9137
:1037F000FF90EF90DF90CF9008951F93CF93DF93CA
:10380000CDB7DEB72C970FB6F894DEBF0FBECDBF95
:103810004F83588769877A878B879C87CE01079665
:103820000E94361A882369F08F8198852A853B8506
:10383000232BF1F19F3F09F063C08F3F09F060C077
:1038400037C086E0FE013796DE01119601900D9299
:103850008A95E1F76F817885EA85FB85309741F19C
:103860007F3F11F46F3F21F120919B0330E0C901AC
:1038700001968770992740919A0350E08417950725
:1038800009F447C069837A83FD83EC8396E0929FB5
:10389000D001939FB00D1124A456BC4FFE01319668
:1038A00001900D929A95E1F780939B030E94AC19C9
:1038B00016E080919A0390919B038917C1F1189F9C
:1038C000C001112484569C4F0E94361A882379F136
:1038D000E0919A031E9FF0011124E456FC4F4081B1
:1038E000518162817381848195810E949C198091AC
:1038F0009A0390E001968770992780939A03D9CF15
:103900004F81588569857A858B859C850E949C1995
:10391000CFCF0E945F1910929B0310929A03ECEC98
:10392000F3E086E0DF011D928A95E9F7C1CF2C967E
:103930000FB6F894DEBF0FBECDBFDF91CF911F91C0
:103940000895EF92FF920F931F93CF93DF938C0113
:10395000892B09F46CC0F12CEE24E394E801219644
:10396000F8018491843740F4843008F051C08130EC
:1039700081F0823019F15BC0853709F444C0A8F1A9
:103980009CE7980F903708F052C08F770E947C1602
:1039900041C00E5F1F4FFE01C49180E28C0F883042
:1039A00048F4C7708E2D01C0880FCA95EAF70E94AF
:1039B0007D1F14C08C2F0E94A9152DC00E5F1F4FB4
:1039C000FE01C49180E28C0F883058F4C7708E2DB0
:1039D00001C0880FCA95EAF70E94831F0E94A41FA6
:1039E0001AC08C2F0E947C1616C00E5F1F4FFE015E
:1039F000C491CC2381F08FE99FE00197F1F700C0DB
:103A00000000C150F6CF0E5F1F4FFE01F49003C0BF
:103A10000E94A9158E018F2D882309F49FCFEFE90D
:103A2000FFE03197F1F700C000008150F5CFDF9142
:103A3000CF911F910F91FF90EF900895089560939B
:103A4000D6037093D7038093D8039093D9030C9433
:103A50004B190F931F930091D6031091D703209118
:103A6000D8033091D903DC01CB01802B912BA22B01
:103A7000B32B8093D6039093D703A093D803B0932E
:103A8000D9031F910F910C944B190F931F93009121
:103A9000D6031091D7032091D8033091D903DC01CC
:103AA000CB0180239123A223B3238093D603909349
:103AB000D703A093D803B093D9031F910F910C940F
:103AC0004B190F931F930091D6031091D7032091A8
:103AD000D8033091D903DC01CB0180279127A2279D
:103AE000B3278093D6039093D703A093D803B093C2
:103AF000D9031F910F910C944B191092D20310927D
:103B0000D3031092D4031092D5030C944B1941E0C7
:103B100050E060E070E004C0440F551F661F771F3F
:103B20008A95D2F74093D2035093D3036093D40382
:103B30007093D5030C944B1941E050E060E070E0C5
:103B400004C0440F551F661F771F8A95D2F78091D6
:103B5000D2039091D303A091D403B091D503482B05
:103B6000592B6A2B7B2B4093D2035093D303609342
:103B7000D4037093D5030C944B1941E050E060E0FE
:103B800070E004C0440F551F661F771F8A95D2F757
:103B900040955095609570958091D2039091D30394
:103BA000A091D403B091D503482359236A237B23E2
:103BB0004093D2035093D3036093D4037093D503FF
:103BC0000C944B1941E050E060E070E004C0440FF9
:103BD000551F661F771F8A95D2F78091D203909167
:103BE000D303A091D403B091D503482759276A275E
:103BF0007B274093D2035093D3036093D4037093F5
:103C0000D5030C944B190F931F930091D20310917D
:103C1000D3032091D4033091D503DC01CB01802B59
:103C2000912BA22BB32B8093D2039093D303A09319
:103C3000D403B093D5031F910F910C944B190F939C
:103C40001F930091D2031091D3032091D40330919C
:103C5000D503DC01CB0180239123A223B3238093DE
:103C6000D2039093D303A093D403B093D5031F91B1
:103C70000F910C944B190F931F930091D203109145
:103C8000D3032091D4033091D503DC01CB018027ED
:103C90009127A227B3278093D2039093D303A093B5
:103CA000D403B093D5031F910F910C944B19089531
:103CB000CF92DF92EF92FF920F931F93CF93DF93F8
:103CC0008C01C090D603D090D703E090D803F09039
:103CD000D9038091D2039091D303A091D403B091E2
:103CE000D503C82AD92AEA2AFB2ACFE1D0E0D70196
:103CF000C6010C2E04C0B695A795979587950A9492
:103D0000D2F780FF06C0B8018C2F0E948E08019761
:103D100021F4219760F780E001C08C2FDF91CF91D3
:103D20001F910F91FF90EF90DF90CF900895CF9368
:103D3000DF93EC010E94581EBE010E948E08DF91A5
:103D4000CF910895CB010E94971E08958091DA03C8
:103D500085958595859508958091DA0387700895F6
:103D600098E0899F90011124262B2093DA030C946C
:103D70009C1D2091DA03809582238093DA03982F8B
:103D8000977069F430E0482F552747FD5095241768
:103D9000350729F08595859585950C94BD1D089569
:103DA0009091DA03977081E009F480E00895909192
:103DB0002602992321F090911302911109C02091BC
:103DC000140230911502F90132969FEF40E01FC0B6
:103DD000982F9695969596959F3050F5E091140200
:103DE000F0911502E90FF11D877021E030E0A90183
:103DF00002C0440F551F8A95E2F7CA019181892BB1
:103E0000818308959F3F39F04F5F4E3041F05191CB
:103E10005813F8CF0DC05111F7CF942FF5CF9F3F16
:103E200039F0F901E90FF11D97FDFA9582830895A4
:103E3000089590912602992321F0909113029111F7
:103E400009C02091140230911502F9013296205FC9
:103E50003F4F1FC0982F9695969596959F30F0F4FA
:103E6000E0911402F0911502E90FF11D877021E035
:103E700030E0A90102C0440F551F8A95E2F7CA013C
:103E8000809591818923818308953196E217F30704
:103E900029F090819813F9CF1082F7CF089581E02F
:103EA00090E0E0911402F0911502E80FF91F1082E2
:103EB000019680319105A9F708959091EE03892B21
:103EC0008093EE03089580959091EE03892380936B
:103ED000EE0308951092EE0308959091ED03892B5F
:103EE0008093ED03089580959091ED03892380934D
:103EF000ED0308951092ED0308959091EC03892B42
:103F00008093EC03089580959091EC03892380932E
:103F1000EC0308951092EC0308958093DB03089559
:103F20001092DB0308958091140290911502FC0118
:103F300031969C01205F3F4F80E0919191118F5FFE
:103F4000E217F307D1F70895E0911402F0911502FA
:103F50008091EE038083E0911402F091150290812C
:103F60008091ED03892B8083E0911402F09115027A
:103F700090818091EC03892B80838091DB038823DF
:103F800061F0E0911402F09115029081892B8083F9
:103F90000E94931F81111092DB0380911402909173
:103FA00015020C9475146DEE7EEF80E090E00E9497
:103FB000883160E082E090E00E94773160E083E049
:103FC00090E00E94773160E084E090E00E947731D9
:103FD00060E085E090E00E94773160E086E090E06C
:103FE0000E9477316FEF87E090E00C94773180E0AA
:103FF00090E00E94713121E08D3E9E4F09F020E05B
:10400000822F089582E090E00C94693183E090E083
:104010000C946931682F83E090E00C94773184E050
:1040200090E00C946931682F84E090E00C94773133
:1040300086E090E00C946931682F86E090E00C9463
:10404000773187E090E00C946931682F87E090E049
:104050000C94773180912504843051F11092F00353
:1040600020E488E190E00FB6F894A8958093600072
:104070000FBE2093600080E00E94210780E00E9434
:104080004E0783B7817F846083BF83B7816083BF1E
:104090007894889583B78E7F83BF0FB6F894A895E0
:1040A00080916000886180936000109260000FBE74
:1040B000089508950895CF9380E00E9421070E94FB
:1040C00059200E947A0B0E945A20C0E08C2F0E9437
:1040D000100C892B29F4CF5FC530C1F780E001C0F7
:1040E00081E0CF9108950E945F1980E00E9421072E
:1040F0000E9497250E9469140C944E071F920F92FC
:104100000FB60F9211248F939F93AF93BF9380911B
:10411000F003811113C08091F1039091F203A091FB
:10412000F303B091F4034196A11DB11D8093F103F7
:104130009093F203A093F303B093F403BF91AF9174
:104140009F918F910F900FBE0F901F90189582E056
:1041500084BD93E095BD9AEF97BD80936E0008955E
:104160002FB7F8948091F1039091F203A091F3039B
:10417000B091F4032FBF0895CF92DF92EF92FF9298
:104180000F931F932FB7F8944091F1035091F203CE
:104190006091F3037091F4032FBF6A017B01EE2459
:1041A000FF248C0120E030E0C016D106E206F306C1
:1041B00010F4415051099A01281B390BC9011F9174
:1041C0000F91FF90EF90DF90CF9008951F920F9284
:1041D0000FB60F9211248F939F93AF93BF9380914B
:1041E000F1039091F203A091F303B091F4030196CF
:1041F000A11DB11D8093F1039093F203A093F303EB
:10420000B093F403BF91AF919F918F910F900FBE28
:104210000F901F9018950E94262AF8942FEF87EA96
:1042200091E6215080409040E1F700C0000087E017
:1042300090EBDC0180932E0490932F04A093300424
:10424000B09331049CE088E10FB6F894A895809370
:1042500060000FBE90936000FFCF0E94F71F811196
:1042600002C00E94D31F0E9402208093EF030E948D
:104270000F2090E090931F0480931E0487FB8827F3
:1042800080F9809313020E940620682F70E080E07E
:1042900090E00C941F1D8091F70380FF0BC060918C
:1042A000190285E0689FB001112475956795759591
:1042B00067952BC081FF09C06091190285E0689F56
:1042C000B00111247595679520C082FF07C06091E9
:1042D000190285E0689FB001112417C09091F8037E
:1042E0009923D1F060911802961788F7209119024E
:1042F00085E0289F90011124929FA001939F500D6B
:10430000112470E0CA010E944F316038710540F4F9
:104310006115710539F002C065E070E0862F0895DF
:104320008FE7089581E008958091F70380FF08C02A
:104330006091170270E0759567957595679521C036
:1043400081FF06C06091170270E07595679519C0EE
:1043500082FF04C06091170270E010C09091F803D2
:104360009923C1F0609116029617A0F78091170269
:10437000899FC001112470E00E944F31603871059F
:1043800028F46115710521F0862F08958FE70895AF
:1043900081E0089561E070E0F4CF803F21F40E9455
:1043A0004B21819504C0813F29F40E944B218093C9
:1043B000FB030895823F21F40E944B21819504C0A4
:1043C000833F29F40E944B218093FA030895893F8B
:1043D00019F40E94942105C08A3F31F40E9494216F
:1043E00081958093FC0308958B3F21F40E949421D2
:1043F000819504C08C3F29F40E9494218093FD0391
:104400000895843F21F48091F903816017C0853FAE
:1044100021F48091F903826011C0863F21F48091DC
:10442000F90384600BC0873F21F48091F903886011
:1044300005C0883F31F48091F90380618093F903CE
:1044400008958D3F21F48091F70381600BC08E3F6A
:1044500021F48091F703826005C08F3F29F4809199
:10446000F70384608093F7030895803F39F48091C7
:10447000FB0387FF6CC01092FB0369C0813F29F4E6
:104480008091FB031816BCF362C09091FA03823F3F
:1044900029F497FF5CC01092FA0359C0833F19F4C6
:1044A0001916CCF354C0893F41F48091FC031816CF
:1044B0000CF04DC01092FC034AC08A3F29F4809151
:1044C000FC0387FF44C0F6CF8B3F39F48091FD0396
:1044D00087FF3DC01092FD033AC08C3F29F48091C4
:1044E000FD031816BCF333C0843F21F48091F90317
:1044F0008E7F17C0853F21F48091F9038D7F11C015
:10450000863F21F48091F9038B7F0BC0873F21F414
:104510008091F903877F05C0883F31F48091F903CA
:104520008F7E8093F90313C08D3F21F48091F703B0
:104530008E7F0BC08E3F21F48091F7038D7F05C0E5
:104540008F3F29F48091F7038B7F8093F70380914D
:10455000FA0381110EC08091FB0381110AC0809182
:10456000FC03811106C08091FD03811102C01092ED
:10457000F803089589EF93E00E9480140E94B02010
:104580009093F6038093F50308951F93CF93DF93E1
:104590008091F5039091F6030E94BC20AC019091AC
:1045A000F803992321F020911A0230E006C02091EF
:1045B0001B028AE0289F900111244217530708F438
:1045C00086C08091FA03C091FB03D091FC03109147
:1045D000FD03811107C0C11176C0D11174C0111142
:1045E00072C075C09F3F19F09F5F9093F803181633
:1045F00024F40E944B218093FA038091FA0387FFF1
:1046000005C00E944B2181958093FA031C1624F467
:104610000E944B218093FB038091FB0387FF05C021
:104620000E944B2181958093FB036091FA036623DE
:1046300039F1C091FB03CC2319F1772767FD709501
:10464000872F972F0E94402E23E333E343E35FE35A
:104650000E94572F0E94082E6093FA036C2F772731
:1046600067FD7095872F972F0E94402E23E333E339
:1046700043E35FE30E94572F0E94082E6093FB03E1
:104680001D1624F40E9494218093FC038091FC0366
:1046900087FF05C00E94942181958093FC03111629
:1046A00024F40E9494218093FD038091FD0387FFF1
:1046B00005C00E94942181958093FD03DF91CF91E5
:1046C0001F910C94BA229F3F09F08ECF96CFDF91B5
:1046D000CF911F910895E9EFF3E085E0DF011D928E
:1046E0008A95E9F71092F8031092F7030895833042
:1046F00081F128F4813059F08230D1F0089585306D
:1047000009F449C0B8F1863009F456C00895809183
:104710001B02262F30E0280F311D2F3F310524F4D6
:10472000680F60931B0208958FEF80931B0208951A
:1047300080911A02262F30E0280F311D2F3F3105BE
:1047400024F4680F60931A0208958FEF80931A0281
:10475000089580911902262F30E0280F311D2F3F38
:10476000310524F4680F6093190208958FEF809348
:104770001902089580911802262F30E0280F311D6C
:104780002F3F310524F4680F6093180208958FEFCE
:1047900080931802089580911702262F30E0280F89
:1047A000311D2F3F310524F4680F609317020895DF
:1047B0008FEF80931702089580911602262F30E024
:1047C000280F311D2F3F310524F4680F6093160226
:1047D00008958FEF809316020895833011F128F425
:1047E000813049F0823091F00895853081F120F1D7
:1047F0008630C1F1089580911B02681720F4861B52
:1048000080931B02089510921B02089580911A0252
:10481000681720F4861B80931A02089510921A02DA
:10482000089580911902681720F4861B809319025D
:10483000089510921902089580911802681720F4C3
:10484000861B809318020895109218020895809193
:104850001702681720F4861B8093170208951092A0
:104860001702089580911602681720F4861B809322
:10487000160208951092160208950F931F9387321F
:1048800008F048C08E3108F08DC0803109F477C03F
:1048900008F5873009F461C068F4863009F09DC0DE
:1048A0008091EF03817F8E7F8093EF0381E080937F
:1048B000FF0394C08B3009F489C08E3009F08DC09D
:1048C0008091EF0382FB222720F991E0922790FB51
:1048D00082F95EC0863109F479C060F4813109F053
:1048E0007CC00E945F199091130281E08927809318
:1048F00013026CC0893109F469C08B3109F06DC0B5
:104900008091EF0381FB222720F991E0922790FB11
:1049100081F93EC0883309F459C050F4893209F452
:1049200057C0853309F454C0873209F451C055C0CB
:10493000833409F44DC028F48A3308F44EC08953F7
:1049400032C0883409F049C00E945F190E94ED0D01
:104950000E949B060E940B2139C09091EF03892F82
:104960008095817080FB90F929F096609860909313
:10497000EF0334C0997F977F9093EF0327C0809116
:10498000EF0383FB222720F991E0922790FB83F924
:104990008093EF039923D1F08091EF03816080939E
:1049A000EF0314C08D5141E050E060E070E08A01F7
:1049B0009B0104C0000F111F221F331F8A95D2F7DD
:1049C000C901B8010E941F1D0E945F1981E006C045
:1049D00061E070E080E090E0F5CF80E01F910F9102
:1049E000089580E0089580E008958E518A3030F473
:1049F000E82FF0E0E555FD4F8081089580E00895AF
:104A0000CF93C82F8091FF03813069F018F0823076
:104A1000C9F183C0E0911402F091150280818232C5
:104A200009F07DC007C0E0911402F0911502808169
:104A3000823261F48C2F0E94F124811104C08C2FEA
:104A40000E943D241DC081E090E01AC08C2F0E947E
:104A5000F324811114C0C43179F048F4CB3079F0DB
:104A6000C03109F060C082E08093FF0308C0C93202
:104A700019F0C83321F057C01092FF0354C081E0F1
:104A8000817053C0C93289F118F5C43171F1B0F4A5
:104A9000C73009F046C08EE180931B0282E3809309
:104AA0001A028AE08093190284E18093180288E058
:104AB0008093170288E28093160233C082EE8C0F37
:104AC000863078F58C2F0E94F5248093FE0329C050
:104AD000CE34E9F020F4CB3421F56AE013C0C135BF
:104AE00079F0C235F1F461E00DC08091FE038823B6
:104AF00019F01092FE0315C081E08093FF0315C0EA
:104B000061E006C08091FE030E9477230AC06AE03C
:104B10008091FE030E94ED2304C01092FF0380E009
:104B200004C081E002C080E0ABCFCF9108950E9425
:104B3000F71F811102C00E94D31F0E94182080938A
:104B4000200480FF02C0869501C080E00C942107FC
:104B500080912004982F9695292F30E0233031053D
:104B60004CF49F5F990F8170892B816080932004A2
:104B70000E941C208091200486950C94210780912E
:104B80002004982F969591F09158990F8170892B58
:104B9000809320048E7F91E009F490E080912004BE
:104BA00090FB80F9809320040E941C2080912004B7
:104BB00086950C94210780912004982F909590FB66
:104BC00080F9809320040E941C208091200480FFA3
:104BD00002C0869501C080E00C94210790912004CA
:104BE000892F86958F5F8F779170843028F4880F96
:104BF000892B8093200402C090932004809120048C
:104C00008E7F91E009F490E08091200490FB80F980
:104C1000809320040E941C208091200486950C948F
:104C2000210720912004922F96958927982F990F7C
:104C3000822F8170892B809320048E7F91E009F46C
:104C400090E08091200490FB80F9809320040E94E2
:104C50001C208091200486950C94210780911004DB
:104C60000895CF93DF9300D01F92CDB7DEB79C019C
:104C700080912504843019F593E099833B832A833E
:104C80009093E9008FEF9091E800815095FD06C068
:104C900095ED9A95F1F700008111F5CF8091E8002C
:104CA00085FF0DC040E050E063E070E0CE0101966A
:104CB0000E9491288091E8008E778093E8000F9001
:104CC0000F900F90DF91CF910895CF93DF9300D095
:104CD0001F92CDB7DEB720912504243021F522E0C4
:104CE00029839B838A8383E08093E9008FEF9091EF
:104CF000E800815095FD06C095ED9A95F1F700000A
:104D00008111F5CF8091E80085FF0DC040E050E0B3
:104D100063E070E0CE0101960E9491288091E80046
:104D20008E778093E8000F900F900F90DF91CF91D6
:104D30000895209125042430F1F422E02093E90025
:104D40002FEF3091E800215035FD06C035ED3A9542
:104D5000F1F700002111F5CF2091E80025FF0BC0ED
:104D600040E050E065E070E00E9491288091E8000A
:104D70008E778093E8000895CF93DF93EC019091B4
:104D80002504943009F046C0809126028823D9F08A
:104D9000809113028823B9F09093E9008FEF9091EE
:104DA000E800815095FD06C095E19A95F1F7000065
:104DB0008111F5CF8091E80085FF2CC040E050E0E4
:104DC00060E170E017C081E08093E9008FEF90917F
:104DD000E800815095FD06C095ED9A95F1F7000029
:104DE0008111F5CF8091E80085FF14C040E050E0CC
:104DF00068E070E0CE010E9491288091E8008E77F3
:104E00008093E80080E1FE01A0E0B4E001900D9203
:104E10008A95E1F7DF91CF91089580912404811163
:104E200009C00E94262A0E94832A8091E2008460A1
:104E30008093E2000895109224040895089508953F
:104E40000C94732042E061EC81E00E94A02942E0D2
:104E500061EC82E00E94A02942E061EC83E00E94C4
:104E6000A02942E161EC84E00C94A0298091270400
:104E7000833009F455C030F4813071F0823009F488
:104E80008EC008958A3009F47AC08B3009F460C06E
:104E9000893009F09CC020C080912604813A09F035
:104EA00096C08091E800877F8093E80080912A0473
:104EB00090912B04892B21F460E180E094E003C001
:104EC00060E080E090E070E00E94DC288091E800E3
:104ED0008B778093E800089580912604813209F051
:104EE00076C080912A0490912B04009719F00397C3
:104EF00009F06DC08091E800877F8093E800809181
:104F0000E80082FD05C0809125048111F8CF5FC0C3
:104F10008091F100809310048091E8008B7753C05A
:104F200080912604813A09F052C080912A04909120
:104F30002B04892B09F04BC08091E800877F809378
:104F4000E8008091E80080FFFCCF8091260236C007
:104F5000809126048132D9F580912A0490912B0406
:104F6000892BA9F58091E800877F8093E8000E9453
:104F7000D52980912804809326020C945F19809192
:104F80002604813221F58091E800877F8093E80034
:104F90000E94D5298091290480931104089580915D
:104FA0002604813AA1F48091E800877F8093E8008D
:104FB0008091E80080FFFCCF809111048093F10084
:104FC0008091E8008E778093E8000C94D5290895AD
:104FD00084B7877F84BF0FB6F894A895809160004E
:104FE000886180936000109260000FBE80E880931B
:104FF0006100109261000E94B8140E94262A0E944B
:10500000832A8091E20084608093E20078940E9479
:10501000092D0E94BA148CE192E00E9464148091E0
:105020002504853069F40E942A2080912304882376
:10503000B1F30E945B20882391F30E947B28EFCF7D
:105040000E94C214ECCF292F332723303105C9F039
:1050500064F42130310581F02230310509F043C07C
:105060008DE690E022EE39E042C021323105F1F0C8
:105070002232310541F137C082E190E02FE43AE07D
:1050800036C099278130910541F08230910541F079
:10509000892B49F5EEEDF9E005C0E0EBF9E002C03F
:1050A000E4E8F9E0849190E09F0121C06430D8F4F5
:1050B000E62FF0E0EE0FFF1FEF53FD4F208131810F
:1050C00089E090E014C0643070F470E0FB01EE0FF2
:1050D000FF1FE754FD4F20813181FB01EB54FD4F51
:1050E000808190E004C080E090E020E030E0FA01B0
:1050F00031832083089580E189BD82E189BD09B4AF
:1051000000FEFDCF8091D8008F7D8093D8008091E4
:10511000E00082608093E0008091E00081FDFCCFA0
:105120000895CF92DF92EF92FF920F931F93CF9348
:10513000DF93EC018B016A010E94F429811133C0D5
:10514000C114D10439F0F60180819181081B190B3B
:10515000C80FD91FE12CF12C0115110519F180910F
:10516000E80085FD16C08091E8008E778093E80006
:10517000C114D10449F0F60180819181E80EF91E35
:10518000F182E08285E00FC00E94F429882321F398
:105190000AC089918093F10001501109FFEFEF1AC5
:1051A000FF0ADACF80E0DF91CF911F910F91FF903E
:1051B000EF90DF90CF90089520912C0430912D0432
:1051C0002617370748F06115710539F42091E8007A
:1051D0002E772093E80001C0B90140E06115710508
:1051E000A9F120912504222309F443C0253009F4B4
:1051F00042C02091E80023FD40C02091E80022FD3C
:1052000032C02091E80020FFE9CF4091F3002091C7
:10521000F20030E0342BFC01CF016115710559F02B
:105220002830310540F481918093F100615071097B
:105230002F5F3F4FF1CF41E02830310509F040E0CA
:105240002091E8002E772093E800C8CF4111C9CF04
:105250000AC080912504882361F0853061F0809137
:10526000E80083FD0AC08091E80082FFF2CF80E071
:10527000089582E0089583E0089581E008952091E3
:105280002C0430912D042617370748F0611571055D
:1052900039F42091E8002E772093E80001C0B9018D
:1052A000FC0120E06115710591F1809125048823AE
:1052B00009F440C0853009F43FC08091E80083FDC7
:1052C0003DC08091E80082FD2FC08091E80080FF02
:1052D000E9CF2091F3008091F20090E0922B6115CC
:1052E000710559F08830910540F424912093F10024
:1052F0003196615071090196F2CF21E0089709F0CB
:1053000020E08091E8008E778093E800CBCF2111D8
:10531000CCCF0AC080912504882361F0853061F0EC
:105320008091E80083FD0AC08091E80082FFF2CFFF
:1053300080E0089582E0089583E0089581E0089573
:10534000982F973058F59093E900981739F070919D
:10535000EC002091ED005091F00003C0242F762F37
:1053600050E021FF19C03091EB003E7F3093EB00FD
:105370003091ED003D7F3093ED003091EB003160D6
:105380003093EB007093EC002093ED005093F0000D
:105390002091EE0027FF07C09F5FD3CF8F708093CF
:1053A000E90081E0089580E008958091260487FF58
:1053B00011C08091E80082FD05C080912504811113
:1053C000F8CF11C08091E8008B770BC08091250445
:1053D000882349F08091E80080FFF8CF8091E800B1
:1053E0008E778093E80008952091E4003091E500E5
:1053F00095E64091EC00842F817040FF22C080919F
:10540000E80080FD1CC080912504882391F0853040
:1054100091F08091EB0085FD10C04091E400509127
:10542000E5004217530729F39A01915011F784E0E0
:10543000089582E0089583E0089581E0089580E072
:1054400008954091E80042FFDECF08950E94942A1B
:105450000E949C2AE0EEF0E0808181608083E8ED8C
:10546000F0E080818F77808319BCA7EDB0E08C914C
:105470008E7F8C9380818F7E808310922404089588
:105480000F931F93CF93DF930E94942A0E949C2A2C
:10549000C8EDD0E088818F77888388818068888391
:1054A00088818F7D888319BC109225041092210475
:1054B000109223041092220400EE10E0F801808183
:1054C0008B7F808388818160888342E060E080E018
:1054D0000E94A029E1EEF0E080818E7F8083E2EEE1
:1054E000F0E0808181608083808188608083F80122
:1054F00080818E7F8083888180618883DF91CF91D6
:105500001F910F910895E8EDF0E080818F7E8083F8
:10551000E7EDF0E080818160808384E082BF81E0FC
:10552000809324040C94402AE8EDF0E080818E7F83
:1055300080831092E20008951092DA001092E10048
:1055400008951F920F920FB60F9211242F933F933D
:105550004F935F936F937F938F939F93AF93BF937B
:10556000EF93FF938091E10082FF0BC08091E200F6
:1055700082FF07C08091E1008B7F8093E1000E9451
:10558000082D8091DA0080FF1FC08091D80080FF35
:105590001BC08091DA008E7F8093DA008091D90061
:1055A00080FF0DC080E189BD82E189BD09B400FEA4
:1055B000FDCF81E0809325040E940D2705C019BC12
:1055C000109225040E941B278091E10080FF19C0E2
:1055D0008091E20080FF15C08091E2008E7F809371
:1055E000E2008091E20080618093E2008091D80027
:1055F00080628093D80019BC85E0809325040E94C6
:105600001F278091E10084FF30C08091E20084FF79
:105610002CC080E189BD82E189BD09B400FEFDCFC7
:105620008091D8008F7D8093D8008091E1008F7E9B
:105630008093E1008091E2008F7E8093E200809170
:10564000E20081608093E20080912104882311F0C0
:1056500084E007C08091E30087FD02C081E001C0C3
:1056600083E0809325040E9420278091E10083FF3E
:1056700029C08091E20083FF25C08091E100877FEF
:105680008093E10082E080932504109221048091B0
:10569000E1008E7F8093E1008091E2008E7F809315
:1056A000E2008091E20080618093E20042E060E0ED
:1056B00080E00E94A0298091F00088608093F00033
:1056C0000E941E27FF91EF91BF91AF919F918F9103
:1056D0007F916F915F914F913F912F910F900FBEEE
:1056E0000F901F9018951F920F920FB60F921124D2
:1056F0002F933F934F935F936F937F938F939F93DA
:10570000AF93BF93CF93DF93EF93FF93C091E900E3
:10571000CF708091EC00D82FD17080FDD0E810922E
:10572000E9008091F000877F8093F00078940E94D8
:10573000B72B1092E9008091F00088608093F00010
:10574000CD2BCF70C093E900FF91EF91DF91CF9106
:10575000BF91AF919F918F917F916F915F914F9189
:105760003F912F910F900FBE0F901F9018951F9390
:10577000CF93DF93CDB7DEB7AA970FB6F894DEBF0D
:105780000FBECDBFE6E2F4E088E08E0F9091F1000D
:1057900091938E13FBCF0E9436278091E80083FF00
:1057A0001FC18091260490912704492F50E04A3070
:1057B000510508F015C1FA01E558FF4F0C9463310B
:1057C000803881F0823809F00BC180912A048F70F3
:1057D0008093E9008091EB0085FB882780F9109287
:1057E000E90006C080912204909123049111826007
:1057F0009091E800977F9093E8008093F1001092D9
:10580000F100C8C0282F2D7F09F0EAC0882319F0C5
:10581000823061F0E5C080912804813009F0E0C059
:10582000933009F080E0809323042BC080912804FA
:10583000811127C080912A048F7009F4D1C0809310
:10584000E9002091EB0020FF1CC0933021F48091EF
:10585000EB00806214C09091EB0090619093EB009C
:1058600021E030E0A90102C0440F551F8A95E2F7FC
:105870004093EA001092EA008091EB0088608093E8
:10588000EB001092E9008091E800877F86C08111CB
:10589000A7C0109128041F778091E3008078812BA6
:1058A0008093E3008091E800877F8093E8000E9466
:1058B000D5298091E80080FFFCCF8091E3008068CB
:1058C0008093E300111102C082E001C083E0809365
:1058D000250486C08058823008F082C08091280458
:1058E000909129048C3D53E0950779F583E08A83F4
:1058F0008AE289834FB7F894DE01139620E03EE0F8
:1059000051E2E32FF0E050935700E49120FF03C0F1
:10591000E295EF703F5FEF708E2F90E0EA3010F06D
:10592000C79601C0C0968D939D932F5F243149F790
:105930004FBF8091E800877F8093E8006AE270E0C3
:10594000CE0101960E94DC2814C0AE014F5F5F4F6C
:1059500060912A040E942328BC01892B09F440C0CD
:105960009091E800977F9093E80089819A810E9446
:105970003F298091E8008B778093E80031C0803820
:1059800079F58091E800877F8093E8008091210479
:105990008093F1008091E8008E778093E8000E9468
:1059A000D5291EC081111CC0909128049230C0F4EA
:1059B0008091E800877F8093E800909321040E9403
:1059C000D52980912104811106C08091E30087FDD3
:1059D00002C081E001C084E0809325040E94222758
:1059E0008091E80083FF0AC08091E800877F809360
:1059F000E8008091EB0080628093EB00AA960FB6DE
:105A0000F894DEBF0FBECDBFDF91CF911F910895F7
:105A10000895CF93809125048823A1F0C091E900D7
:105A2000CF709091EC00892F817090FD80E8C82B99
:105A30001092E9008091E80083FD0E94B72BCF709F
:105A4000C093E900CF9108955058BB27AA270E9420
:105A50003C2D0C94182F0E940A2F38F00E94112F11
:105A600020F039F49F3F19F426F40C94072F0EF41C
:105A7000E095E7FB0C94F32EE92F0E94292F58F3B1
:105A8000BA17620773078407950720F079F4A6F523
:105A90000C944B2F0EF4E0950B2EBA2FA02D0B017A
:105AA000B90190010C01CA01A0011124FF27591B63
:105AB00099F0593F50F4503E68F11A16F040A22F69
:105AC000232F342F4427585FF3CF469537952795DA
:105AD000A795F0405395C9F77EF41F16BA0B620BD9
:105AE000730B840BBAF09150A1F0FF0FBB1F661F20
:105AF000771F881FC2F70EC0BA0F621F731F841F63
:105B000048F4879577956795B795F7959E3F08F088
:105B1000B0CF9395880F08F09927EE0F979587954A
:105B200008950E94CF2E08F481E008950E94AA2DC6
:105B30000C94182F0E94112F58F00E940A2F40F049
:105B400029F45F3F29F00C94F32E51110C944C2F43
:105B50000C94072F0E94292F68F39923B1F3552342
:105B600091F3951B550BBB27AA2762177307840770
:105B700038F09F5F5F4F220F331F441FAA1FA9F306
:105B800035D00E2E3AF0E0E832D091505040E695F4
:105B9000001CCAF72BD0FE2F29D0660F771F881F55
:105BA000BB1F261737074807AB07B0E809F0BB0B48
:105BB000802DBF01FF2793585F4F3AF09E3F51055C
:105BC00078F00C94F32E0C944C2F5F3FE4F3983E46
:105BD000D4F3869577956795B795F7959F5FC9F745
:105BE000880F911D9695879597F90895E1E0660FC6
:105BF000771F881FBB1F621773078407BA0720F03F
:105C0000621B730B840BBA0BEE1F88F7E0950895A7
:105C10000E940F2E6894B1110C944C2F08950E948D
:105C2000312F88F09F5798F0B92F9927B751B0F0CE
:105C3000E1F0660F771F881F991F1AF0BA95C9F710
:105C400014C0B13091F00E944B2FB1E008950C9434
:105C50004B2F672F782F8827B85F39F0B93FCCF3E7
:105C6000869577956795B395D9F73EF4909580958D
:105C7000709561957F4F8F4F9F4F0895E89409C0AD
:105C800097FB3EF490958095709561957F4F8F4F6F
:105C90009F4F9923A9F0F92F96E9BB279395F69585
:105CA000879577956795B795F111F8CFFAF4BB0F03
:105CB00011F460FF1BC06F5F7F4F8F4F9F4F16C067
:105CC000882311F096E911C0772321F09EE8872FF1
:105CD000762F05C0662371F096E8862F70E060E0AD
:105CE0002AF09A95660F771F881FDAF7880F969526
:105CF000879597F908950E940A2F20F019F00E94C5
:105D0000112F50F40C94072F0C944C2FE92F0E9464
:105D1000292F88F35523B1F3E7FB62177307840734
:105D20009507A8F189F3E92FFF2788232AF03197F7
:105D3000660F771F881FDAF7952F5527442332F017
:105D400091505040220F331F441FD2F7BB27E91B4D
:105D5000F50B621B730B840BB109B1F222F4620FD5
:105D6000731F841FB11D31972AF0660F771F881F9C
:105D7000BB1FEFCF9150504062F041F0882332F0CA
:105D8000660F771F881F91505040C1F793950C9470
:105D9000F92E8695779567959F5FD9F7F7CF990F7D
:105DA0000008550FAA0BE0E8FEEF16161706E807E5
:105DB000F907C0F012161306E407F50798F0621B06
:105DC000730B840B950B39F40A2661F0232B242BDB
:105DD000252B21F408950A2609F4A140A6958FEFFA
:105DE000811D811D089597F99F6780E870E060E04C
:105DF00008959F3F31F0915020F4879577956795EE
:105E0000B795880F911D9695879597F908959FEFFF
:105E100080EC089500240A94161617061806090641
:105E2000089500240A941216130614060506089510
:105E3000092E0394000C11F4882352F0BB0F40F498
:105E4000BF2B11F460FF04C06F5F7F4F8F4F9F4FD8
:105E5000089557FD9058440F551F59F05F3F71F05A
:105E60004795880F97FB991F61F09F3F79F08795C1
:105E70000895121613061406551FF2CF4695F1DF4A
:105E800008C0161617061806991FF1CF86957105DA
:105E9000610508940895E894BB2766277727CB010E
:105EA00097F908950E94CF2E08F48FEF08950E946D
:105EB0006A2F0C94182F0E940A2F38F00E94112F7D
:105EC00020F0952311F00C94F32E0C94072F11243D
:105ED0000C944C2F0E94292F70F3959FC1F3950FBE
:105EE00050E0551F629FF001729FBB27F00DB11D5E
:105EF000639FAA27F00DB11DAA1F649F6627B00DEE
:105F0000A11D661F829F2227B00DA11D621F739FD6
:105F1000B00DA11D621F839FA00D611D221F749FE4
:105F20003327A00D611D231F849F600D211D822F2B
:105F3000762F6A2F11249F5750409AF0F1F0882352
:105F40004AF0EE0FFF1FBB1F661F771F881F91507F
:105F50005040A9F79E3F510580F00C94F32E0C940D
:105F60004C2F5F3FE4F3983ED4F386957795679581
:105F7000B795F795E7959F5FC1F7FE2B880F911DA9
:105F80009695879597F90895FA01EE0FFF1F3096C1
:105F900021053105A1F16115710561F48038BFE378
:105FA0009B0749F168949038810561F08038BFEF14
